{
  "contractName": "SepoliaNFT",
  "abi": [
    {
      "inputs": [],
      "stateMutability": "nonpayable",
      "type": "constructor"
    },
    {
      "anonymous": false,
      "inputs": [
        {
          "indexed": true,
          "internalType": "address",
          "name": "owner",
          "type": "address"
        },
        {
          "indexed": true,
          "internalType": "address",
          "name": "approved",
          "type": "address"
        },
        {
          "indexed": true,
          "internalType": "uint256",
          "name": "tokenId",
          "type": "uint256"
        }
      ],
      "name": "Approval",
      "type": "event"
    },
    {
      "anonymous": false,
      "inputs": [
        {
          "indexed": true,
          "internalType": "address",
          "name": "owner",
          "type": "address"
        },
        {
          "indexed": true,
          "internalType": "address",
          "name": "operator",
          "type": "address"
        },
        {
          "indexed": false,
          "internalType": "bool",
          "name": "approved",
          "type": "bool"
        }
      ],
      "name": "ApprovalForAll",
      "type": "event"
    },
    {
      "anonymous": false,
      "inputs": [
        {
          "indexed": true,
          "internalType": "address",
          "name": "previousOwner",
          "type": "address"
        },
        {
          "indexed": true,
          "internalType": "address",
          "name": "newOwner",
          "type": "address"
        }
      ],
      "name": "OwnershipTransferred",
      "type": "event"
    },
    {
      "anonymous": false,
      "inputs": [
        {
          "indexed": true,
          "internalType": "address",
          "name": "from",
          "type": "address"
        },
        {
          "indexed": true,
          "internalType": "address",
          "name": "to",
          "type": "address"
        },
        {
          "indexed": true,
          "internalType": "uint256",
          "name": "tokenId",
          "type": "uint256"
        }
      ],
      "name": "Transfer",
      "type": "event"
    },
    {
      "anonymous": false,
      "inputs": [
        {
          "indexed": false,
          "internalType": "uint256",
          "name": "tokenId",
          "type": "uint256"
        },
        {
          "indexed": false,
          "internalType": "address",
          "name": "player",
          "type": "address"
        },
        {
          "indexed": false,
          "internalType": "string",
          "name": "tokenURI",
          "type": "string"
        }
      ],
      "name": "mint",
      "type": "event"
    },
    {
      "inputs": [
        {
          "internalType": "address",
          "name": "to",
          "type": "address"
        },
        {
          "internalType": "uint256",
          "name": "tokenId",
          "type": "uint256"
        }
      ],
      "name": "approve",
      "outputs": [],
      "stateMutability": "nonpayable",
      "type": "function"
    },
    {
      "inputs": [
        {
          "internalType": "address",
          "name": "owner",
          "type": "address"
        }
      ],
      "name": "balanceOf",
      "outputs": [
        {
          "internalType": "uint256",
          "name": "",
          "type": "uint256"
        }
      ],
      "stateMutability": "view",
      "type": "function",
      "constant": true
    },
    {
      "inputs": [
        {
          "internalType": "uint256",
          "name": "tokenId",
          "type": "uint256"
        }
      ],
      "name": "getApproved",
      "outputs": [
        {
          "internalType": "address",
          "name": "",
          "type": "address"
        }
      ],
      "stateMutability": "view",
      "type": "function",
      "constant": true
    },
    {
      "inputs": [
        {
          "internalType": "address",
          "name": "owner",
          "type": "address"
        },
        {
          "internalType": "address",
          "name": "operator",
          "type": "address"
        }
      ],
      "name": "isApprovedForAll",
      "outputs": [
        {
          "internalType": "bool",
          "name": "",
          "type": "bool"
        }
      ],
      "stateMutability": "view",
      "type": "function",
      "constant": true
    },
    {
      "inputs": [],
      "name": "name",
      "outputs": [
        {
          "internalType": "string",
          "name": "",
          "type": "string"
        }
      ],
      "stateMutability": "view",
      "type": "function",
      "constant": true
    },
    {
      "inputs": [],
      "name": "owner",
      "outputs": [
        {
          "internalType": "address",
          "name": "",
          "type": "address"
        }
      ],
      "stateMutability": "view",
      "type": "function",
      "constant": true
    },
    {
      "inputs": [
        {
          "internalType": "uint256",
          "name": "tokenId",
          "type": "uint256"
        }
      ],
      "name": "ownerOf",
      "outputs": [
        {
          "internalType": "address",
          "name": "",
          "type": "address"
        }
      ],
      "stateMutability": "view",
      "type": "function",
      "constant": true
    },
    {
      "inputs": [],
      "name": "renounceOwnership",
      "outputs": [],
      "stateMutability": "nonpayable",
      "type": "function"
    },
    {
      "inputs": [
        {
          "internalType": "uint256",
          "name": "_tokenId",
          "type": "uint256"
        },
        {
          "internalType": "uint256",
          "name": "_salePrice",
          "type": "uint256"
        }
      ],
      "name": "royaltyInfo",
      "outputs": [
        {
          "internalType": "address",
          "name": "",
          "type": "address"
        },
        {
          "internalType": "uint256",
          "name": "",
          "type": "uint256"
        }
      ],
      "stateMutability": "view",
      "type": "function",
      "constant": true
    },
    {
      "inputs": [
        {
          "internalType": "address",
          "name": "from",
          "type": "address"
        },
        {
          "internalType": "address",
          "name": "to",
          "type": "address"
        },
        {
          "internalType": "uint256",
          "name": "tokenId",
          "type": "uint256"
        }
      ],
      "name": "safeTransferFrom",
      "outputs": [],
      "stateMutability": "nonpayable",
      "type": "function"
    },
    {
      "inputs": [
        {
          "internalType": "address",
          "name": "from",
          "type": "address"
        },
        {
          "internalType": "address",
          "name": "to",
          "type": "address"
        },
        {
          "internalType": "uint256",
          "name": "tokenId",
          "type": "uint256"
        },
        {
          "internalType": "bytes",
          "name": "data",
          "type": "bytes"
        }
      ],
      "name": "safeTransferFrom",
      "outputs": [],
      "stateMutability": "nonpayable",
      "type": "function"
    },
    {
      "inputs": [
        {
          "internalType": "address",
          "name": "operator",
          "type": "address"
        },
        {
          "internalType": "bool",
          "name": "approved",
          "type": "bool"
        }
      ],
      "name": "setApprovalForAll",
      "outputs": [],
      "stateMutability": "nonpayable",
      "type": "function"
    },
    {
      "inputs": [],
      "name": "symbol",
      "outputs": [
        {
          "internalType": "string",
          "name": "",
          "type": "string"
        }
      ],
      "stateMutability": "view",
      "type": "function",
      "constant": true
    },
    {
      "inputs": [
        {
          "internalType": "address",
          "name": "from",
          "type": "address"
        },
        {
          "internalType": "address",
          "name": "to",
          "type": "address"
        },
        {
          "internalType": "uint256",
          "name": "tokenId",
          "type": "uint256"
        }
      ],
      "name": "transferFrom",
      "outputs": [],
      "stateMutability": "nonpayable",
      "type": "function"
    },
    {
      "inputs": [
        {
          "internalType": "address",
          "name": "newOwner",
          "type": "address"
        }
      ],
      "name": "transferOwnership",
      "outputs": [],
      "stateMutability": "nonpayable",
      "type": "function"
    },
    {
      "inputs": [
        {
          "internalType": "uint256",
          "name": "tokenId",
          "type": "uint256"
        }
      ],
      "name": "tokenURI",
      "outputs": [
        {
          "internalType": "string",
          "name": "",
          "type": "string"
        }
      ],
      "stateMutability": "view",
      "type": "function",
      "constant": true
    },
    {
      "inputs": [
        {
          "internalType": "bytes4",
          "name": "interfaceId",
          "type": "bytes4"
        }
      ],
      "name": "supportsInterface",
      "outputs": [
        {
          "internalType": "bool",
          "name": "",
          "type": "bool"
        }
      ],
      "stateMutability": "view",
      "type": "function",
      "constant": true
    },
    {
      "inputs": [
        {
          "internalType": "string",
          "name": "_tokenURI",
          "type": "string"
        }
      ],
      "name": "mintViking",
      "outputs": [
        {
          "internalType": "uint256",
          "name": "",
          "type": "uint256"
        }
      ],
      "stateMutability": "nonpayable",
      "type": "function"
    }
  ],
  "bytecode": "0x60806040523480156200001157600080fd5b506040518060400160405280600e81526020017f5365706f6c69612056696b696e670000000000000000000000000000000000008152506040518060400160405280600381526020017f53564b000000000000000000000000000000000000000000000000000000000081525081600290816200008f919062000412565b508060039081620000a1919062000412565b505050620000c4620000b8620000ca60201b60201c565b620000d260201b60201c565b620004f9565b600033905090565b6000600960009054906101000a900473ffffffffffffffffffffffffffffffffffffffff16905081600960006101000a81548173ffffffffffffffffffffffffffffffffffffffff021916908373ffffffffffffffffffffffffffffffffffffffff1602179055508173ffffffffffffffffffffffffffffffffffffffff168173ffffffffffffffffffffffffffffffffffffffff167f8be0079c531659141344cd1fd0a4f28419497f9722a3daafe3b4186f6b6457e060405160405180910390a35050565b600081519050919050565b7f4e487b7100000000000000000000000000000000000000000000000000000000600052604160045260246000fd5b7f4e487b7100000000000000000000000000000000000000000000000000000000600052602260045260246000fd5b600060028204905060018216806200021a57607f821691505b60208210810362000230576200022f620001d2565b5b50919050565b60008190508160005260206000209050919050565b60006020601f8301049050919050565b600082821b905092915050565b6000600883026200029a7fffffffffffffffffffffffffffffffffffffffffffffffffffffffffffffffff826200025b565b620002a686836200025b565b95508019841693508086168417925050509392505050565b6000819050919050565b6000819050919050565b6000620002f3620002ed620002e784620002be565b620002c8565b620002be565b9050919050565b6000819050919050565b6200030f83620002d2565b620003276200031e82620002fa565b84845462000268565b825550505050565b600090565b6200033e6200032f565b6200034b81848462000304565b505050565b5b8181101562000373576200036760008262000334565b60018101905062000351565b5050565b601f821115620003c2576200038c8162000236565b62000397846200024b565b81016020851015620003a7578190505b620003bf620003b6856200024b565b83018262000350565b50505b505050565b600082821c905092915050565b6000620003e760001984600802620003c7565b1980831691505092915050565b6000620004028383620003d4565b9150826002028217905092915050565b6200041d8262000198565b67ffffffffffffffff811115620004395762000438620001a3565b5b62000445825462000201565b6200045282828562000377565b600060209050601f8311600181146200048a576000841562000475578287015190505b620004818582620003f4565b865550620004f1565b601f1984166200049a8662000236565b60005b82811015620004c4578489015182556001820191506020850194506020810190506200049d565b86831015620004e45784890151620004e0601f891682620003d4565b8355505b6001600288020188555050505b505050505050565b6131ff80620005096000396000f3fe608060405234801561001057600080fd5b50600436106101165760003560e01c806370a08231116100a2578063a22cb46511610071578063a22cb465146102f4578063b88d4fde14610310578063c87b56dd1461032c578063e985e9c51461035c578063f2fde38b1461038c57610116565b806370a082311461027e578063715018a6146102ae5780638da5cb5b146102b857806395d89b41146102d657610116565b8063095ea7b3116100e9578063095ea7b3146101c957806323b872dd146101e55780632a55205a1461020157806342842e0e146102325780636352211e1461024e57610116565b806301ffc9a71461011b57806306fdde031461014b578063081812fc1461016957806308478a9314610199575b600080fd5b61013560048036038101906101309190611eba565b6103a8565b6040516101429190611f02565b60405180910390f35b6101536103ba565b6040516101609190611fad565b60405180910390f35b610183600480360381019061017e9190612005565b61044c565b6040516101909190612073565b60405180910390f35b6101b360048036038101906101ae91906121c3565b610492565b6040516101c0919061221b565b60405180910390f35b6101e360048036038101906101de9190612262565b610503565b005b6101ff60048036038101906101fa91906122a2565b61061a565b005b61021b600480360381019061021691906122f5565b61067a565b604051610229929190612335565b60405180910390f35b61024c600480360381019061024791906122a2565b610864565b005b61026860048036038101906102639190612005565b610884565b6040516102759190612073565b60405180910390f35b6102986004803603810190610293919061235e565b61090a565b6040516102a5919061221b565b60405180910390f35b6102b66109c1565b005b6102c06109d5565b6040516102cd9190612073565b60405180910390f35b6102de6109ff565b6040516102eb9190611fad565b60405180910390f35b61030e600480360381019061030991906123b7565b610a91565b005b61032a60048036038101906103259190612498565b610aa7565b005b61034660048036038101906103419190612005565b610b09565b6040516103539190611fad565b60405180910390f35b6103766004803603810190610371919061251b565b610b1b565b6040516103839190611f02565b60405180910390f35b6103a660048036038101906103a1919061235e565b610baf565b005b60006103b382610c32565b9050919050565b6060600280546103c99061258a565b80601f01602080910402602001604051908101604052809291908181526020018280546103f59061258a565b80156104425780601f1061041757610100808354040283529160200191610442565b820191906000526020600020905b81548152906001019060200180831161042557829003601f168201915b5050505050905090565b600061045782610c44565b6006600083815260200190815260200160002060009054906101000a900473ffffffffffffffffffffffffffffffffffffffff169050919050565b60008061049f600a610c8f565b90506104ab3382610c9d565b6104b58184610eba565b7fe67e402ca6beeaacd513fae4bbf646bf7d901d594bb12deef43930a6d4a510da8133856040516104e8939291906125bb565b60405180910390a16104fa600a610f27565b80915050919050565b600061050e82610884565b90508073ffffffffffffffffffffffffffffffffffffffff168373ffffffffffffffffffffffffffffffffffffffff160361057e576040517f08c379a00000000000000000000000000000000000000000000000000000000081526004016105759061266b565b60405180910390fd5b8073ffffffffffffffffffffffffffffffffffffffff1661059d610f3d565b73ffffffffffffffffffffffffffffffffffffffff1614806105cc57506105cb816105c6610f3d565b610b1b565b5b61060b576040517f08c379a0000000000000000000000000000000000000000000000000000000008152600401610602906126fd565b60405180910390fd5b6106158383610f45565b505050565b61062b610625610f3d565b82610ffe565b61066a576040517f08c379a00000000000000000000000000000000000000000000000000000000081526004016106619061278f565b60405180910390fd5b610675838383611093565b505050565b6000806000600160008681526020019081526020016000206040518060400160405290816000820160009054906101000a900473ffffffffffffffffffffffffffffffffffffffff1673ffffffffffffffffffffffffffffffffffffffff1673ffffffffffffffffffffffffffffffffffffffff1681526020016000820160149054906101000a90046bffffffffffffffffffffffff166bffffffffffffffffffffffff166bffffffffffffffffffffffff16815250509050600073ffffffffffffffffffffffffffffffffffffffff16816000015173ffffffffffffffffffffffffffffffffffffffff160361080f5760006040518060400160405290816000820160009054906101000a900473ffffffffffffffffffffffffffffffffffffffff1673ffffffffffffffffffffffffffffffffffffffff1673ffffffffffffffffffffffffffffffffffffffff1681526020016000820160149054906101000a90046bffffffffffffffffffffffff166bffffffffffffffffffffffff166bffffffffffffffffffffffff168152505090505b600061081961138c565b6bffffffffffffffffffffffff1682602001516bffffffffffffffffffffffff168661084591906127de565b61084f919061284f565b90508160000151819350935050509250929050565b61087f83838360405180602001604052806000815250610aa7565b505050565b60008061089083611396565b9050600073ffffffffffffffffffffffffffffffffffffffff168173ffffffffffffffffffffffffffffffffffffffff1603610901576040517f08c379a00000000000000000000000000000000000000000000000000000000081526004016108f8906128cc565b60405180910390fd5b80915050919050565b60008073ffffffffffffffffffffffffffffffffffffffff168273ffffffffffffffffffffffffffffffffffffffff160361097a576040517f08c379a00000000000000000000000000000000000000000000000000000000081526004016109719061295e565b60405180910390fd5b600560008373ffffffffffffffffffffffffffffffffffffffff1673ffffffffffffffffffffffffffffffffffffffff168152602001908152602001600020549050919050565b6109c96113d3565b6109d36000611451565b565b6000600960009054906101000a900473ffffffffffffffffffffffffffffffffffffffff16905090565b606060038054610a0e9061258a565b80601f0160208091040260200160405190810160405280929190818152602001828054610a3a9061258a565b8015610a875780601f10610a5c57610100808354040283529160200191610a87565b820191906000526020600020905b815481529060010190602001808311610a6a57829003601f168201915b5050505050905090565b610aa3610a9c610f3d565b8383611517565b5050565b610ab8610ab2610f3d565b83610ffe565b610af7576040517f08c379a0000000000000000000000000000000000000000000000000000000008152600401610aee9061278f565b60405180910390fd5b610b0384848484611683565b50505050565b6060610b14826116df565b9050919050565b6000600760008473ffffffffffffffffffffffffffffffffffffffff1673ffffffffffffffffffffffffffffffffffffffff16815260200190815260200160002060008373ffffffffffffffffffffffffffffffffffffffff1673ffffffffffffffffffffffffffffffffffffffff16815260200190815260200160002060009054906101000a900460ff16905092915050565b610bb76113d3565b600073ffffffffffffffffffffffffffffffffffffffff168173ffffffffffffffffffffffffffffffffffffffff1603610c26576040517f08c379a0000000000000000000000000000000000000000000000000000000008152600401610c1d906129f0565b60405180910390fd5b610c2f81611451565b50565b6000610c3d826117f1565b9050919050565b610c4d816118d3565b610c8c576040517f08c379a0000000000000000000000000000000000000000000000000000000008152600401610c83906128cc565b60405180910390fd5b50565b600081600001549050919050565b600073ffffffffffffffffffffffffffffffffffffffff168273ffffffffffffffffffffffffffffffffffffffff1603610d0c576040517f08c379a0000000000000000000000000000000000000000000000000000000008152600401610d0390612a5c565b60405180910390fd5b610d15816118d3565b15610d55576040517f08c379a0000000000000000000000000000000000000000000000000000000008152600401610d4c90612ac8565b60405180910390fd5b610d63600083836001611914565b610d6c816118d3565b15610dac576040517f08c379a0000000000000000000000000000000000000000000000000000000008152600401610da390612ac8565b60405180910390fd5b6001600560008473ffffffffffffffffffffffffffffffffffffffff1673ffffffffffffffffffffffffffffffffffffffff16815260200190815260200160002060008282540192505081905550816004600083815260200190815260200160002060006101000a81548173ffffffffffffffffffffffffffffffffffffffff021916908373ffffffffffffffffffffffffffffffffffffffff160217905550808273ffffffffffffffffffffffffffffffffffffffff16600073ffffffffffffffffffffffffffffffffffffffff167fddf252ad1be2c89b69c2b068fc378daa952ba7f163c4a11628f55a4df523b3ef60405160405180910390a4610eb660008383600161191a565b5050565b610ec3826118d3565b610f02576040517f08c379a0000000000000000000000000000000000000000000000000000000008152600401610ef990612b5a565b60405180910390fd5b80600860008481526020019081526020016000209081610f229190612d26565b505050565b6001816000016000828254019250508190555050565b600033905090565b816006600083815260200190815260200160002060006101000a81548173ffffffffffffffffffffffffffffffffffffffff021916908373ffffffffffffffffffffffffffffffffffffffff160217905550808273ffffffffffffffffffffffffffffffffffffffff16610fb883610884565b73ffffffffffffffffffffffffffffffffffffffff167f8c5be1e5ebec7d5bd14f71427d1e84f3dd0314c0f7b2291e5b200ac8c7c3b92560405160405180910390a45050565b60008061100a83610884565b90508073ffffffffffffffffffffffffffffffffffffffff168473ffffffffffffffffffffffffffffffffffffffff16148061104c575061104b8185610b1b565b5b8061108a57508373ffffffffffffffffffffffffffffffffffffffff166110728461044c565b73ffffffffffffffffffffffffffffffffffffffff16145b91505092915050565b8273ffffffffffffffffffffffffffffffffffffffff166110b382610884565b73ffffffffffffffffffffffffffffffffffffffff1614611109576040517f08c379a000000000000000000000000000000000000000000000000000000000815260040161110090612e6a565b60405180910390fd5b600073ffffffffffffffffffffffffffffffffffffffff168273ffffffffffffffffffffffffffffffffffffffff1603611178576040517f08c379a000000000000000000000000000000000000000000000000000000000815260040161116f90612efc565b60405180910390fd5b6111858383836001611914565b8273ffffffffffffffffffffffffffffffffffffffff166111a582610884565b73ffffffffffffffffffffffffffffffffffffffff16146111fb576040517f08c379a00000000000000000000000000000000000000000000000000000000081526004016111f290612e6a565b60405180910390fd5b6006600082815260200190815260200160002060006101000a81549073ffffffffffffffffffffffffffffffffffffffff02191690556001600560008573ffffffffffffffffffffffffffffffffffffffff1673ffffffffffffffffffffffffffffffffffffffff168152602001908152602001600020600082825403925050819055506001600560008473ffffffffffffffffffffffffffffffffffffffff1673ffffffffffffffffffffffffffffffffffffffff16815260200190815260200160002060008282540192505081905550816004600083815260200190815260200160002060006101000a81548173ffffffffffffffffffffffffffffffffffffffff021916908373ffffffffffffffffffffffffffffffffffffffff160217905550808273ffffffffffffffffffffffffffffffffffffffff168473ffffffffffffffffffffffffffffffffffffffff167fddf252ad1be2c89b69c2b068fc378daa952ba7f163c4a11628f55a4df523b3ef60405160405180910390a4611387838383600161191a565b505050565b6000612710905090565b60006004600083815260200190815260200160002060009054906101000a900473ffffffffffffffffffffffffffffffffffffffff169050919050565b6113db610f3d565b73ffffffffffffffffffffffffffffffffffffffff166113f96109d5565b73ffffffffffffffffffffffffffffffffffffffff161461144f576040517f08c379a000000000000000000000000000000000000000000000000000000000815260040161144690612f68565b60405180910390fd5b565b6000600960009054906101000a900473ffffffffffffffffffffffffffffffffffffffff16905081600960006101000a81548173ffffffffffffffffffffffffffffffffffffffff021916908373ffffffffffffffffffffffffffffffffffffffff1602179055508173ffffffffffffffffffffffffffffffffffffffff168173ffffffffffffffffffffffffffffffffffffffff167f8be0079c531659141344cd1fd0a4f28419497f9722a3daafe3b4186f6b6457e060405160405180910390a35050565b8173ffffffffffffffffffffffffffffffffffffffff168373ffffffffffffffffffffffffffffffffffffffff1603611585576040517f08c379a000000000000000000000000000000000000000000000000000000000815260040161157c90612fd4565b60405180910390fd5b80600760008573ffffffffffffffffffffffffffffffffffffffff1673ffffffffffffffffffffffffffffffffffffffff16815260200190815260200160002060008473ffffffffffffffffffffffffffffffffffffffff1673ffffffffffffffffffffffffffffffffffffffff16815260200190815260200160002060006101000a81548160ff0219169083151502179055508173ffffffffffffffffffffffffffffffffffffffff168373ffffffffffffffffffffffffffffffffffffffff167f17307eab39ab6107e8899845ad3d59bd9653f200f220920489ca2b5937696c31836040516116769190611f02565b60405180910390a3505050565b61168e848484611093565b61169a84848484611920565b6116d9576040517f08c379a00000000000000000000000000000000000000000000000000000000081526004016116d090613066565b60405180910390fd5b50505050565b60606116ea82610c44565b600060086000848152602001908152602001600020805461170a9061258a565b80601f01602080910402602001604051908101604052809291908181526020018280546117369061258a565b80156117835780601f1061175857610100808354040283529160200191611783565b820191906000526020600020905b81548152906001019060200180831161176657829003601f168201915b505050505090506000611794611aa7565b905060008151036117a95781925050506117ec565b6000825111156117de5780826040516020016117c69291906130c2565b604051602081830303815290604052925050506117ec565b6117e784611abe565b925050505b919050565b60007f80ac58cd000000000000000000000000000000000000000000000000000000007bffffffffffffffffffffffffffffffffffffffffffffffffffffffff1916827bffffffffffffffffffffffffffffffffffffffffffffffffffffffff191614806118bc57507f5b5e139f000000000000000000000000000000000000000000000000000000007bffffffffffffffffffffffffffffffffffffffffffffffffffffffff1916827bffffffffffffffffffffffffffffffffffffffffffffffffffffffff1916145b806118cc57506118cb82611b26565b5b9050919050565b60008073ffffffffffffffffffffffffffffffffffffffff166118f583611396565b73ffffffffffffffffffffffffffffffffffffffff1614159050919050565b50505050565b50505050565b60006119418473ffffffffffffffffffffffffffffffffffffffff16611ba0565b15611a9a578373ffffffffffffffffffffffffffffffffffffffff1663150b7a0261196a610f3d565b8786866040518563ffffffff1660e01b815260040161198c949392919061313b565b6020604051808303816000875af19250505080156119c857506040513d601f19601f820116820180604052508101906119c5919061319c565b60015b611a4a573d80600081146119f8576040519150601f19603f3d011682016040523d82523d6000602084013e6119fd565b606091505b506000815103611a42576040517f08c379a0000000000000000000000000000000000000000000000000000000008152600401611a3990613066565b60405180910390fd5b805181602001fd5b63150b7a0260e01b7bffffffffffffffffffffffffffffffffffffffffffffffffffffffff1916817bffffffffffffffffffffffffffffffffffffffffffffffffffffffff191614915050611a9f565b600190505b949350505050565b606060405180602001604052806000815250905090565b6060611ac982610c44565b6000611ad3611aa7565b90506000815111611af35760405180602001604052806000815250611b1e565b80611afd84611bc3565b604051602001611b0e9291906130c2565b6040516020818303038152906040525b915050919050565b60007f2a55205a000000000000000000000000000000000000000000000000000000007bffffffffffffffffffffffffffffffffffffffffffffffffffffffff1916827bffffffffffffffffffffffffffffffffffffffffffffffffffffffff19161480611b995750611b9882611c91565b5b9050919050565b6000808273ffffffffffffffffffffffffffffffffffffffff163b119050919050565b606060006001611bd284611cfb565b01905060008167ffffffffffffffff811115611bf157611bf0612098565b5b6040519080825280601f01601f191660200182016040528015611c235781602001600182028036833780820191505090505b509050600082602001820190505b600115611c86578080600190039150507f3031323334353637383961626364656600000000000000000000000000000000600a86061a8153600a8581611c7a57611c79612820565b5b04945060008503611c31575b819350505050919050565b60007f01ffc9a7000000000000000000000000000000000000000000000000000000007bffffffffffffffffffffffffffffffffffffffffffffffffffffffff1916827bffffffffffffffffffffffffffffffffffffffffffffffffffffffff1916149050919050565b600080600090507a184f03e93ff9f4daa797ed6e38ed64bf6a1f0100000000000000008310611d59577a184f03e93ff9f4daa797ed6e38ed64bf6a1f0100000000000000008381611d4f57611d4e612820565b5b0492506040810190505b6d04ee2d6d415b85acef81000000008310611d96576d04ee2d6d415b85acef81000000008381611d8c57611d8b612820565b5b0492506020810190505b662386f26fc100008310611dc557662386f26fc100008381611dbb57611dba612820565b5b0492506010810190505b6305f5e1008310611dee576305f5e1008381611de457611de3612820565b5b0492506008810190505b6127108310611e13576127108381611e0957611e08612820565b5b0492506004810190505b60648310611e365760648381611e2c57611e2b612820565b5b0492506002810190505b600a8310611e45576001810190505b80915050919050565b6000604051905090565b600080fd5b600080fd5b60007fffffffff0000000000000000000000000000000000000000000000000000000082169050919050565b611e9781611e62565b8114611ea257600080fd5b50565b600081359050611eb481611e8e565b92915050565b600060208284031215611ed057611ecf611e58565b5b6000611ede84828501611ea5565b91505092915050565b60008115159050919050565b611efc81611ee7565b82525050565b6000602082019050611f176000830184611ef3565b92915050565b600081519050919050565b600082825260208201905092915050565b60005b83811015611f57578082015181840152602081019050611f3c565b60008484015250505050565b6000601f19601f8301169050919050565b6000611f7f82611f1d565b611f898185611f28565b9350611f99818560208601611f39565b611fa281611f63565b840191505092915050565b60006020820190508181036000830152611fc78184611f74565b905092915050565b6000819050919050565b611fe281611fcf565b8114611fed57600080fd5b50565b600081359050611fff81611fd9565b92915050565b60006020828403121561201b5761201a611e58565b5b600061202984828501611ff0565b91505092915050565b600073ffffffffffffffffffffffffffffffffffffffff82169050919050565b600061205d82612032565b9050919050565b61206d81612052565b82525050565b60006020820190506120886000830184612064565b92915050565b600080fd5b600080fd5b7f4e487b7100000000000000000000000000000000000000000000000000000000600052604160045260246000fd5b6120d082611f63565b810181811067ffffffffffffffff821117156120ef576120ee612098565b5b80604052505050565b6000612102611e4e565b905061210e82826120c7565b919050565b600067ffffffffffffffff82111561212e5761212d612098565b5b61213782611f63565b9050602081019050919050565b82818337600083830152505050565b600061216661216184612113565b6120f8565b90508281526020810184848401111561218257612181612093565b5b61218d848285612144565b509392505050565b600082601f8301126121aa576121a961208e565b5b81356121ba848260208601612153565b91505092915050565b6000602082840312156121d9576121d8611e58565b5b600082013567ffffffffffffffff8111156121f7576121f6611e5d565b5b61220384828501612195565b91505092915050565b61221581611fcf565b82525050565b6000602082019050612230600083018461220c565b92915050565b61223f81612052565b811461224a57600080fd5b50565b60008135905061225c81612236565b92915050565b6000806040838503121561227957612278611e58565b5b60006122878582860161224d565b925050602061229885828601611ff0565b9150509250929050565b6000806000606084860312156122bb576122ba611e58565b5b60006122c98682870161224d565b93505060206122da8682870161224d565b92505060406122eb86828701611ff0565b9150509250925092565b6000806040838503121561230c5761230b611e58565b5b600061231a85828601611ff0565b925050602061232b85828601611ff0565b9150509250929050565b600060408201905061234a6000830185612064565b612357602083018461220c565b9392505050565b60006020828403121561237457612373611e58565b5b60006123828482850161224d565b91505092915050565b61239481611ee7565b811461239f57600080fd5b50565b6000813590506123b18161238b565b92915050565b600080604083850312156123ce576123cd611e58565b5b60006123dc8582860161224d565b92505060206123ed858286016123a2565b9150509250929050565b600067ffffffffffffffff82111561241257612411612098565b5b61241b82611f63565b9050602081019050919050565b600061243b612436846123f7565b6120f8565b90508281526020810184848401111561245757612456612093565b5b612462848285612144565b509392505050565b600082601f83011261247f5761247e61208e565b5b813561248f848260208601612428565b91505092915050565b600080600080608085870312156124b2576124b1611e58565b5b60006124c08782880161224d565b94505060206124d18782880161224d565b93505060406124e287828801611ff0565b925050606085013567ffffffffffffffff81111561250357612502611e5d565b5b61250f8782880161246a565b91505092959194509250565b6000806040838503121561253257612531611e58565b5b60006125408582860161224d565b92505060206125518582860161224d565b9150509250929050565b7f4e487b7100000000000000000000000000000000000000000000000000000000600052602260045260246000fd5b600060028204905060018216806125a257607f821691505b6020821081036125b5576125b461255b565b5b50919050565b60006060820190506125d0600083018661220c565b6125dd6020830185612064565b81810360408301526125ef8184611f74565b9050949350505050565b7f4552433732313a20617070726f76616c20746f2063757272656e74206f776e6560008201527f7200000000000000000000000000000000000000000000000000000000000000602082015250565b6000612655602183611f28565b9150612660826125f9565b604082019050919050565b6000602082019050818103600083015261268481612648565b9050919050565b7f4552433732313a20617070726f76652063616c6c6572206973206e6f7420746f60008201527f6b656e206f776e6572206f7220617070726f76656420666f7220616c6c000000602082015250565b60006126e7603d83611f28565b91506126f28261268b565b604082019050919050565b60006020820190508181036000830152612716816126da565b9050919050565b7f4552433732313a2063616c6c6572206973206e6f7420746f6b656e206f776e6560008201527f72206f7220617070726f76656400000000000000000000000000000000000000602082015250565b6000612779602d83611f28565b91506127848261271d565b604082019050919050565b600060208201905081810360008301526127a88161276c565b9050919050565b7f4e487b7100000000000000000000000000000000000000000000000000000000600052601160045260246000fd5b60006127e982611fcf565b91506127f483611fcf565b925082820261280281611fcf565b91508282048414831517612819576128186127af565b5b5092915050565b7f4e487b7100000000000000000000000000000000000000000000000000000000600052601260045260246000fd5b600061285a82611fcf565b915061286583611fcf565b92508261287557612874612820565b5b828204905092915050565b7f4552433732313a20696e76616c696420746f6b656e2049440000000000000000600082015250565b60006128b6601883611f28565b91506128c182612880565b602082019050919050565b600060208201905081810360008301526128e5816128a9565b9050919050565b7f4552433732313a2061646472657373207a65726f206973206e6f74206120766160008201527f6c6964206f776e65720000000000000000000000000000000000000000000000602082015250565b6000612948602983611f28565b9150612953826128ec565b604082019050919050565b600060208201905081810360008301526129778161293b565b9050919050565b7f4f776e61626c653a206e6577206f776e657220697320746865207a65726f206160008201527f6464726573730000000000000000000000000000000000000000000000000000602082015250565b60006129da602683611f28565b91506129e58261297e565b604082019050919050565b60006020820190508181036000830152612a09816129cd565b9050919050565b7f4552433732313a206d696e7420746f20746865207a65726f2061646472657373600082015250565b6000612a46602083611f28565b9150612a5182612a10565b602082019050919050565b60006020820190508181036000830152612a7581612a39565b9050919050565b7f4552433732313a20746f6b656e20616c7265616479206d696e74656400000000600082015250565b6000612ab2601c83611f28565b9150612abd82612a7c565b602082019050919050565b60006020820190508181036000830152612ae181612aa5565b9050919050565b7f45524337323155524953746f726167653a2055524920736574206f66206e6f6e60008201527f6578697374656e7420746f6b656e000000000000000000000000000000000000602082015250565b6000612b44602e83611f28565b9150612b4f82612ae8565b604082019050919050565b60006020820190508181036000830152612b7381612b37565b9050919050565b60008190508160005260206000209050919050565b60006020601f8301049050919050565b600082821b905092915050565b600060088302612bdc7fffffffffffffffffffffffffffffffffffffffffffffffffffffffffffffffff82612b9f565b612be68683612b9f565b95508019841693508086168417925050509392505050565b6000819050919050565b6000612c23612c1e612c1984611fcf565b612bfe565b611fcf565b9050919050565b6000819050919050565b612c3d83612c08565b612c51612c4982612c2a565b848454612bac565b825550505050565b600090565b612c66612c59565b612c71818484612c34565b505050565b5b81811015612c9557612c8a600082612c5e565b600181019050612c77565b5050565b601f821115612cda57612cab81612b7a565b612cb484612b8f565b81016020851015612cc3578190505b612cd7612ccf85612b8f565b830182612c76565b50505b505050565b600082821c905092915050565b6000612cfd60001984600802612cdf565b1980831691505092915050565b6000612d168383612cec565b9150826002028217905092915050565b612d2f82611f1d565b67ffffffffffffffff811115612d4857612d47612098565b5b612d52825461258a565b612d5d828285612c99565b600060209050601f831160018114612d905760008415612d7e578287015190505b612d888582612d0a565b865550612df0565b601f198416612d9e86612b7a565b60005b82811015612dc657848901518255600182019150602085019450602081019050612da1565b86831015612de35784890151612ddf601f891682612cec565b8355505b6001600288020188555050505b505050505050565b7f4552433732313a207472616e736665722066726f6d20696e636f72726563742060008201527f6f776e6572000000000000000000000000000000000000000000000000000000602082015250565b6000612e54602583611f28565b9150612e5f82612df8565b604082019050919050565b60006020820190508181036000830152612e8381612e47565b9050919050565b7f4552433732313a207472616e7366657220746f20746865207a65726f2061646460008201527f7265737300000000000000000000000000000000000000000000000000000000602082015250565b6000612ee6602483611f28565b9150612ef182612e8a565b604082019050919050565b60006020820190508181036000830152612f1581612ed9565b9050919050565b7f4f776e61626c653a2063616c6c6572206973206e6f7420746865206f776e6572600082015250565b6000612f52602083611f28565b9150612f5d82612f1c565b602082019050919050565b60006020820190508181036000830152612f8181612f45565b9050919050565b7f4552433732313a20617070726f766520746f2063616c6c657200000000000000600082015250565b6000612fbe601983611f28565b9150612fc982612f88565b602082019050919050565b60006020820190508181036000830152612fed81612fb1565b9050919050565b7f4552433732313a207472616e7366657220746f206e6f6e20455243373231526560008201527f63656976657220696d706c656d656e7465720000000000000000000000000000602082015250565b6000613050603283611f28565b915061305b82612ff4565b604082019050919050565b6000602082019050818103600083015261307f81613043565b9050919050565b600081905092915050565b600061309c82611f1d565b6130a68185613086565b93506130b6818560208601611f39565b80840191505092915050565b60006130ce8285613091565b91506130da8284613091565b91508190509392505050565b600081519050919050565b600082825260208201905092915050565b600061310d826130e6565b61311781856130f1565b9350613127818560208601611f39565b61313081611f63565b840191505092915050565b60006080820190506131506000830187612064565b61315d6020830186612064565b61316a604083018561220c565b818103606083015261317c8184613102565b905095945050505050565b60008151905061319681611e8e565b92915050565b6000602082840312156131b2576131b1611e58565b5b60006131c084828501613187565b9150509291505056fea264697066735822122034dc62f002d77e3bac7064f02c0b0a0271330fce58fee55c4c404205f489ceec64736f6c63430008120033",
  "immutableReferences": {},
  "source": "//SPDX-License-Identifier: MIT\n\npragma solidity ^0.8.7;\n\nimport \"@openzeppelin/contracts/token/ERC721/extensions/ERC721URIStorage.sol\";\nimport \"@openzeppelin/contracts/token/ERC721/extensions/ERC721Royalty.sol\";\nimport \"@openzeppelin/contracts/utils/Counters.sol\";\nimport \"@openzeppelin/contracts/access/Ownable.sol\";\n\ncontract SepoliaNFT is ERC721URIStorage, Ownable, ERC721Royalty {\n    using Counters for Counters.Counter;\n    Counters.Counter private _tokenIds;\n    event mint(uint256 tokenId, address player, string tokenURI);\n\n    constructor() ERC721(\"Sepolia Viking\", \"SVK\") {}\n\n    function tokenURI(\n        uint256 tokenId\n    )\n        public\n        view\n        virtual\n        override(ERC721, ERC721URIStorage)\n        returns (string memory)\n    {\n        return super.tokenURI(tokenId);\n    }\n\n    function _burn(\n        uint256 tokenId\n    ) internal override(ERC721URIStorage, ERC721Royalty) {\n        super._burn(tokenId);\n    }\n\n    function supportsInterface(\n        bytes4 interfaceId\n    ) public view override(ERC721, ERC721Royalty) returns (bool) {\n        return super.supportsInterface(interfaceId);\n    }\n\n    function mintViking(string memory _tokenURI) public returns (uint256) {\n        uint256 newItemId = _tokenIds.current();\n        _mint(msg.sender, newItemId);\n        _setTokenURI(newItemId, _tokenURI);\n        emit mint(newItemId, msg.sender, _tokenURI);\n        _tokenIds.increment();\n        return newItemId;\n    }\n}\n",
  "sourcePath": "/Users/cromewar/development/moralis/videos/April/video-versus/truffle-project/truffle/contracts/SepoliaNFT.sol",
  "compiler": {
    "name": "solc",
    "version": "0.8.18+commit.87f61d96.Emscripten.clang"
  },
  "schemaVersion": "3.4.13",
  "updatedAt": "2023-04-13T05:50:12.416Z",
  "networkType": "ethereum",
  "devdoc": {
    "events": {
      "Approval(address,address,uint256)": {
        "details": "Emitted when `owner` enables `approved` to manage the `tokenId` token."
      },
      "ApprovalForAll(address,address,bool)": {
        "details": "Emitted when `owner` enables or disables (`approved`) `operator` to manage all of its assets."
      },
      "Transfer(address,address,uint256)": {
        "details": "Emitted when `tokenId` token is transferred from `from` to `to`."
      }
    },
    "kind": "dev",
    "methods": {
      "approve(address,uint256)": {
        "details": "See {IERC721-approve}."
      },
      "balanceOf(address)": {
        "details": "See {IERC721-balanceOf}."
      },
      "getApproved(uint256)": {
        "details": "See {IERC721-getApproved}."
      },
      "isApprovedForAll(address,address)": {
        "details": "See {IERC721-isApprovedForAll}."
      },
      "name()": {
        "details": "See {IERC721Metadata-name}."
      },
      "owner()": {
        "details": "Returns the address of the current owner."
      },
      "ownerOf(uint256)": {
        "details": "See {IERC721-ownerOf}."
      },
      "renounceOwnership()": {
        "details": "Leaves the contract without owner. It will not be possible to call `onlyOwner` functions anymore. Can only be called by the current owner. NOTE: Renouncing ownership will leave the contract without an owner, thereby removing any functionality that is only available to the owner."
      },
      "royaltyInfo(uint256,uint256)": {
        "details": "Returns how much royalty is owed and to whom, based on a sale price that may be denominated in any unit of exchange. The royalty amount is denominated and should be paid in that same unit of exchange."
      },
      "safeTransferFrom(address,address,uint256)": {
        "details": "See {IERC721-safeTransferFrom}."
      },
      "safeTransferFrom(address,address,uint256,bytes)": {
        "details": "See {IERC721-safeTransferFrom}."
      },
      "setApprovalForAll(address,bool)": {
        "details": "See {IERC721-setApprovalForAll}."
      },
      "symbol()": {
        "details": "See {IERC721Metadata-symbol}."
      },
      "transferFrom(address,address,uint256)": {
        "details": "See {IERC721-transferFrom}."
      },
      "transferOwnership(address)": {
        "details": "Transfers ownership of the contract to a new account (`newOwner`). Can only be called by the current owner."
      }
    },
    "version": 1
  },
  "userdoc": {
    "kind": "user",
    "methods": {},
    "version": 1
  }
}