{"contracts/SepoliaNFT.sol":{"SepoliaNFT":{"abi":[{"inputs":[],"stateMutability":"nonpayable","type":"constructor"},{"anonymous":false,"inputs":[{"indexed":true,"internalType":"address","name":"owner","type":"address"},{"indexed":true,"internalType":"address","name":"approved","type":"address"},{"indexed":true,"internalType":"uint256","name":"tokenId","type":"uint256"}],"name":"Approval","type":"event"},{"anonymous":false,"inputs":[{"indexed":true,"internalType":"address","name":"owner","type":"address"},{"indexed":true,"internalType":"address","name":"operator","type":"address"},{"indexed":false,"internalType":"bool","name":"approved","type":"bool"}],"name":"ApprovalForAll","type":"event"},{"anonymous":false,"inputs":[{"indexed":true,"internalType":"address","name":"previousOwner","type":"address"},{"indexed":true,"internalType":"address","name":"newOwner","type":"address"}],"name":"OwnershipTransferred","type":"event"},{"anonymous":false,"inputs":[{"indexed":true,"internalType":"address","name":"from","type":"address"},{"indexed":true,"internalType":"address","name":"to","type":"address"},{"indexed":true,"internalType":"uint256","name":"tokenId","type":"uint256"}],"name":"Transfer","type":"event"},{"anonymous":false,"inputs":[{"indexed":false,"internalType":"uint256","name":"tokenId","type":"uint256"},{"indexed":false,"internalType":"address","name":"player","type":"address"},{"indexed":false,"internalType":"string","name":"tokenURI","type":"string"}],"name":"mint","type":"event"},{"inputs":[{"internalType":"address","name":"to","type":"address"},{"internalType":"uint256","name":"tokenId","type":"uint256"}],"name":"approve","outputs":[],"stateMutability":"nonpayable","type":"function"},{"inputs":[{"internalType":"address","name":"owner","type":"address"}],"name":"balanceOf","outputs":[{"internalType":"uint256","name":"","type":"uint256"}],"stateMutability":"view","type":"function"},{"inputs":[{"internalType":"uint256","name":"tokenId","type":"uint256"}],"name":"getApproved","outputs":[{"internalType":"address","name":"","type":"address"}],"stateMutability":"view","type":"function"},{"inputs":[{"internalType":"address","name":"owner","type":"address"},{"internalType":"address","name":"operator","type":"address"}],"name":"isApprovedForAll","outputs":[{"internalType":"bool","name":"","type":"bool"}],"stateMutability":"view","type":"function"},{"inputs":[{"internalType":"string","name":"_tokenURI","type":"string"}],"name":"mintViking","outputs":[{"internalType":"uint256","name":"","type":"uint256"}],"stateMutability":"nonpayable","type":"function"},{"inputs":[],"name":"name","outputs":[{"internalType":"string","name":"","type":"string"}],"stateMutability":"view","type":"function"},{"inputs":[],"name":"owner","outputs":[{"internalType":"address","name":"","type":"address"}],"stateMutability":"view","type":"function"},{"inputs":[{"internalType":"uint256","name":"tokenId","type":"uint256"}],"name":"ownerOf","outputs":[{"internalType":"address","name":"","type":"address"}],"stateMutability":"view","type":"function"},{"inputs":[],"name":"renounceOwnership","outputs":[],"stateMutability":"nonpayable","type":"function"},{"inputs":[{"internalType":"uint256","name":"_tokenId","type":"uint256"},{"internalType":"uint256","name":"_salePrice","type":"uint256"}],"name":"royaltyInfo","outputs":[{"internalType":"address","name":"","type":"address"},{"internalType":"uint256","name":"","type":"uint256"}],"stateMutability":"view","type":"function"},{"inputs":[{"internalType":"address","name":"from","type":"address"},{"internalType":"address","name":"to","type":"address"},{"internalType":"uint256","name":"tokenId","type":"uint256"}],"name":"safeTransferFrom","outputs":[],"stateMutability":"nonpayable","type":"function"},{"inputs":[{"internalType":"address","name":"from","type":"address"},{"internalType":"address","name":"to","type":"address"},{"internalType":"uint256","name":"tokenId","type":"uint256"},{"internalType":"bytes","name":"data","type":"bytes"}],"name":"safeTransferFrom","outputs":[],"stateMutability":"nonpayable","type":"function"},{"inputs":[{"internalType":"address","name":"operator","type":"address"},{"internalType":"bool","name":"approved","type":"bool"}],"name":"setApprovalForAll","outputs":[],"stateMutability":"nonpayable","type":"function"},{"inputs":[{"internalType":"bytes4","name":"interfaceId","type":"bytes4"}],"name":"supportsInterface","outputs":[{"internalType":"bool","name":"","type":"bool"}],"stateMutability":"view","type":"function"},{"inputs":[],"name":"symbol","outputs":[{"internalType":"string","name":"","type":"string"}],"stateMutability":"view","type":"function"},{"inputs":[{"internalType":"uint256","name":"tokenId","type":"uint256"}],"name":"tokenURI","outputs":[{"internalType":"string","name":"","type":"string"}],"stateMutability":"view","type":"function"},{"inputs":[{"internalType":"address","name":"from","type":"address"},{"internalType":"address","name":"to","type":"address"},{"internalType":"uint256","name":"tokenId","type":"uint256"}],"name":"transferFrom","outputs":[],"stateMutability":"nonpayable","type":"function"},{"inputs":[{"internalType":"address","name":"newOwner","type":"address"}],"name":"transferOwnership","outputs":[],"stateMutability":"nonpayable","type":"function"}],"evm":{"bytecode":{"linkReferences":{},"object":"60806040523480156200001157600080fd5b506040518060400160405280600e81526020017f5365706f6c69612056696b696e670000000000000000000000000000000000008152506040518060400160405280600381526020017f53564b000000000000000000000000000000000000000000000000000000000081525081600290816200008f919062000412565b508060039081620000a1919062000412565b505050620000c4620000b8620000ca60201b60201c565b620000d260201b60201c565b620004f9565b600033905090565b6000600960009054906101000a900473ffffffffffffffffffffffffffffffffffffffff16905081600960006101000a81548173ffffffffffffffffffffffffffffffffffffffff021916908373ffffffffffffffffffffffffffffffffffffffff1602179055508173ffffffffffffffffffffffffffffffffffffffff168173ffffffffffffffffffffffffffffffffffffffff167f8be0079c531659141344cd1fd0a4f28419497f9722a3daafe3b4186f6b6457e060405160405180910390a35050565b600081519050919050565b7f4e487b7100000000000000000000000000000000000000000000000000000000600052604160045260246000fd5b7f4e487b7100000000000000000000000000000000000000000000000000000000600052602260045260246000fd5b600060028204905060018216806200021a57607f821691505b60208210810362000230576200022f620001d2565b5b50919050565b60008190508160005260206000209050919050565b60006020601f8301049050919050565b600082821b905092915050565b6000600883026200029a7fffffffffffffffffffffffffffffffffffffffffffffffffffffffffffffffff826200025b565b620002a686836200025b565b95508019841693508086168417925050509392505050565b6000819050919050565b6000819050919050565b6000620002f3620002ed620002e784620002be565b620002c8565b620002be565b9050919050565b6000819050919050565b6200030f83620002d2565b620003276200031e82620002fa565b84845462000268565b825550505050565b600090565b6200033e6200032f565b6200034b81848462000304565b505050565b5b8181101562000373576200036760008262000334565b60018101905062000351565b5050565b601f821115620003c2576200038c8162000236565b62000397846200024b565b81016020851015620003a7578190505b620003bf620003b6856200024b565b83018262000350565b50505b505050565b600082821c905092915050565b6000620003e760001984600802620003c7565b1980831691505092915050565b6000620004028383620003d4565b9150826002028217905092915050565b6200041d8262000198565b67ffffffffffffffff811115620004395762000438620001a3565b5b62000445825462000201565b6200045282828562000377565b600060209050601f8311600181146200048a576000841562000475578287015190505b620004818582620003f4565b865550620004f1565b601f1984166200049a8662000236565b60005b82811015620004c4578489015182556001820191506020850194506020810190506200049d565b86831015620004e45784890151620004e0601f891682620003d4565b8355505b6001600288020188555050505b505050505050565b6131ff80620005096000396000f3fe608060405234801561001057600080fd5b50600436106101165760003560e01c806370a08231116100a2578063a22cb46511610071578063a22cb465146102f4578063b88d4fde14610310578063c87b56dd1461032c578063e985e9c51461035c578063f2fde38b1461038c57610116565b806370a082311461027e578063715018a6146102ae5780638da5cb5b146102b857806395d89b41146102d657610116565b8063095ea7b3116100e9578063095ea7b3146101c957806323b872dd146101e55780632a55205a1461020157806342842e0e146102325780636352211e1461024e57610116565b806301ffc9a71461011b57806306fdde031461014b578063081812fc1461016957806308478a9314610199575b600080fd5b61013560048036038101906101309190611eba565b6103a8565b6040516101429190611f02565b60405180910390f35b6101536103ba565b6040516101609190611fad565b60405180910390f35b610183600480360381019061017e9190612005565b61044c565b6040516101909190612073565b60405180910390f35b6101b360048036038101906101ae91906121c3565b610492565b6040516101c0919061221b565b60405180910390f35b6101e360048036038101906101de9190612262565b610503565b005b6101ff60048036038101906101fa91906122a2565b61061a565b005b61021b600480360381019061021691906122f5565b61067a565b604051610229929190612335565b60405180910390f35b61024c600480360381019061024791906122a2565b610864565b005b61026860048036038101906102639190612005565b610884565b6040516102759190612073565b60405180910390f35b6102986004803603810190610293919061235e565b61090a565b6040516102a5919061221b565b60405180910390f35b6102b66109c1565b005b6102c06109d5565b6040516102cd9190612073565b60405180910390f35b6102de6109ff565b6040516102eb9190611fad565b60405180910390f35b61030e600480360381019061030991906123b7565b610a91565b005b61032a60048036038101906103259190612498565b610aa7565b005b61034660048036038101906103419190612005565b610b09565b6040516103539190611fad565b60405180910390f35b6103766004803603810190610371919061251b565b610b1b565b6040516103839190611f02565b60405180910390f35b6103a660048036038101906103a1919061235e565b610baf565b005b60006103b382610c32565b9050919050565b6060600280546103c99061258a565b80601f01602080910402602001604051908101604052809291908181526020018280546103f59061258a565b80156104425780601f1061041757610100808354040283529160200191610442565b820191906000526020600020905b81548152906001019060200180831161042557829003601f168201915b5050505050905090565b600061045782610c44565b6006600083815260200190815260200160002060009054906101000a900473ffffffffffffffffffffffffffffffffffffffff169050919050565b60008061049f600a610c8f565b90506104ab3382610c9d565b6104b58184610eba565b7fe67e402ca6beeaacd513fae4bbf646bf7d901d594bb12deef43930a6d4a510da8133856040516104e8939291906125bb565b60405180910390a16104fa600a610f27565b80915050919050565b600061050e82610884565b90508073ffffffffffffffffffffffffffffffffffffffff168373ffffffffffffffffffffffffffffffffffffffff160361057e576040517f08c379a00000000000000000000000000000000000000000000000000000000081526004016105759061266b565b60405180910390fd5b8073ffffffffffffffffffffffffffffffffffffffff1661059d610f3d565b73ffffffffffffffffffffffffffffffffffffffff1614806105cc57506105cb816105c6610f3d565b610b1b565b5b61060b576040517f08c379a0000000000000000000000000000000000000000000000000000000008152600401610602906126fd565b60405180910390fd5b6106158383610f45565b505050565b61062b610625610f3d565b82610ffe565b61066a576040517f08c379a00000000000000000000000000000000000000000000000000000000081526004016106619061278f565b60405180910390fd5b610675838383611093565b505050565b6000806000600160008681526020019081526020016000206040518060400160405290816000820160009054906101000a900473ffffffffffffffffffffffffffffffffffffffff1673ffffffffffffffffffffffffffffffffffffffff1673ffffffffffffffffffffffffffffffffffffffff1681526020016000820160149054906101000a90046bffffffffffffffffffffffff166bffffffffffffffffffffffff166bffffffffffffffffffffffff16815250509050600073ffffffffffffffffffffffffffffffffffffffff16816000015173ffffffffffffffffffffffffffffffffffffffff160361080f5760006040518060400160405290816000820160009054906101000a900473ffffffffffffffffffffffffffffffffffffffff1673ffffffffffffffffffffffffffffffffffffffff1673ffffffffffffffffffffffffffffffffffffffff1681526020016000820160149054906101000a90046bffffffffffffffffffffffff166bffffffffffffffffffffffff166bffffffffffffffffffffffff168152505090505b600061081961138c565b6bffffffffffffffffffffffff1682602001516bffffffffffffffffffffffff168661084591906127de565b61084f919061284f565b90508160000151819350935050509250929050565b61087f83838360405180602001604052806000815250610aa7565b505050565b60008061089083611396565b9050600073ffffffffffffffffffffffffffffffffffffffff168173ffffffffffffffffffffffffffffffffffffffff1603610901576040517f08c379a00000000000000000000000000000000000000000000000000000000081526004016108f8906128cc565b60405180910390fd5b80915050919050565b60008073ffffffffffffffffffffffffffffffffffffffff168273ffffffffffffffffffffffffffffffffffffffff160361097a576040517f08c379a00000000000000000000000000000000000000000000000000000000081526004016109719061295e565b60405180910390fd5b600560008373ffffffffffffffffffffffffffffffffffffffff1673ffffffffffffffffffffffffffffffffffffffff168152602001908152602001600020549050919050565b6109c96113d3565b6109d36000611451565b565b6000600960009054906101000a900473ffffffffffffffffffffffffffffffffffffffff16905090565b606060038054610a0e9061258a565b80601f0160208091040260200160405190810160405280929190818152602001828054610a3a9061258a565b8015610a875780601f10610a5c57610100808354040283529160200191610a87565b820191906000526020600020905b815481529060010190602001808311610a6a57829003601f168201915b5050505050905090565b610aa3610a9c610f3d565b8383611517565b5050565b610ab8610ab2610f3d565b83610ffe565b610af7576040517f08c379a0000000000000000000000000000000000000000000000000000000008152600401610aee9061278f565b60405180910390fd5b610b0384848484611683565b50505050565b6060610b14826116df565b9050919050565b6000600760008473ffffffffffffffffffffffffffffffffffffffff1673ffffffffffffffffffffffffffffffffffffffff16815260200190815260200160002060008373ffffffffffffffffffffffffffffffffffffffff1673ffffffffffffffffffffffffffffffffffffffff16815260200190815260200160002060009054906101000a900460ff16905092915050565b610bb76113d3565b600073ffffffffffffffffffffffffffffffffffffffff168173ffffffffffffffffffffffffffffffffffffffff1603610c26576040517f08c379a0000000000000000000000000000000000000000000000000000000008152600401610c1d906129f0565b60405180910390fd5b610c2f81611451565b50565b6000610c3d826117f1565b9050919050565b610c4d816118d3565b610c8c576040517f08c379a0000000000000000000000000000000000000000000000000000000008152600401610c83906128cc565b60405180910390fd5b50565b600081600001549050919050565b600073ffffffffffffffffffffffffffffffffffffffff168273ffffffffffffffffffffffffffffffffffffffff1603610d0c576040517f08c379a0000000000000000000000000000000000000000000000000000000008152600401610d0390612a5c565b60405180910390fd5b610d15816118d3565b15610d55576040517f08c379a0000000000000000000000000000000000000000000000000000000008152600401610d4c90612ac8565b60405180910390fd5b610d63600083836001611914565b610d6c816118d3565b15610dac576040517f08c379a0000000000000000000000000000000000000000000000000000000008152600401610da390612ac8565b60405180910390fd5b6001600560008473ffffffffffffffffffffffffffffffffffffffff1673ffffffffffffffffffffffffffffffffffffffff16815260200190815260200160002060008282540192505081905550816004600083815260200190815260200160002060006101000a81548173ffffffffffffffffffffffffffffffffffffffff021916908373ffffffffffffffffffffffffffffffffffffffff160217905550808273ffffffffffffffffffffffffffffffffffffffff16600073ffffffffffffffffffffffffffffffffffffffff167fddf252ad1be2c89b69c2b068fc378daa952ba7f163c4a11628f55a4df523b3ef60405160405180910390a4610eb660008383600161191a565b5050565b610ec3826118d3565b610f02576040517f08c379a0000000000000000000000000000000000000000000000000000000008152600401610ef990612b5a565b60405180910390fd5b80600860008481526020019081526020016000209081610f229190612d26565b505050565b6001816000016000828254019250508190555050565b600033905090565b816006600083815260200190815260200160002060006101000a81548173ffffffffffffffffffffffffffffffffffffffff021916908373ffffffffffffffffffffffffffffffffffffffff160217905550808273ffffffffffffffffffffffffffffffffffffffff16610fb883610884565b73ffffffffffffffffffffffffffffffffffffffff167f8c5be1e5ebec7d5bd14f71427d1e84f3dd0314c0f7b2291e5b200ac8c7c3b92560405160405180910390a45050565b60008061100a83610884565b90508073ffffffffffffffffffffffffffffffffffffffff168473ffffffffffffffffffffffffffffffffffffffff16148061104c575061104b8185610b1b565b5b8061108a57508373ffffffffffffffffffffffffffffffffffffffff166110728461044c565b73ffffffffffffffffffffffffffffffffffffffff16145b91505092915050565b8273ffffffffffffffffffffffffffffffffffffffff166110b382610884565b73ffffffffffffffffffffffffffffffffffffffff1614611109576040517f08c379a000000000000000000000000000000000000000000000000000000000815260040161110090612e6a565b60405180910390fd5b600073ffffffffffffffffffffffffffffffffffffffff168273ffffffffffffffffffffffffffffffffffffffff1603611178576040517f08c379a000000000000000000000000000000000000000000000000000000000815260040161116f90612efc565b60405180910390fd5b6111858383836001611914565b8273ffffffffffffffffffffffffffffffffffffffff166111a582610884565b73ffffffffffffffffffffffffffffffffffffffff16146111fb576040517f08c379a00000000000000000000000000000000000000000000000000000000081526004016111f290612e6a565b60405180910390fd5b6006600082815260200190815260200160002060006101000a81549073ffffffffffffffffffffffffffffffffffffffff02191690556001600560008573ffffffffffffffffffffffffffffffffffffffff1673ffffffffffffffffffffffffffffffffffffffff168152602001908152602001600020600082825403925050819055506001600560008473ffffffffffffffffffffffffffffffffffffffff1673ffffffffffffffffffffffffffffffffffffffff16815260200190815260200160002060008282540192505081905550816004600083815260200190815260200160002060006101000a81548173ffffffffffffffffffffffffffffffffffffffff021916908373ffffffffffffffffffffffffffffffffffffffff160217905550808273ffffffffffffffffffffffffffffffffffffffff168473ffffffffffffffffffffffffffffffffffffffff167fddf252ad1be2c89b69c2b068fc378daa952ba7f163c4a11628f55a4df523b3ef60405160405180910390a4611387838383600161191a565b505050565b6000612710905090565b60006004600083815260200190815260200160002060009054906101000a900473ffffffffffffffffffffffffffffffffffffffff169050919050565b6113db610f3d565b73ffffffffffffffffffffffffffffffffffffffff166113f96109d5565b73ffffffffffffffffffffffffffffffffffffffff161461144f576040517f08c379a000000000000000000000000000000000000000000000000000000000815260040161144690612f68565b60405180910390fd5b565b6000600960009054906101000a900473ffffffffffffffffffffffffffffffffffffffff16905081600960006101000a81548173ffffffffffffffffffffffffffffffffffffffff021916908373ffffffffffffffffffffffffffffffffffffffff1602179055508173ffffffffffffffffffffffffffffffffffffffff168173ffffffffffffffffffffffffffffffffffffffff167f8be0079c531659141344cd1fd0a4f28419497f9722a3daafe3b4186f6b6457e060405160405180910390a35050565b8173ffffffffffffffffffffffffffffffffffffffff168373ffffffffffffffffffffffffffffffffffffffff1603611585576040517f08c379a000000000000000000000000000000000000000000000000000000000815260040161157c90612fd4565b60405180910390fd5b80600760008573ffffffffffffffffffffffffffffffffffffffff1673ffffffffffffffffffffffffffffffffffffffff16815260200190815260200160002060008473ffffffffffffffffffffffffffffffffffffffff1673ffffffffffffffffffffffffffffffffffffffff16815260200190815260200160002060006101000a81548160ff0219169083151502179055508173ffffffffffffffffffffffffffffffffffffffff168373ffffffffffffffffffffffffffffffffffffffff167f17307eab39ab6107e8899845ad3d59bd9653f200f220920489ca2b5937696c31836040516116769190611f02565b60405180910390a3505050565b61168e848484611093565b61169a84848484611920565b6116d9576040517f08c379a00000000000000000000000000000000000000000000000000000000081526004016116d090613066565b60405180910390fd5b50505050565b60606116ea82610c44565b600060086000848152602001908152602001600020805461170a9061258a565b80601f01602080910402602001604051908101604052809291908181526020018280546117369061258a565b80156117835780601f1061175857610100808354040283529160200191611783565b820191906000526020600020905b81548152906001019060200180831161176657829003601f168201915b505050505090506000611794611aa7565b905060008151036117a95781925050506117ec565b6000825111156117de5780826040516020016117c69291906130c2565b604051602081830303815290604052925050506117ec565b6117e784611abe565b925050505b919050565b60007f80ac58cd000000000000000000000000000000000000000000000000000000007bffffffffffffffffffffffffffffffffffffffffffffffffffffffff1916827bffffffffffffffffffffffffffffffffffffffffffffffffffffffff191614806118bc57507f5b5e139f000000000000000000000000000000000000000000000000000000007bffffffffffffffffffffffffffffffffffffffffffffffffffffffff1916827bffffffffffffffffffffffffffffffffffffffffffffffffffffffff1916145b806118cc57506118cb82611b26565b5b9050919050565b60008073ffffffffffffffffffffffffffffffffffffffff166118f583611396565b73ffffffffffffffffffffffffffffffffffffffff1614159050919050565b50505050565b50505050565b60006119418473ffffffffffffffffffffffffffffffffffffffff16611ba0565b15611a9a578373ffffffffffffffffffffffffffffffffffffffff1663150b7a0261196a610f3d565b8786866040518563ffffffff1660e01b815260040161198c949392919061313b565b6020604051808303816000875af19250505080156119c857506040513d601f19601f820116820180604052508101906119c5919061319c565b60015b611a4a573d80600081146119f8576040519150601f19603f3d011682016040523d82523d6000602084013e6119fd565b606091505b506000815103611a42576040517f08c379a0000000000000000000000000000000000000000000000000000000008152600401611a3990613066565b60405180910390fd5b805181602001fd5b63150b7a0260e01b7bffffffffffffffffffffffffffffffffffffffffffffffffffffffff1916817bffffffffffffffffffffffffffffffffffffffffffffffffffffffff191614915050611a9f565b600190505b949350505050565b606060405180602001604052806000815250905090565b6060611ac982610c44565b6000611ad3611aa7565b90506000815111611af35760405180602001604052806000815250611b1e565b80611afd84611bc3565b604051602001611b0e9291906130c2565b6040516020818303038152906040525b915050919050565b60007f2a55205a000000000000000000000000000000000000000000000000000000007bffffffffffffffffffffffffffffffffffffffffffffffffffffffff1916827bffffffffffffffffffffffffffffffffffffffffffffffffffffffff19161480611b995750611b9882611c91565b5b9050919050565b6000808273ffffffffffffffffffffffffffffffffffffffff163b119050919050565b606060006001611bd284611cfb565b01905060008167ffffffffffffffff811115611bf157611bf0612098565b5b6040519080825280601f01601f191660200182016040528015611c235781602001600182028036833780820191505090505b509050600082602001820190505b600115611c86578080600190039150507f3031323334353637383961626364656600000000000000000000000000000000600a86061a8153600a8581611c7a57611c79612820565b5b04945060008503611c31575b819350505050919050565b60007f01ffc9a7000000000000000000000000000000000000000000000000000000007bffffffffffffffffffffffffffffffffffffffffffffffffffffffff1916827bffffffffffffffffffffffffffffffffffffffffffffffffffffffff1916149050919050565b600080600090507a184f03e93ff9f4daa797ed6e38ed64bf6a1f0100000000000000008310611d59577a184f03e93ff9f4daa797ed6e38ed64bf6a1f0100000000000000008381611d4f57611d4e612820565b5b0492506040810190505b6d04ee2d6d415b85acef81000000008310611d96576d04ee2d6d415b85acef81000000008381611d8c57611d8b612820565b5b0492506020810190505b662386f26fc100008310611dc557662386f26fc100008381611dbb57611dba612820565b5b0492506010810190505b6305f5e1008310611dee576305f5e1008381611de457611de3612820565b5b0492506008810190505b6127108310611e13576127108381611e0957611e08612820565b5b0492506004810190505b60648310611e365760648381611e2c57611e2b612820565b5b0492506002810190505b600a8310611e45576001810190505b80915050919050565b6000604051905090565b600080fd5b600080fd5b60007fffffffff0000000000000000000000000000000000000000000000000000000082169050919050565b611e9781611e62565b8114611ea257600080fd5b50565b600081359050611eb481611e8e565b92915050565b600060208284031215611ed057611ecf611e58565b5b6000611ede84828501611ea5565b91505092915050565b60008115159050919050565b611efc81611ee7565b82525050565b6000602082019050611f176000830184611ef3565b92915050565b600081519050919050565b600082825260208201905092915050565b60005b83811015611f57578082015181840152602081019050611f3c565b60008484015250505050565b6000601f19601f8301169050919050565b6000611f7f82611f1d565b611f898185611f28565b9350611f99818560208601611f39565b611fa281611f63565b840191505092915050565b60006020820190508181036000830152611fc78184611f74565b905092915050565b6000819050919050565b611fe281611fcf565b8114611fed57600080fd5b50565b600081359050611fff81611fd9565b92915050565b60006020828403121561201b5761201a611e58565b5b600061202984828501611ff0565b91505092915050565b600073ffffffffffffffffffffffffffffffffffffffff82169050919050565b600061205d82612032565b9050919050565b61206d81612052565b82525050565b60006020820190506120886000830184612064565b92915050565b600080fd5b600080fd5b7f4e487b7100000000000000000000000000000000000000000000000000000000600052604160045260246000fd5b6120d082611f63565b810181811067ffffffffffffffff821117156120ef576120ee612098565b5b80604052505050565b6000612102611e4e565b905061210e82826120c7565b919050565b600067ffffffffffffffff82111561212e5761212d612098565b5b61213782611f63565b9050602081019050919050565b82818337600083830152505050565b600061216661216184612113565b6120f8565b90508281526020810184848401111561218257612181612093565b5b61218d848285612144565b509392505050565b600082601f8301126121aa576121a961208e565b5b81356121ba848260208601612153565b91505092915050565b6000602082840312156121d9576121d8611e58565b5b600082013567ffffffffffffffff8111156121f7576121f6611e5d565b5b61220384828501612195565b91505092915050565b61221581611fcf565b82525050565b6000602082019050612230600083018461220c565b92915050565b61223f81612052565b811461224a57600080fd5b50565b60008135905061225c81612236565b92915050565b6000806040838503121561227957612278611e58565b5b60006122878582860161224d565b925050602061229885828601611ff0565b9150509250929050565b6000806000606084860312156122bb576122ba611e58565b5b60006122c98682870161224d565b93505060206122da8682870161224d565b92505060406122eb86828701611ff0565b9150509250925092565b6000806040838503121561230c5761230b611e58565b5b600061231a85828601611ff0565b925050602061232b85828601611ff0565b9150509250929050565b600060408201905061234a6000830185612064565b612357602083018461220c565b9392505050565b60006020828403121561237457612373611e58565b5b60006123828482850161224d565b91505092915050565b61239481611ee7565b811461239f57600080fd5b50565b6000813590506123b18161238b565b92915050565b600080604083850312156123ce576123cd611e58565b5b60006123dc8582860161224d565b92505060206123ed858286016123a2565b9150509250929050565b600067ffffffffffffffff82111561241257612411612098565b5b61241b82611f63565b9050602081019050919050565b600061243b612436846123f7565b6120f8565b90508281526020810184848401111561245757612456612093565b5b612462848285612144565b509392505050565b600082601f83011261247f5761247e61208e565b5b813561248f848260208601612428565b91505092915050565b600080600080608085870312156124b2576124b1611e58565b5b60006124c08782880161224d565b94505060206124d18782880161224d565b93505060406124e287828801611ff0565b925050606085013567ffffffffffffffff81111561250357612502611e5d565b5b61250f8782880161246a565b91505092959194509250565b6000806040838503121561253257612531611e58565b5b60006125408582860161224d565b92505060206125518582860161224d565b9150509250929050565b7f4e487b7100000000000000000000000000000000000000000000000000000000600052602260045260246000fd5b600060028204905060018216806125a257607f821691505b6020821081036125b5576125b461255b565b5b50919050565b60006060820190506125d0600083018661220c565b6125dd6020830185612064565b81810360408301526125ef8184611f74565b9050949350505050565b7f4552433732313a20617070726f76616c20746f2063757272656e74206f776e6560008201527f7200000000000000000000000000000000000000000000000000000000000000602082015250565b6000612655602183611f28565b9150612660826125f9565b604082019050919050565b6000602082019050818103600083015261268481612648565b9050919050565b7f4552433732313a20617070726f76652063616c6c6572206973206e6f7420746f60008201527f6b656e206f776e6572206f7220617070726f76656420666f7220616c6c000000602082015250565b60006126e7603d83611f28565b91506126f28261268b565b604082019050919050565b60006020820190508181036000830152612716816126da565b9050919050565b7f4552433732313a2063616c6c6572206973206e6f7420746f6b656e206f776e6560008201527f72206f7220617070726f76656400000000000000000000000000000000000000602082015250565b6000612779602d83611f28565b91506127848261271d565b604082019050919050565b600060208201905081810360008301526127a88161276c565b9050919050565b7f4e487b7100000000000000000000000000000000000000000000000000000000600052601160045260246000fd5b60006127e982611fcf565b91506127f483611fcf565b925082820261280281611fcf565b91508282048414831517612819576128186127af565b5b5092915050565b7f4e487b7100000000000000000000000000000000000000000000000000000000600052601260045260246000fd5b600061285a82611fcf565b915061286583611fcf565b92508261287557612874612820565b5b828204905092915050565b7f4552433732313a20696e76616c696420746f6b656e2049440000000000000000600082015250565b60006128b6601883611f28565b91506128c182612880565b602082019050919050565b600060208201905081810360008301526128e5816128a9565b9050919050565b7f4552433732313a2061646472657373207a65726f206973206e6f74206120766160008201527f6c6964206f776e65720000000000000000000000000000000000000000000000602082015250565b6000612948602983611f28565b9150612953826128ec565b604082019050919050565b600060208201905081810360008301526129778161293b565b9050919050565b7f4f776e61626c653a206e6577206f776e657220697320746865207a65726f206160008201527f6464726573730000000000000000000000000000000000000000000000000000602082015250565b60006129da602683611f28565b91506129e58261297e565b604082019050919050565b60006020820190508181036000830152612a09816129cd565b9050919050565b7f4552433732313a206d696e7420746f20746865207a65726f2061646472657373600082015250565b6000612a46602083611f28565b9150612a5182612a10565b602082019050919050565b60006020820190508181036000830152612a7581612a39565b9050919050565b7f4552433732313a20746f6b656e20616c7265616479206d696e74656400000000600082015250565b6000612ab2601c83611f28565b9150612abd82612a7c565b602082019050919050565b60006020820190508181036000830152612ae181612aa5565b9050919050565b7f45524337323155524953746f726167653a2055524920736574206f66206e6f6e60008201527f6578697374656e7420746f6b656e000000000000000000000000000000000000602082015250565b6000612b44602e83611f28565b9150612b4f82612ae8565b604082019050919050565b60006020820190508181036000830152612b7381612b37565b9050919050565b60008190508160005260206000209050919050565b60006020601f8301049050919050565b600082821b905092915050565b600060088302612bdc7fffffffffffffffffffffffffffffffffffffffffffffffffffffffffffffffff82612b9f565b612be68683612b9f565b95508019841693508086168417925050509392505050565b6000819050919050565b6000612c23612c1e612c1984611fcf565b612bfe565b611fcf565b9050919050565b6000819050919050565b612c3d83612c08565b612c51612c4982612c2a565b848454612bac565b825550505050565b600090565b612c66612c59565b612c71818484612c34565b505050565b5b81811015612c9557612c8a600082612c5e565b600181019050612c77565b5050565b601f821115612cda57612cab81612b7a565b612cb484612b8f565b81016020851015612cc3578190505b612cd7612ccf85612b8f565b830182612c76565b50505b505050565b600082821c905092915050565b6000612cfd60001984600802612cdf565b1980831691505092915050565b6000612d168383612cec565b9150826002028217905092915050565b612d2f82611f1d565b67ffffffffffffffff811115612d4857612d47612098565b5b612d52825461258a565b612d5d828285612c99565b600060209050601f831160018114612d905760008415612d7e578287015190505b612d888582612d0a565b865550612df0565b601f198416612d9e86612b7a565b60005b82811015612dc657848901518255600182019150602085019450602081019050612da1565b86831015612de35784890151612ddf601f891682612cec565b8355505b6001600288020188555050505b505050505050565b7f4552433732313a207472616e736665722066726f6d20696e636f72726563742060008201527f6f776e6572000000000000000000000000000000000000000000000000000000602082015250565b6000612e54602583611f28565b9150612e5f82612df8565b604082019050919050565b60006020820190508181036000830152612e8381612e47565b9050919050565b7f4552433732313a207472616e7366657220746f20746865207a65726f2061646460008201527f7265737300000000000000000000000000000000000000000000000000000000602082015250565b6000612ee6602483611f28565b9150612ef182612e8a565b604082019050919050565b60006020820190508181036000830152612f1581612ed9565b9050919050565b7f4f776e61626c653a2063616c6c6572206973206e6f7420746865206f776e6572600082015250565b6000612f52602083611f28565b9150612f5d82612f1c565b602082019050919050565b60006020820190508181036000830152612f8181612f45565b9050919050565b7f4552433732313a20617070726f766520746f2063616c6c657200000000000000600082015250565b6000612fbe601983611f28565b9150612fc982612f88565b602082019050919050565b60006020820190508181036000830152612fed81612fb1565b9050919050565b7f4552433732313a207472616e7366657220746f206e6f6e20455243373231526560008201527f63656976657220696d706c656d656e7465720000000000000000000000000000602082015250565b6000613050603283611f28565b915061305b82612ff4565b604082019050919050565b6000602082019050818103600083015261307f81613043565b9050919050565b600081905092915050565b600061309c82611f1d565b6130a68185613086565b93506130b6818560208601611f39565b80840191505092915050565b60006130ce8285613091565b91506130da8284613091565b91508190509392505050565b600081519050919050565b600082825260208201905092915050565b600061310d826130e6565b61311781856130f1565b9350613127818560208601611f39565b61313081611f63565b840191505092915050565b60006080820190506131506000830187612064565b61315d6020830186612064565b61316a604083018561220c565b818103606083015261317c8184613102565b905095945050505050565b60008151905061319681611e8e565b92915050565b6000602082840312156131b2576131b1611e58565b5b60006131c084828501613187565b9150509291505056fea2646970667358221220b0800e89eba3d4962bf5f276833a4c40af700a812f8c904071e816fd3dbb1c4564736f6c63430008120033","opcodes":"PUSH1 0x80 PUSH1 0x40 MSTORE CALLVALUE DUP1 ISZERO PUSH3 0x11 JUMPI PUSH1 0x0 DUP1 REVERT JUMPDEST POP PUSH1 0x40 MLOAD DUP1 PUSH1 0x40 ADD PUSH1 0x40 MSTORE DUP1 PUSH1 0xE DUP2 MSTORE PUSH1 0x20 ADD PUSH32 0x5365706F6C69612056696B696E67000000000000000000000000000000000000 DUP2 MSTORE POP PUSH1 0x40 MLOAD DUP1 PUSH1 0x40 ADD PUSH1 0x40 MSTORE DUP1 PUSH1 0x3 DUP2 MSTORE PUSH1 0x20 ADD PUSH32 0x53564B0000000000000000000000000000000000000000000000000000000000 DUP2 MSTORE POP DUP2 PUSH1 0x2 SWAP1 DUP2 PUSH3 0x8F SWAP2 SWAP1 PUSH3 0x412 JUMP JUMPDEST POP DUP1 PUSH1 0x3 SWAP1 DUP2 PUSH3 0xA1 SWAP2 SWAP1 PUSH3 0x412 JUMP JUMPDEST POP POP POP PUSH3 0xC4 PUSH3 0xB8 PUSH3 0xCA PUSH1 0x20 SHL PUSH1 0x20 SHR JUMP JUMPDEST PUSH3 0xD2 PUSH1 0x20 SHL PUSH1 0x20 SHR JUMP JUMPDEST PUSH3 0x4F9 JUMP JUMPDEST PUSH1 0x0 CALLER SWAP1 POP SWAP1 JUMP JUMPDEST PUSH1 0x0 PUSH1 0x9 PUSH1 0x0 SWAP1 SLOAD SWAP1 PUSH2 0x100 EXP SWAP1 DIV PUSH20 0xFFFFFFFFFFFFFFFFFFFFFFFFFFFFFFFFFFFFFFFF AND SWAP1 POP DUP2 PUSH1 0x9 PUSH1 0x0 PUSH2 0x100 EXP DUP2 SLOAD DUP2 PUSH20 0xFFFFFFFFFFFFFFFFFFFFFFFFFFFFFFFFFFFFFFFF MUL NOT AND SWAP1 DUP4 PUSH20 0xFFFFFFFFFFFFFFFFFFFFFFFFFFFFFFFFFFFFFFFF AND MUL OR SWAP1 SSTORE POP DUP2 PUSH20 0xFFFFFFFFFFFFFFFFFFFFFFFFFFFFFFFFFFFFFFFF AND DUP2 PUSH20 0xFFFFFFFFFFFFFFFFFFFFFFFFFFFFFFFFFFFFFFFF AND PUSH32 0x8BE0079C531659141344CD1FD0A4F28419497F9722A3DAAFE3B4186F6B6457E0 PUSH1 0x40 MLOAD PUSH1 0x40 MLOAD DUP1 SWAP2 SUB SWAP1 LOG3 POP POP JUMP JUMPDEST PUSH1 0x0 DUP2 MLOAD SWAP1 POP SWAP2 SWAP1 POP JUMP JUMPDEST PUSH32 0x4E487B7100000000000000000000000000000000000000000000000000000000 PUSH1 0x0 MSTORE PUSH1 0x41 PUSH1 0x4 MSTORE PUSH1 0x24 PUSH1 0x0 REVERT JUMPDEST PUSH32 0x4E487B7100000000000000000000000000000000000000000000000000000000 PUSH1 0x0 MSTORE PUSH1 0x22 PUSH1 0x4 MSTORE PUSH1 0x24 PUSH1 0x0 REVERT JUMPDEST PUSH1 0x0 PUSH1 0x2 DUP3 DIV SWAP1 POP PUSH1 0x1 DUP3 AND DUP1 PUSH3 0x21A JUMPI PUSH1 0x7F DUP3 AND SWAP2 POP JUMPDEST PUSH1 0x20 DUP3 LT DUP2 SUB PUSH3 0x230 JUMPI PUSH3 0x22F PUSH3 0x1D2 JUMP JUMPDEST JUMPDEST POP SWAP2 SWAP1 POP JUMP JUMPDEST PUSH1 0x0 DUP2 SWAP1 POP DUP2 PUSH1 0x0 MSTORE PUSH1 0x20 PUSH1 0x0 KECCAK256 SWAP1 POP SWAP2 SWAP1 POP JUMP JUMPDEST PUSH1 0x0 PUSH1 0x20 PUSH1 0x1F DUP4 ADD DIV SWAP1 POP SWAP2 SWAP1 POP JUMP JUMPDEST PUSH1 0x0 DUP3 DUP3 SHL SWAP1 POP SWAP3 SWAP2 POP POP JUMP JUMPDEST PUSH1 0x0 PUSH1 0x8 DUP4 MUL PUSH3 0x29A PUSH32 0xFFFFFFFFFFFFFFFFFFFFFFFFFFFFFFFFFFFFFFFFFFFFFFFFFFFFFFFFFFFFFFFF DUP3 PUSH3 0x25B JUMP JUMPDEST PUSH3 0x2A6 DUP7 DUP4 PUSH3 0x25B JUMP JUMPDEST SWAP6 POP DUP1 NOT DUP5 AND SWAP4 POP DUP1 DUP7 AND DUP5 OR SWAP3 POP POP POP SWAP4 SWAP3 POP POP POP JUMP JUMPDEST PUSH1 0x0 DUP2 SWAP1 POP SWAP2 SWAP1 POP JUMP JUMPDEST PUSH1 0x0 DUP2 SWAP1 POP SWAP2 SWAP1 POP JUMP JUMPDEST PUSH1 0x0 PUSH3 0x2F3 PUSH3 0x2ED PUSH3 0x2E7 DUP5 PUSH3 0x2BE JUMP JUMPDEST PUSH3 0x2C8 JUMP JUMPDEST PUSH3 0x2BE JUMP JUMPDEST SWAP1 POP SWAP2 SWAP1 POP JUMP JUMPDEST PUSH1 0x0 DUP2 SWAP1 POP SWAP2 SWAP1 POP JUMP JUMPDEST PUSH3 0x30F DUP4 PUSH3 0x2D2 JUMP JUMPDEST PUSH3 0x327 PUSH3 0x31E DUP3 PUSH3 0x2FA JUMP JUMPDEST DUP5 DUP5 SLOAD PUSH3 0x268 JUMP JUMPDEST DUP3 SSTORE POP POP POP POP JUMP JUMPDEST PUSH1 0x0 SWAP1 JUMP JUMPDEST PUSH3 0x33E PUSH3 0x32F JUMP JUMPDEST PUSH3 0x34B DUP2 DUP5 DUP5 PUSH3 0x304 JUMP JUMPDEST POP POP POP JUMP JUMPDEST JUMPDEST DUP2 DUP2 LT ISZERO PUSH3 0x373 JUMPI PUSH3 0x367 PUSH1 0x0 DUP3 PUSH3 0x334 JUMP JUMPDEST PUSH1 0x1 DUP2 ADD SWAP1 POP PUSH3 0x351 JUMP JUMPDEST POP POP JUMP JUMPDEST PUSH1 0x1F DUP3 GT ISZERO PUSH3 0x3C2 JUMPI PUSH3 0x38C DUP2 PUSH3 0x236 JUMP JUMPDEST PUSH3 0x397 DUP5 PUSH3 0x24B JUMP JUMPDEST DUP2 ADD PUSH1 0x20 DUP6 LT ISZERO PUSH3 0x3A7 JUMPI DUP2 SWAP1 POP JUMPDEST PUSH3 0x3BF PUSH3 0x3B6 DUP6 PUSH3 0x24B JUMP JUMPDEST DUP4 ADD DUP3 PUSH3 0x350 JUMP JUMPDEST POP POP JUMPDEST POP POP POP JUMP JUMPDEST PUSH1 0x0 DUP3 DUP3 SHR SWAP1 POP SWAP3 SWAP2 POP POP JUMP JUMPDEST PUSH1 0x0 PUSH3 0x3E7 PUSH1 0x0 NOT DUP5 PUSH1 0x8 MUL PUSH3 0x3C7 JUMP JUMPDEST NOT DUP1 DUP4 AND SWAP2 POP POP SWAP3 SWAP2 POP POP JUMP JUMPDEST PUSH1 0x0 PUSH3 0x402 DUP4 DUP4 PUSH3 0x3D4 JUMP JUMPDEST SWAP2 POP DUP3 PUSH1 0x2 MUL DUP3 OR SWAP1 POP SWAP3 SWAP2 POP POP JUMP JUMPDEST PUSH3 0x41D DUP3 PUSH3 0x198 JUMP JUMPDEST PUSH8 0xFFFFFFFFFFFFFFFF DUP2 GT ISZERO PUSH3 0x439 JUMPI PUSH3 0x438 PUSH3 0x1A3 JUMP JUMPDEST JUMPDEST PUSH3 0x445 DUP3 SLOAD PUSH3 0x201 JUMP JUMPDEST PUSH3 0x452 DUP3 DUP3 DUP6 PUSH3 0x377 JUMP JUMPDEST PUSH1 0x0 PUSH1 0x20 SWAP1 POP PUSH1 0x1F DUP4 GT PUSH1 0x1 DUP2 EQ PUSH3 0x48A JUMPI PUSH1 0x0 DUP5 ISZERO PUSH3 0x475 JUMPI DUP3 DUP8 ADD MLOAD SWAP1 POP JUMPDEST PUSH3 0x481 DUP6 DUP3 PUSH3 0x3F4 JUMP JUMPDEST DUP7 SSTORE POP PUSH3 0x4F1 JUMP JUMPDEST PUSH1 0x1F NOT DUP5 AND PUSH3 0x49A DUP7 PUSH3 0x236 JUMP JUMPDEST PUSH1 0x0 JUMPDEST DUP3 DUP2 LT ISZERO PUSH3 0x4C4 JUMPI DUP5 DUP10 ADD MLOAD DUP3 SSTORE PUSH1 0x1 DUP3 ADD SWAP2 POP PUSH1 0x20 DUP6 ADD SWAP5 POP PUSH1 0x20 DUP2 ADD SWAP1 POP PUSH3 0x49D JUMP JUMPDEST DUP7 DUP4 LT ISZERO PUSH3 0x4E4 JUMPI DUP5 DUP10 ADD MLOAD PUSH3 0x4E0 PUSH1 0x1F DUP10 AND DUP3 PUSH3 0x3D4 JUMP JUMPDEST DUP4 SSTORE POP JUMPDEST PUSH1 0x1 PUSH1 0x2 DUP9 MUL ADD DUP9 SSTORE POP POP POP JUMPDEST POP POP POP POP POP POP JUMP JUMPDEST PUSH2 0x31FF DUP1 PUSH3 0x509 PUSH1 0x0 CODECOPY PUSH1 0x0 RETURN INVALID PUSH1 0x80 PUSH1 0x40 MSTORE CALLVALUE DUP1 ISZERO PUSH2 0x10 JUMPI PUSH1 0x0 DUP1 REVERT JUMPDEST POP PUSH1 0x4 CALLDATASIZE LT PUSH2 0x116 JUMPI PUSH1 0x0 CALLDATALOAD PUSH1 0xE0 SHR DUP1 PUSH4 0x70A08231 GT PUSH2 0xA2 JUMPI DUP1 PUSH4 0xA22CB465 GT PUSH2 0x71 JUMPI DUP1 PUSH4 0xA22CB465 EQ PUSH2 0x2F4 JUMPI DUP1 PUSH4 0xB88D4FDE EQ PUSH2 0x310 JUMPI DUP1 PUSH4 0xC87B56DD EQ PUSH2 0x32C JUMPI DUP1 PUSH4 0xE985E9C5 EQ PUSH2 0x35C JUMPI DUP1 PUSH4 0xF2FDE38B EQ PUSH2 0x38C JUMPI PUSH2 0x116 JUMP JUMPDEST DUP1 PUSH4 0x70A08231 EQ PUSH2 0x27E JUMPI DUP1 PUSH4 0x715018A6 EQ PUSH2 0x2AE JUMPI DUP1 PUSH4 0x8DA5CB5B EQ PUSH2 0x2B8 JUMPI DUP1 PUSH4 0x95D89B41 EQ PUSH2 0x2D6 JUMPI PUSH2 0x116 JUMP JUMPDEST DUP1 PUSH4 0x95EA7B3 GT PUSH2 0xE9 JUMPI DUP1 PUSH4 0x95EA7B3 EQ PUSH2 0x1C9 JUMPI DUP1 PUSH4 0x23B872DD EQ PUSH2 0x1E5 JUMPI DUP1 PUSH4 0x2A55205A EQ PUSH2 0x201 JUMPI DUP1 PUSH4 0x42842E0E EQ PUSH2 0x232 JUMPI DUP1 PUSH4 0x6352211E EQ PUSH2 0x24E JUMPI PUSH2 0x116 JUMP JUMPDEST DUP1 PUSH4 0x1FFC9A7 EQ PUSH2 0x11B JUMPI DUP1 PUSH4 0x6FDDE03 EQ PUSH2 0x14B JUMPI DUP1 PUSH4 0x81812FC EQ PUSH2 0x169 JUMPI DUP1 PUSH4 0x8478A93 EQ PUSH2 0x199 JUMPI JUMPDEST PUSH1 0x0 DUP1 REVERT JUMPDEST PUSH2 0x135 PUSH1 0x4 DUP1 CALLDATASIZE SUB DUP2 ADD SWAP1 PUSH2 0x130 SWAP2 SWAP1 PUSH2 0x1EBA JUMP JUMPDEST PUSH2 0x3A8 JUMP JUMPDEST PUSH1 0x40 MLOAD PUSH2 0x142 SWAP2 SWAP1 PUSH2 0x1F02 JUMP JUMPDEST PUSH1 0x40 MLOAD DUP1 SWAP2 SUB SWAP1 RETURN JUMPDEST PUSH2 0x153 PUSH2 0x3BA JUMP JUMPDEST PUSH1 0x40 MLOAD PUSH2 0x160 SWAP2 SWAP1 PUSH2 0x1FAD JUMP JUMPDEST PUSH1 0x40 MLOAD DUP1 SWAP2 SUB SWAP1 RETURN JUMPDEST PUSH2 0x183 PUSH1 0x4 DUP1 CALLDATASIZE SUB DUP2 ADD SWAP1 PUSH2 0x17E SWAP2 SWAP1 PUSH2 0x2005 JUMP JUMPDEST PUSH2 0x44C JUMP JUMPDEST PUSH1 0x40 MLOAD PUSH2 0x190 SWAP2 SWAP1 PUSH2 0x2073 JUMP JUMPDEST PUSH1 0x40 MLOAD DUP1 SWAP2 SUB SWAP1 RETURN JUMPDEST PUSH2 0x1B3 PUSH1 0x4 DUP1 CALLDATASIZE SUB DUP2 ADD SWAP1 PUSH2 0x1AE SWAP2 SWAP1 PUSH2 0x21C3 JUMP JUMPDEST PUSH2 0x492 JUMP JUMPDEST PUSH1 0x40 MLOAD PUSH2 0x1C0 SWAP2 SWAP1 PUSH2 0x221B JUMP JUMPDEST PUSH1 0x40 MLOAD DUP1 SWAP2 SUB SWAP1 RETURN JUMPDEST PUSH2 0x1E3 PUSH1 0x4 DUP1 CALLDATASIZE SUB DUP2 ADD SWAP1 PUSH2 0x1DE SWAP2 SWAP1 PUSH2 0x2262 JUMP JUMPDEST PUSH2 0x503 JUMP JUMPDEST STOP JUMPDEST PUSH2 0x1FF PUSH1 0x4 DUP1 CALLDATASIZE SUB DUP2 ADD SWAP1 PUSH2 0x1FA SWAP2 SWAP1 PUSH2 0x22A2 JUMP JUMPDEST PUSH2 0x61A JUMP JUMPDEST STOP JUMPDEST PUSH2 0x21B PUSH1 0x4 DUP1 CALLDATASIZE SUB DUP2 ADD SWAP1 PUSH2 0x216 SWAP2 SWAP1 PUSH2 0x22F5 JUMP JUMPDEST PUSH2 0x67A JUMP JUMPDEST PUSH1 0x40 MLOAD PUSH2 0x229 SWAP3 SWAP2 SWAP1 PUSH2 0x2335 JUMP JUMPDEST PUSH1 0x40 MLOAD DUP1 SWAP2 SUB SWAP1 RETURN JUMPDEST PUSH2 0x24C PUSH1 0x4 DUP1 CALLDATASIZE SUB DUP2 ADD SWAP1 PUSH2 0x247 SWAP2 SWAP1 PUSH2 0x22A2 JUMP JUMPDEST PUSH2 0x864 JUMP JUMPDEST STOP JUMPDEST PUSH2 0x268 PUSH1 0x4 DUP1 CALLDATASIZE SUB DUP2 ADD SWAP1 PUSH2 0x263 SWAP2 SWAP1 PUSH2 0x2005 JUMP JUMPDEST PUSH2 0x884 JUMP JUMPDEST PUSH1 0x40 MLOAD PUSH2 0x275 SWAP2 SWAP1 PUSH2 0x2073 JUMP JUMPDEST PUSH1 0x40 MLOAD DUP1 SWAP2 SUB SWAP1 RETURN JUMPDEST PUSH2 0x298 PUSH1 0x4 DUP1 CALLDATASIZE SUB DUP2 ADD SWAP1 PUSH2 0x293 SWAP2 SWAP1 PUSH2 0x235E JUMP JUMPDEST PUSH2 0x90A JUMP JUMPDEST PUSH1 0x40 MLOAD PUSH2 0x2A5 SWAP2 SWAP1 PUSH2 0x221B JUMP JUMPDEST PUSH1 0x40 MLOAD DUP1 SWAP2 SUB SWAP1 RETURN JUMPDEST PUSH2 0x2B6 PUSH2 0x9C1 JUMP JUMPDEST STOP JUMPDEST PUSH2 0x2C0 PUSH2 0x9D5 JUMP JUMPDEST PUSH1 0x40 MLOAD PUSH2 0x2CD SWAP2 SWAP1 PUSH2 0x2073 JUMP JUMPDEST PUSH1 0x40 MLOAD DUP1 SWAP2 SUB SWAP1 RETURN JUMPDEST PUSH2 0x2DE PUSH2 0x9FF JUMP JUMPDEST PUSH1 0x40 MLOAD PUSH2 0x2EB SWAP2 SWAP1 PUSH2 0x1FAD JUMP JUMPDEST PUSH1 0x40 MLOAD DUP1 SWAP2 SUB SWAP1 RETURN JUMPDEST PUSH2 0x30E PUSH1 0x4 DUP1 CALLDATASIZE SUB DUP2 ADD SWAP1 PUSH2 0x309 SWAP2 SWAP1 PUSH2 0x23B7 JUMP JUMPDEST PUSH2 0xA91 JUMP JUMPDEST STOP JUMPDEST PUSH2 0x32A PUSH1 0x4 DUP1 CALLDATASIZE SUB DUP2 ADD SWAP1 PUSH2 0x325 SWAP2 SWAP1 PUSH2 0x2498 JUMP JUMPDEST PUSH2 0xAA7 JUMP JUMPDEST STOP JUMPDEST PUSH2 0x346 PUSH1 0x4 DUP1 CALLDATASIZE SUB DUP2 ADD SWAP1 PUSH2 0x341 SWAP2 SWAP1 PUSH2 0x2005 JUMP JUMPDEST PUSH2 0xB09 JUMP JUMPDEST PUSH1 0x40 MLOAD PUSH2 0x353 SWAP2 SWAP1 PUSH2 0x1FAD JUMP JUMPDEST PUSH1 0x40 MLOAD DUP1 SWAP2 SUB SWAP1 RETURN JUMPDEST PUSH2 0x376 PUSH1 0x4 DUP1 CALLDATASIZE SUB DUP2 ADD SWAP1 PUSH2 0x371 SWAP2 SWAP1 PUSH2 0x251B JUMP JUMPDEST PUSH2 0xB1B JUMP JUMPDEST PUSH1 0x40 MLOAD PUSH2 0x383 SWAP2 SWAP1 PUSH2 0x1F02 JUMP JUMPDEST PUSH1 0x40 MLOAD DUP1 SWAP2 SUB SWAP1 RETURN JUMPDEST PUSH2 0x3A6 PUSH1 0x4 DUP1 CALLDATASIZE SUB DUP2 ADD SWAP1 PUSH2 0x3A1 SWAP2 SWAP1 PUSH2 0x235E JUMP JUMPDEST PUSH2 0xBAF JUMP JUMPDEST STOP JUMPDEST PUSH1 0x0 PUSH2 0x3B3 DUP3 PUSH2 0xC32 JUMP JUMPDEST SWAP1 POP SWAP2 SWAP1 POP JUMP JUMPDEST PUSH1 0x60 PUSH1 0x2 DUP1 SLOAD PUSH2 0x3C9 SWAP1 PUSH2 0x258A JUMP JUMPDEST DUP1 PUSH1 0x1F ADD PUSH1 0x20 DUP1 SWAP2 DIV MUL PUSH1 0x20 ADD PUSH1 0x40 MLOAD SWAP1 DUP2 ADD PUSH1 0x40 MSTORE DUP1 SWAP3 SWAP2 SWAP1 DUP2 DUP2 MSTORE PUSH1 0x20 ADD DUP3 DUP1 SLOAD PUSH2 0x3F5 SWAP1 PUSH2 0x258A JUMP JUMPDEST DUP1 ISZERO PUSH2 0x442 JUMPI DUP1 PUSH1 0x1F LT PUSH2 0x417 JUMPI PUSH2 0x100 DUP1 DUP4 SLOAD DIV MUL DUP4 MSTORE SWAP2 PUSH1 0x20 ADD SWAP2 PUSH2 0x442 JUMP JUMPDEST DUP3 ADD SWAP2 SWAP1 PUSH1 0x0 MSTORE PUSH1 0x20 PUSH1 0x0 KECCAK256 SWAP1 JUMPDEST DUP2 SLOAD DUP2 MSTORE SWAP1 PUSH1 0x1 ADD SWAP1 PUSH1 0x20 ADD DUP1 DUP4 GT PUSH2 0x425 JUMPI DUP3 SWAP1 SUB PUSH1 0x1F AND DUP3 ADD SWAP2 JUMPDEST POP POP POP POP POP SWAP1 POP SWAP1 JUMP JUMPDEST PUSH1 0x0 PUSH2 0x457 DUP3 PUSH2 0xC44 JUMP JUMPDEST PUSH1 0x6 PUSH1 0x0 DUP4 DUP2 MSTORE PUSH1 0x20 ADD SWAP1 DUP2 MSTORE PUSH1 0x20 ADD PUSH1 0x0 KECCAK256 PUSH1 0x0 SWAP1 SLOAD SWAP1 PUSH2 0x100 EXP SWAP1 DIV PUSH20 0xFFFFFFFFFFFFFFFFFFFFFFFFFFFFFFFFFFFFFFFF AND SWAP1 POP SWAP2 SWAP1 POP JUMP JUMPDEST PUSH1 0x0 DUP1 PUSH2 0x49F PUSH1 0xA PUSH2 0xC8F JUMP JUMPDEST SWAP1 POP PUSH2 0x4AB CALLER DUP3 PUSH2 0xC9D JUMP JUMPDEST PUSH2 0x4B5 DUP2 DUP5 PUSH2 0xEBA JUMP JUMPDEST PUSH32 0xE67E402CA6BEEAACD513FAE4BBF646BF7D901D594BB12DEEF43930A6D4A510DA DUP2 CALLER DUP6 PUSH1 0x40 MLOAD PUSH2 0x4E8 SWAP4 SWAP3 SWAP2 SWAP1 PUSH2 0x25BB JUMP JUMPDEST PUSH1 0x40 MLOAD DUP1 SWAP2 SUB SWAP1 LOG1 PUSH2 0x4FA PUSH1 0xA PUSH2 0xF27 JUMP JUMPDEST DUP1 SWAP2 POP POP SWAP2 SWAP1 POP JUMP JUMPDEST PUSH1 0x0 PUSH2 0x50E DUP3 PUSH2 0x884 JUMP JUMPDEST SWAP1 POP DUP1 PUSH20 0xFFFFFFFFFFFFFFFFFFFFFFFFFFFFFFFFFFFFFFFF AND DUP4 PUSH20 0xFFFFFFFFFFFFFFFFFFFFFFFFFFFFFFFFFFFFFFFF AND SUB PUSH2 0x57E JUMPI PUSH1 0x40 MLOAD PUSH32 0x8C379A000000000000000000000000000000000000000000000000000000000 DUP2 MSTORE PUSH1 0x4 ADD PUSH2 0x575 SWAP1 PUSH2 0x266B JUMP JUMPDEST PUSH1 0x40 MLOAD DUP1 SWAP2 SUB SWAP1 REVERT JUMPDEST DUP1 PUSH20 0xFFFFFFFFFFFFFFFFFFFFFFFFFFFFFFFFFFFFFFFF AND PUSH2 0x59D PUSH2 0xF3D JUMP JUMPDEST PUSH20 0xFFFFFFFFFFFFFFFFFFFFFFFFFFFFFFFFFFFFFFFF AND EQ DUP1 PUSH2 0x5CC JUMPI POP PUSH2 0x5CB DUP2 PUSH2 0x5C6 PUSH2 0xF3D JUMP JUMPDEST PUSH2 0xB1B JUMP JUMPDEST JUMPDEST PUSH2 0x60B JUMPI PUSH1 0x40 MLOAD PUSH32 0x8C379A000000000000000000000000000000000000000000000000000000000 DUP2 MSTORE PUSH1 0x4 ADD PUSH2 0x602 SWAP1 PUSH2 0x26FD JUMP JUMPDEST PUSH1 0x40 MLOAD DUP1 SWAP2 SUB SWAP1 REVERT JUMPDEST PUSH2 0x615 DUP4 DUP4 PUSH2 0xF45 JUMP JUMPDEST POP POP POP JUMP JUMPDEST PUSH2 0x62B PUSH2 0x625 PUSH2 0xF3D JUMP JUMPDEST DUP3 PUSH2 0xFFE JUMP JUMPDEST PUSH2 0x66A JUMPI PUSH1 0x40 MLOAD PUSH32 0x8C379A000000000000000000000000000000000000000000000000000000000 DUP2 MSTORE PUSH1 0x4 ADD PUSH2 0x661 SWAP1 PUSH2 0x278F JUMP JUMPDEST PUSH1 0x40 MLOAD DUP1 SWAP2 SUB SWAP1 REVERT JUMPDEST PUSH2 0x675 DUP4 DUP4 DUP4 PUSH2 0x1093 JUMP JUMPDEST POP POP POP JUMP JUMPDEST PUSH1 0x0 DUP1 PUSH1 0x0 PUSH1 0x1 PUSH1 0x0 DUP7 DUP2 MSTORE PUSH1 0x20 ADD SWAP1 DUP2 MSTORE PUSH1 0x20 ADD PUSH1 0x0 KECCAK256 PUSH1 0x40 MLOAD DUP1 PUSH1 0x40 ADD PUSH1 0x40 MSTORE SWAP1 DUP2 PUSH1 0x0 DUP3 ADD PUSH1 0x0 SWAP1 SLOAD SWAP1 PUSH2 0x100 EXP SWAP1 DIV PUSH20 0xFFFFFFFFFFFFFFFFFFFFFFFFFFFFFFFFFFFFFFFF AND PUSH20 0xFFFFFFFFFFFFFFFFFFFFFFFFFFFFFFFFFFFFFFFF AND PUSH20 0xFFFFFFFFFFFFFFFFFFFFFFFFFFFFFFFFFFFFFFFF AND DUP2 MSTORE PUSH1 0x20 ADD PUSH1 0x0 DUP3 ADD PUSH1 0x14 SWAP1 SLOAD SWAP1 PUSH2 0x100 EXP SWAP1 DIV PUSH12 0xFFFFFFFFFFFFFFFFFFFFFFFF AND PUSH12 0xFFFFFFFFFFFFFFFFFFFFFFFF AND PUSH12 0xFFFFFFFFFFFFFFFFFFFFFFFF AND DUP2 MSTORE POP POP SWAP1 POP PUSH1 0x0 PUSH20 0xFFFFFFFFFFFFFFFFFFFFFFFFFFFFFFFFFFFFFFFF AND DUP2 PUSH1 0x0 ADD MLOAD PUSH20 0xFFFFFFFFFFFFFFFFFFFFFFFFFFFFFFFFFFFFFFFF AND SUB PUSH2 0x80F JUMPI PUSH1 0x0 PUSH1 0x40 MLOAD DUP1 PUSH1 0x40 ADD PUSH1 0x40 MSTORE SWAP1 DUP2 PUSH1 0x0 DUP3 ADD PUSH1 0x0 SWAP1 SLOAD SWAP1 PUSH2 0x100 EXP SWAP1 DIV PUSH20 0xFFFFFFFFFFFFFFFFFFFFFFFFFFFFFFFFFFFFFFFF AND PUSH20 0xFFFFFFFFFFFFFFFFFFFFFFFFFFFFFFFFFFFFFFFF AND PUSH20 0xFFFFFFFFFFFFFFFFFFFFFFFFFFFFFFFFFFFFFFFF AND DUP2 MSTORE PUSH1 0x20 ADD PUSH1 0x0 DUP3 ADD PUSH1 0x14 SWAP1 SLOAD SWAP1 PUSH2 0x100 EXP SWAP1 DIV PUSH12 0xFFFFFFFFFFFFFFFFFFFFFFFF AND PUSH12 0xFFFFFFFFFFFFFFFFFFFFFFFF AND PUSH12 0xFFFFFFFFFFFFFFFFFFFFFFFF AND DUP2 MSTORE POP POP SWAP1 POP JUMPDEST PUSH1 0x0 PUSH2 0x819 PUSH2 0x138C JUMP JUMPDEST PUSH12 0xFFFFFFFFFFFFFFFFFFFFFFFF AND DUP3 PUSH1 0x20 ADD MLOAD PUSH12 0xFFFFFFFFFFFFFFFFFFFFFFFF AND DUP7 PUSH2 0x845 SWAP2 SWAP1 PUSH2 0x27DE JUMP JUMPDEST PUSH2 0x84F SWAP2 SWAP1 PUSH2 0x284F JUMP JUMPDEST SWAP1 POP DUP2 PUSH1 0x0 ADD MLOAD DUP2 SWAP4 POP SWAP4 POP POP POP SWAP3 POP SWAP3 SWAP1 POP JUMP JUMPDEST PUSH2 0x87F DUP4 DUP4 DUP4 PUSH1 0x40 MLOAD DUP1 PUSH1 0x20 ADD PUSH1 0x40 MSTORE DUP1 PUSH1 0x0 DUP2 MSTORE POP PUSH2 0xAA7 JUMP JUMPDEST POP POP POP JUMP JUMPDEST PUSH1 0x0 DUP1 PUSH2 0x890 DUP4 PUSH2 0x1396 JUMP JUMPDEST SWAP1 POP PUSH1 0x0 PUSH20 0xFFFFFFFFFFFFFFFFFFFFFFFFFFFFFFFFFFFFFFFF AND DUP2 PUSH20 0xFFFFFFFFFFFFFFFFFFFFFFFFFFFFFFFFFFFFFFFF AND SUB PUSH2 0x901 JUMPI PUSH1 0x40 MLOAD PUSH32 0x8C379A000000000000000000000000000000000000000000000000000000000 DUP2 MSTORE PUSH1 0x4 ADD PUSH2 0x8F8 SWAP1 PUSH2 0x28CC JUMP JUMPDEST PUSH1 0x40 MLOAD DUP1 SWAP2 SUB SWAP1 REVERT JUMPDEST DUP1 SWAP2 POP POP SWAP2 SWAP1 POP JUMP JUMPDEST PUSH1 0x0 DUP1 PUSH20 0xFFFFFFFFFFFFFFFFFFFFFFFFFFFFFFFFFFFFFFFF AND DUP3 PUSH20 0xFFFFFFFFFFFFFFFFFFFFFFFFFFFFFFFFFFFFFFFF AND SUB PUSH2 0x97A JUMPI PUSH1 0x40 MLOAD PUSH32 0x8C379A000000000000000000000000000000000000000000000000000000000 DUP2 MSTORE PUSH1 0x4 ADD PUSH2 0x971 SWAP1 PUSH2 0x295E JUMP JUMPDEST PUSH1 0x40 MLOAD DUP1 SWAP2 SUB SWAP1 REVERT JUMPDEST PUSH1 0x5 PUSH1 0x0 DUP4 PUSH20 0xFFFFFFFFFFFFFFFFFFFFFFFFFFFFFFFFFFFFFFFF AND PUSH20 0xFFFFFFFFFFFFFFFFFFFFFFFFFFFFFFFFFFFFFFFF AND DUP2 MSTORE PUSH1 0x20 ADD SWAP1 DUP2 MSTORE PUSH1 0x20 ADD PUSH1 0x0 KECCAK256 SLOAD SWAP1 POP SWAP2 SWAP1 POP JUMP JUMPDEST PUSH2 0x9C9 PUSH2 0x13D3 JUMP JUMPDEST PUSH2 0x9D3 PUSH1 0x0 PUSH2 0x1451 JUMP JUMPDEST JUMP JUMPDEST PUSH1 0x0 PUSH1 0x9 PUSH1 0x0 SWAP1 SLOAD SWAP1 PUSH2 0x100 EXP SWAP1 DIV PUSH20 0xFFFFFFFFFFFFFFFFFFFFFFFFFFFFFFFFFFFFFFFF AND SWAP1 POP SWAP1 JUMP JUMPDEST PUSH1 0x60 PUSH1 0x3 DUP1 SLOAD PUSH2 0xA0E SWAP1 PUSH2 0x258A JUMP JUMPDEST DUP1 PUSH1 0x1F ADD PUSH1 0x20 DUP1 SWAP2 DIV MUL PUSH1 0x20 ADD PUSH1 0x40 MLOAD SWAP1 DUP2 ADD PUSH1 0x40 MSTORE DUP1 SWAP3 SWAP2 SWAP1 DUP2 DUP2 MSTORE PUSH1 0x20 ADD DUP3 DUP1 SLOAD PUSH2 0xA3A SWAP1 PUSH2 0x258A JUMP JUMPDEST DUP1 ISZERO PUSH2 0xA87 JUMPI DUP1 PUSH1 0x1F LT PUSH2 0xA5C JUMPI PUSH2 0x100 DUP1 DUP4 SLOAD DIV MUL DUP4 MSTORE SWAP2 PUSH1 0x20 ADD SWAP2 PUSH2 0xA87 JUMP JUMPDEST DUP3 ADD SWAP2 SWAP1 PUSH1 0x0 MSTORE PUSH1 0x20 PUSH1 0x0 KECCAK256 SWAP1 JUMPDEST DUP2 SLOAD DUP2 MSTORE SWAP1 PUSH1 0x1 ADD SWAP1 PUSH1 0x20 ADD DUP1 DUP4 GT PUSH2 0xA6A JUMPI DUP3 SWAP1 SUB PUSH1 0x1F AND DUP3 ADD SWAP2 JUMPDEST POP POP POP POP POP SWAP1 POP SWAP1 JUMP JUMPDEST PUSH2 0xAA3 PUSH2 0xA9C PUSH2 0xF3D JUMP JUMPDEST DUP4 DUP4 PUSH2 0x1517 JUMP JUMPDEST POP POP JUMP JUMPDEST PUSH2 0xAB8 PUSH2 0xAB2 PUSH2 0xF3D JUMP JUMPDEST DUP4 PUSH2 0xFFE JUMP JUMPDEST PUSH2 0xAF7 JUMPI PUSH1 0x40 MLOAD PUSH32 0x8C379A000000000000000000000000000000000000000000000000000000000 DUP2 MSTORE PUSH1 0x4 ADD PUSH2 0xAEE SWAP1 PUSH2 0x278F JUMP JUMPDEST PUSH1 0x40 MLOAD DUP1 SWAP2 SUB SWAP1 REVERT JUMPDEST PUSH2 0xB03 DUP5 DUP5 DUP5 DUP5 PUSH2 0x1683 JUMP JUMPDEST POP POP POP POP JUMP JUMPDEST PUSH1 0x60 PUSH2 0xB14 DUP3 PUSH2 0x16DF JUMP JUMPDEST SWAP1 POP SWAP2 SWAP1 POP JUMP JUMPDEST PUSH1 0x0 PUSH1 0x7 PUSH1 0x0 DUP5 PUSH20 0xFFFFFFFFFFFFFFFFFFFFFFFFFFFFFFFFFFFFFFFF AND PUSH20 0xFFFFFFFFFFFFFFFFFFFFFFFFFFFFFFFFFFFFFFFF AND DUP2 MSTORE PUSH1 0x20 ADD SWAP1 DUP2 MSTORE PUSH1 0x20 ADD PUSH1 0x0 KECCAK256 PUSH1 0x0 DUP4 PUSH20 0xFFFFFFFFFFFFFFFFFFFFFFFFFFFFFFFFFFFFFFFF AND PUSH20 0xFFFFFFFFFFFFFFFFFFFFFFFFFFFFFFFFFFFFFFFF AND DUP2 MSTORE PUSH1 0x20 ADD SWAP1 DUP2 MSTORE PUSH1 0x20 ADD PUSH1 0x0 KECCAK256 PUSH1 0x0 SWAP1 SLOAD SWAP1 PUSH2 0x100 EXP SWAP1 DIV PUSH1 0xFF AND SWAP1 POP SWAP3 SWAP2 POP POP JUMP JUMPDEST PUSH2 0xBB7 PUSH2 0x13D3 JUMP JUMPDEST PUSH1 0x0 PUSH20 0xFFFFFFFFFFFFFFFFFFFFFFFFFFFFFFFFFFFFFFFF AND DUP2 PUSH20 0xFFFFFFFFFFFFFFFFFFFFFFFFFFFFFFFFFFFFFFFF AND SUB PUSH2 0xC26 JUMPI PUSH1 0x40 MLOAD PUSH32 0x8C379A000000000000000000000000000000000000000000000000000000000 DUP2 MSTORE PUSH1 0x4 ADD PUSH2 0xC1D SWAP1 PUSH2 0x29F0 JUMP JUMPDEST PUSH1 0x40 MLOAD DUP1 SWAP2 SUB SWAP1 REVERT JUMPDEST PUSH2 0xC2F DUP2 PUSH2 0x1451 JUMP JUMPDEST POP JUMP JUMPDEST PUSH1 0x0 PUSH2 0xC3D DUP3 PUSH2 0x17F1 JUMP JUMPDEST SWAP1 POP SWAP2 SWAP1 POP JUMP JUMPDEST PUSH2 0xC4D DUP2 PUSH2 0x18D3 JUMP JUMPDEST PUSH2 0xC8C JUMPI PUSH1 0x40 MLOAD PUSH32 0x8C379A000000000000000000000000000000000000000000000000000000000 DUP2 MSTORE PUSH1 0x4 ADD PUSH2 0xC83 SWAP1 PUSH2 0x28CC JUMP JUMPDEST PUSH1 0x40 MLOAD DUP1 SWAP2 SUB SWAP1 REVERT JUMPDEST POP JUMP JUMPDEST PUSH1 0x0 DUP2 PUSH1 0x0 ADD SLOAD SWAP1 POP SWAP2 SWAP1 POP JUMP JUMPDEST PUSH1 0x0 PUSH20 0xFFFFFFFFFFFFFFFFFFFFFFFFFFFFFFFFFFFFFFFF AND DUP3 PUSH20 0xFFFFFFFFFFFFFFFFFFFFFFFFFFFFFFFFFFFFFFFF AND SUB PUSH2 0xD0C JUMPI PUSH1 0x40 MLOAD PUSH32 0x8C379A000000000000000000000000000000000000000000000000000000000 DUP2 MSTORE PUSH1 0x4 ADD PUSH2 0xD03 SWAP1 PUSH2 0x2A5C JUMP JUMPDEST PUSH1 0x40 MLOAD DUP1 SWAP2 SUB SWAP1 REVERT JUMPDEST PUSH2 0xD15 DUP2 PUSH2 0x18D3 JUMP JUMPDEST ISZERO PUSH2 0xD55 JUMPI PUSH1 0x40 MLOAD PUSH32 0x8C379A000000000000000000000000000000000000000000000000000000000 DUP2 MSTORE PUSH1 0x4 ADD PUSH2 0xD4C SWAP1 PUSH2 0x2AC8 JUMP JUMPDEST PUSH1 0x40 MLOAD DUP1 SWAP2 SUB SWAP1 REVERT JUMPDEST PUSH2 0xD63 PUSH1 0x0 DUP4 DUP4 PUSH1 0x1 PUSH2 0x1914 JUMP JUMPDEST PUSH2 0xD6C DUP2 PUSH2 0x18D3 JUMP JUMPDEST ISZERO PUSH2 0xDAC JUMPI PUSH1 0x40 MLOAD PUSH32 0x8C379A000000000000000000000000000000000000000000000000000000000 DUP2 MSTORE PUSH1 0x4 ADD PUSH2 0xDA3 SWAP1 PUSH2 0x2AC8 JUMP JUMPDEST PUSH1 0x40 MLOAD DUP1 SWAP2 SUB SWAP1 REVERT JUMPDEST PUSH1 0x1 PUSH1 0x5 PUSH1 0x0 DUP5 PUSH20 0xFFFFFFFFFFFFFFFFFFFFFFFFFFFFFFFFFFFFFFFF AND PUSH20 0xFFFFFFFFFFFFFFFFFFFFFFFFFFFFFFFFFFFFFFFF AND DUP2 MSTORE PUSH1 0x20 ADD SWAP1 DUP2 MSTORE PUSH1 0x20 ADD PUSH1 0x0 KECCAK256 PUSH1 0x0 DUP3 DUP3 SLOAD ADD SWAP3 POP POP DUP2 SWAP1 SSTORE POP DUP2 PUSH1 0x4 PUSH1 0x0 DUP4 DUP2 MSTORE PUSH1 0x20 ADD SWAP1 DUP2 MSTORE PUSH1 0x20 ADD PUSH1 0x0 KECCAK256 PUSH1 0x0 PUSH2 0x100 EXP DUP2 SLOAD DUP2 PUSH20 0xFFFFFFFFFFFFFFFFFFFFFFFFFFFFFFFFFFFFFFFF MUL NOT AND SWAP1 DUP4 PUSH20 0xFFFFFFFFFFFFFFFFFFFFFFFFFFFFFFFFFFFFFFFF AND MUL OR SWAP1 SSTORE POP DUP1 DUP3 PUSH20 0xFFFFFFFFFFFFFFFFFFFFFFFFFFFFFFFFFFFFFFFF AND PUSH1 0x0 PUSH20 0xFFFFFFFFFFFFFFFFFFFFFFFFFFFFFFFFFFFFFFFF AND PUSH32 0xDDF252AD1BE2C89B69C2B068FC378DAA952BA7F163C4A11628F55A4DF523B3EF PUSH1 0x40 MLOAD PUSH1 0x40 MLOAD DUP1 SWAP2 SUB SWAP1 LOG4 PUSH2 0xEB6 PUSH1 0x0 DUP4 DUP4 PUSH1 0x1 PUSH2 0x191A JUMP JUMPDEST POP POP JUMP JUMPDEST PUSH2 0xEC3 DUP3 PUSH2 0x18D3 JUMP JUMPDEST PUSH2 0xF02 JUMPI PUSH1 0x40 MLOAD PUSH32 0x8C379A000000000000000000000000000000000000000000000000000000000 DUP2 MSTORE PUSH1 0x4 ADD PUSH2 0xEF9 SWAP1 PUSH2 0x2B5A JUMP JUMPDEST PUSH1 0x40 MLOAD DUP1 SWAP2 SUB SWAP1 REVERT JUMPDEST DUP1 PUSH1 0x8 PUSH1 0x0 DUP5 DUP2 MSTORE PUSH1 0x20 ADD SWAP1 DUP2 MSTORE PUSH1 0x20 ADD PUSH1 0x0 KECCAK256 SWAP1 DUP2 PUSH2 0xF22 SWAP2 SWAP1 PUSH2 0x2D26 JUMP JUMPDEST POP POP POP JUMP JUMPDEST PUSH1 0x1 DUP2 PUSH1 0x0 ADD PUSH1 0x0 DUP3 DUP3 SLOAD ADD SWAP3 POP POP DUP2 SWAP1 SSTORE POP POP JUMP JUMPDEST PUSH1 0x0 CALLER SWAP1 POP SWAP1 JUMP JUMPDEST DUP2 PUSH1 0x6 PUSH1 0x0 DUP4 DUP2 MSTORE PUSH1 0x20 ADD SWAP1 DUP2 MSTORE PUSH1 0x20 ADD PUSH1 0x0 KECCAK256 PUSH1 0x0 PUSH2 0x100 EXP DUP2 SLOAD DUP2 PUSH20 0xFFFFFFFFFFFFFFFFFFFFFFFFFFFFFFFFFFFFFFFF MUL NOT AND SWAP1 DUP4 PUSH20 0xFFFFFFFFFFFFFFFFFFFFFFFFFFFFFFFFFFFFFFFF AND MUL OR SWAP1 SSTORE POP DUP1 DUP3 PUSH20 0xFFFFFFFFFFFFFFFFFFFFFFFFFFFFFFFFFFFFFFFF AND PUSH2 0xFB8 DUP4 PUSH2 0x884 JUMP JUMPDEST PUSH20 0xFFFFFFFFFFFFFFFFFFFFFFFFFFFFFFFFFFFFFFFF AND PUSH32 0x8C5BE1E5EBEC7D5BD14F71427D1E84F3DD0314C0F7B2291E5B200AC8C7C3B925 PUSH1 0x40 MLOAD PUSH1 0x40 MLOAD DUP1 SWAP2 SUB SWAP1 LOG4 POP POP JUMP JUMPDEST PUSH1 0x0 DUP1 PUSH2 0x100A DUP4 PUSH2 0x884 JUMP JUMPDEST SWAP1 POP DUP1 PUSH20 0xFFFFFFFFFFFFFFFFFFFFFFFFFFFFFFFFFFFFFFFF AND DUP5 PUSH20 0xFFFFFFFFFFFFFFFFFFFFFFFFFFFFFFFFFFFFFFFF AND EQ DUP1 PUSH2 0x104C JUMPI POP PUSH2 0x104B DUP2 DUP6 PUSH2 0xB1B JUMP JUMPDEST JUMPDEST DUP1 PUSH2 0x108A JUMPI POP DUP4 PUSH20 0xFFFFFFFFFFFFFFFFFFFFFFFFFFFFFFFFFFFFFFFF AND PUSH2 0x1072 DUP5 PUSH2 0x44C JUMP JUMPDEST PUSH20 0xFFFFFFFFFFFFFFFFFFFFFFFFFFFFFFFFFFFFFFFF AND EQ JUMPDEST SWAP2 POP POP SWAP3 SWAP2 POP POP JUMP JUMPDEST DUP3 PUSH20 0xFFFFFFFFFFFFFFFFFFFFFFFFFFFFFFFFFFFFFFFF AND PUSH2 0x10B3 DUP3 PUSH2 0x884 JUMP JUMPDEST PUSH20 0xFFFFFFFFFFFFFFFFFFFFFFFFFFFFFFFFFFFFFFFF AND EQ PUSH2 0x1109 JUMPI PUSH1 0x40 MLOAD PUSH32 0x8C379A000000000000000000000000000000000000000000000000000000000 DUP2 MSTORE PUSH1 0x4 ADD PUSH2 0x1100 SWAP1 PUSH2 0x2E6A JUMP JUMPDEST PUSH1 0x40 MLOAD DUP1 SWAP2 SUB SWAP1 REVERT JUMPDEST PUSH1 0x0 PUSH20 0xFFFFFFFFFFFFFFFFFFFFFFFFFFFFFFFFFFFFFFFF AND DUP3 PUSH20 0xFFFFFFFFFFFFFFFFFFFFFFFFFFFFFFFFFFFFFFFF AND SUB PUSH2 0x1178 JUMPI PUSH1 0x40 MLOAD PUSH32 0x8C379A000000000000000000000000000000000000000000000000000000000 DUP2 MSTORE PUSH1 0x4 ADD PUSH2 0x116F SWAP1 PUSH2 0x2EFC JUMP JUMPDEST PUSH1 0x40 MLOAD DUP1 SWAP2 SUB SWAP1 REVERT JUMPDEST PUSH2 0x1185 DUP4 DUP4 DUP4 PUSH1 0x1 PUSH2 0x1914 JUMP JUMPDEST DUP3 PUSH20 0xFFFFFFFFFFFFFFFFFFFFFFFFFFFFFFFFFFFFFFFF AND PUSH2 0x11A5 DUP3 PUSH2 0x884 JUMP JUMPDEST PUSH20 0xFFFFFFFFFFFFFFFFFFFFFFFFFFFFFFFFFFFFFFFF AND EQ PUSH2 0x11FB JUMPI PUSH1 0x40 MLOAD PUSH32 0x8C379A000000000000000000000000000000000000000000000000000000000 DUP2 MSTORE PUSH1 0x4 ADD PUSH2 0x11F2 SWAP1 PUSH2 0x2E6A JUMP JUMPDEST PUSH1 0x40 MLOAD DUP1 SWAP2 SUB SWAP1 REVERT JUMPDEST PUSH1 0x6 PUSH1 0x0 DUP3 DUP2 MSTORE PUSH1 0x20 ADD SWAP1 DUP2 MSTORE PUSH1 0x20 ADD PUSH1 0x0 KECCAK256 PUSH1 0x0 PUSH2 0x100 EXP DUP2 SLOAD SWAP1 PUSH20 0xFFFFFFFFFFFFFFFFFFFFFFFFFFFFFFFFFFFFFFFF MUL NOT AND SWAP1 SSTORE PUSH1 0x1 PUSH1 0x5 PUSH1 0x0 DUP6 PUSH20 0xFFFFFFFFFFFFFFFFFFFFFFFFFFFFFFFFFFFFFFFF AND PUSH20 0xFFFFFFFFFFFFFFFFFFFFFFFFFFFFFFFFFFFFFFFF AND DUP2 MSTORE PUSH1 0x20 ADD SWAP1 DUP2 MSTORE PUSH1 0x20 ADD PUSH1 0x0 KECCAK256 PUSH1 0x0 DUP3 DUP3 SLOAD SUB SWAP3 POP POP DUP2 SWAP1 SSTORE POP PUSH1 0x1 PUSH1 0x5 PUSH1 0x0 DUP5 PUSH20 0xFFFFFFFFFFFFFFFFFFFFFFFFFFFFFFFFFFFFFFFF AND PUSH20 0xFFFFFFFFFFFFFFFFFFFFFFFFFFFFFFFFFFFFFFFF AND DUP2 MSTORE PUSH1 0x20 ADD SWAP1 DUP2 MSTORE PUSH1 0x20 ADD PUSH1 0x0 KECCAK256 PUSH1 0x0 DUP3 DUP3 SLOAD ADD SWAP3 POP POP DUP2 SWAP1 SSTORE POP DUP2 PUSH1 0x4 PUSH1 0x0 DUP4 DUP2 MSTORE PUSH1 0x20 ADD SWAP1 DUP2 MSTORE PUSH1 0x20 ADD PUSH1 0x0 KECCAK256 PUSH1 0x0 PUSH2 0x100 EXP DUP2 SLOAD DUP2 PUSH20 0xFFFFFFFFFFFFFFFFFFFFFFFFFFFFFFFFFFFFFFFF MUL NOT AND SWAP1 DUP4 PUSH20 0xFFFFFFFFFFFFFFFFFFFFFFFFFFFFFFFFFFFFFFFF AND MUL OR SWAP1 SSTORE POP DUP1 DUP3 PUSH20 0xFFFFFFFFFFFFFFFFFFFFFFFFFFFFFFFFFFFFFFFF AND DUP5 PUSH20 0xFFFFFFFFFFFFFFFFFFFFFFFFFFFFFFFFFFFFFFFF AND PUSH32 0xDDF252AD1BE2C89B69C2B068FC378DAA952BA7F163C4A11628F55A4DF523B3EF PUSH1 0x40 MLOAD PUSH1 0x40 MLOAD DUP1 SWAP2 SUB SWAP1 LOG4 PUSH2 0x1387 DUP4 DUP4 DUP4 PUSH1 0x1 PUSH2 0x191A JUMP JUMPDEST POP POP POP JUMP JUMPDEST PUSH1 0x0 PUSH2 0x2710 SWAP1 POP SWAP1 JUMP JUMPDEST PUSH1 0x0 PUSH1 0x4 PUSH1 0x0 DUP4 DUP2 MSTORE PUSH1 0x20 ADD SWAP1 DUP2 MSTORE PUSH1 0x20 ADD PUSH1 0x0 KECCAK256 PUSH1 0x0 SWAP1 SLOAD SWAP1 PUSH2 0x100 EXP SWAP1 DIV PUSH20 0xFFFFFFFFFFFFFFFFFFFFFFFFFFFFFFFFFFFFFFFF AND SWAP1 POP SWAP2 SWAP1 POP JUMP JUMPDEST PUSH2 0x13DB PUSH2 0xF3D JUMP JUMPDEST PUSH20 0xFFFFFFFFFFFFFFFFFFFFFFFFFFFFFFFFFFFFFFFF AND PUSH2 0x13F9 PUSH2 0x9D5 JUMP JUMPDEST PUSH20 0xFFFFFFFFFFFFFFFFFFFFFFFFFFFFFFFFFFFFFFFF AND EQ PUSH2 0x144F JUMPI PUSH1 0x40 MLOAD PUSH32 0x8C379A000000000000000000000000000000000000000000000000000000000 DUP2 MSTORE PUSH1 0x4 ADD PUSH2 0x1446 SWAP1 PUSH2 0x2F68 JUMP JUMPDEST PUSH1 0x40 MLOAD DUP1 SWAP2 SUB SWAP1 REVERT JUMPDEST JUMP JUMPDEST PUSH1 0x0 PUSH1 0x9 PUSH1 0x0 SWAP1 SLOAD SWAP1 PUSH2 0x100 EXP SWAP1 DIV PUSH20 0xFFFFFFFFFFFFFFFFFFFFFFFFFFFFFFFFFFFFFFFF AND SWAP1 POP DUP2 PUSH1 0x9 PUSH1 0x0 PUSH2 0x100 EXP DUP2 SLOAD DUP2 PUSH20 0xFFFFFFFFFFFFFFFFFFFFFFFFFFFFFFFFFFFFFFFF MUL NOT AND SWAP1 DUP4 PUSH20 0xFFFFFFFFFFFFFFFFFFFFFFFFFFFFFFFFFFFFFFFF AND MUL OR SWAP1 SSTORE POP DUP2 PUSH20 0xFFFFFFFFFFFFFFFFFFFFFFFFFFFFFFFFFFFFFFFF AND DUP2 PUSH20 0xFFFFFFFFFFFFFFFFFFFFFFFFFFFFFFFFFFFFFFFF AND PUSH32 0x8BE0079C531659141344CD1FD0A4F28419497F9722A3DAAFE3B4186F6B6457E0 PUSH1 0x40 MLOAD PUSH1 0x40 MLOAD DUP1 SWAP2 SUB SWAP1 LOG3 POP POP JUMP JUMPDEST DUP2 PUSH20 0xFFFFFFFFFFFFFFFFFFFFFFFFFFFFFFFFFFFFFFFF AND DUP4 PUSH20 0xFFFFFFFFFFFFFFFFFFFFFFFFFFFFFFFFFFFFFFFF AND SUB PUSH2 0x1585 JUMPI PUSH1 0x40 MLOAD PUSH32 0x8C379A000000000000000000000000000000000000000000000000000000000 DUP2 MSTORE PUSH1 0x4 ADD PUSH2 0x157C SWAP1 PUSH2 0x2FD4 JUMP JUMPDEST PUSH1 0x40 MLOAD DUP1 SWAP2 SUB SWAP1 REVERT JUMPDEST DUP1 PUSH1 0x7 PUSH1 0x0 DUP6 PUSH20 0xFFFFFFFFFFFFFFFFFFFFFFFFFFFFFFFFFFFFFFFF AND PUSH20 0xFFFFFFFFFFFFFFFFFFFFFFFFFFFFFFFFFFFFFFFF AND DUP2 MSTORE PUSH1 0x20 ADD SWAP1 DUP2 MSTORE PUSH1 0x20 ADD PUSH1 0x0 KECCAK256 PUSH1 0x0 DUP5 PUSH20 0xFFFFFFFFFFFFFFFFFFFFFFFFFFFFFFFFFFFFFFFF AND PUSH20 0xFFFFFFFFFFFFFFFFFFFFFFFFFFFFFFFFFFFFFFFF AND DUP2 MSTORE PUSH1 0x20 ADD SWAP1 DUP2 MSTORE PUSH1 0x20 ADD PUSH1 0x0 KECCAK256 PUSH1 0x0 PUSH2 0x100 EXP DUP2 SLOAD DUP2 PUSH1 0xFF MUL NOT AND SWAP1 DUP4 ISZERO ISZERO MUL OR SWAP1 SSTORE POP DUP2 PUSH20 0xFFFFFFFFFFFFFFFFFFFFFFFFFFFFFFFFFFFFFFFF AND DUP4 PUSH20 0xFFFFFFFFFFFFFFFFFFFFFFFFFFFFFFFFFFFFFFFF AND PUSH32 0x17307EAB39AB6107E8899845AD3D59BD9653F200F220920489CA2B5937696C31 DUP4 PUSH1 0x40 MLOAD PUSH2 0x1676 SWAP2 SWAP1 PUSH2 0x1F02 JUMP JUMPDEST PUSH1 0x40 MLOAD DUP1 SWAP2 SUB SWAP1 LOG3 POP POP POP JUMP JUMPDEST PUSH2 0x168E DUP5 DUP5 DUP5 PUSH2 0x1093 JUMP JUMPDEST PUSH2 0x169A DUP5 DUP5 DUP5 DUP5 PUSH2 0x1920 JUMP JUMPDEST PUSH2 0x16D9 JUMPI PUSH1 0x40 MLOAD PUSH32 0x8C379A000000000000000000000000000000000000000000000000000000000 DUP2 MSTORE PUSH1 0x4 ADD PUSH2 0x16D0 SWAP1 PUSH2 0x3066 JUMP JUMPDEST PUSH1 0x40 MLOAD DUP1 SWAP2 SUB SWAP1 REVERT JUMPDEST POP POP POP POP JUMP JUMPDEST PUSH1 0x60 PUSH2 0x16EA DUP3 PUSH2 0xC44 JUMP JUMPDEST PUSH1 0x0 PUSH1 0x8 PUSH1 0x0 DUP5 DUP2 MSTORE PUSH1 0x20 ADD SWAP1 DUP2 MSTORE PUSH1 0x20 ADD PUSH1 0x0 KECCAK256 DUP1 SLOAD PUSH2 0x170A SWAP1 PUSH2 0x258A JUMP JUMPDEST DUP1 PUSH1 0x1F ADD PUSH1 0x20 DUP1 SWAP2 DIV MUL PUSH1 0x20 ADD PUSH1 0x40 MLOAD SWAP1 DUP2 ADD PUSH1 0x40 MSTORE DUP1 SWAP3 SWAP2 SWAP1 DUP2 DUP2 MSTORE PUSH1 0x20 ADD DUP3 DUP1 SLOAD PUSH2 0x1736 SWAP1 PUSH2 0x258A JUMP JUMPDEST DUP1 ISZERO PUSH2 0x1783 JUMPI DUP1 PUSH1 0x1F LT PUSH2 0x1758 JUMPI PUSH2 0x100 DUP1 DUP4 SLOAD DIV MUL DUP4 MSTORE SWAP2 PUSH1 0x20 ADD SWAP2 PUSH2 0x1783 JUMP JUMPDEST DUP3 ADD SWAP2 SWAP1 PUSH1 0x0 MSTORE PUSH1 0x20 PUSH1 0x0 KECCAK256 SWAP1 JUMPDEST DUP2 SLOAD DUP2 MSTORE SWAP1 PUSH1 0x1 ADD SWAP1 PUSH1 0x20 ADD DUP1 DUP4 GT PUSH2 0x1766 JUMPI DUP3 SWAP1 SUB PUSH1 0x1F AND DUP3 ADD SWAP2 JUMPDEST POP POP POP POP POP SWAP1 POP PUSH1 0x0 PUSH2 0x1794 PUSH2 0x1AA7 JUMP JUMPDEST SWAP1 POP PUSH1 0x0 DUP2 MLOAD SUB PUSH2 0x17A9 JUMPI DUP2 SWAP3 POP POP POP PUSH2 0x17EC JUMP JUMPDEST PUSH1 0x0 DUP3 MLOAD GT ISZERO PUSH2 0x17DE JUMPI DUP1 DUP3 PUSH1 0x40 MLOAD PUSH1 0x20 ADD PUSH2 0x17C6 SWAP3 SWAP2 SWAP1 PUSH2 0x30C2 JUMP JUMPDEST PUSH1 0x40 MLOAD PUSH1 0x20 DUP2 DUP4 SUB SUB DUP2 MSTORE SWAP1 PUSH1 0x40 MSTORE SWAP3 POP POP POP PUSH2 0x17EC JUMP JUMPDEST PUSH2 0x17E7 DUP5 PUSH2 0x1ABE JUMP JUMPDEST SWAP3 POP POP POP JUMPDEST SWAP2 SWAP1 POP JUMP JUMPDEST PUSH1 0x0 PUSH32 0x80AC58CD00000000000000000000000000000000000000000000000000000000 PUSH28 0xFFFFFFFFFFFFFFFFFFFFFFFFFFFFFFFFFFFFFFFFFFFFFFFFFFFFFFFF NOT AND DUP3 PUSH28 0xFFFFFFFFFFFFFFFFFFFFFFFFFFFFFFFFFFFFFFFFFFFFFFFFFFFFFFFF NOT AND EQ DUP1 PUSH2 0x18BC JUMPI POP PUSH32 0x5B5E139F00000000000000000000000000000000000000000000000000000000 PUSH28 0xFFFFFFFFFFFFFFFFFFFFFFFFFFFFFFFFFFFFFFFFFFFFFFFFFFFFFFFF NOT AND DUP3 PUSH28 0xFFFFFFFFFFFFFFFFFFFFFFFFFFFFFFFFFFFFFFFFFFFFFFFFFFFFFFFF NOT AND EQ JUMPDEST DUP1 PUSH2 0x18CC JUMPI POP PUSH2 0x18CB DUP3 PUSH2 0x1B26 JUMP JUMPDEST JUMPDEST SWAP1 POP SWAP2 SWAP1 POP JUMP JUMPDEST PUSH1 0x0 DUP1 PUSH20 0xFFFFFFFFFFFFFFFFFFFFFFFFFFFFFFFFFFFFFFFF AND PUSH2 0x18F5 DUP4 PUSH2 0x1396 JUMP JUMPDEST PUSH20 0xFFFFFFFFFFFFFFFFFFFFFFFFFFFFFFFFFFFFFFFF AND EQ ISZERO SWAP1 POP SWAP2 SWAP1 POP JUMP JUMPDEST POP POP POP POP JUMP JUMPDEST POP POP POP POP JUMP JUMPDEST PUSH1 0x0 PUSH2 0x1941 DUP5 PUSH20 0xFFFFFFFFFFFFFFFFFFFFFFFFFFFFFFFFFFFFFFFF AND PUSH2 0x1BA0 JUMP JUMPDEST ISZERO PUSH2 0x1A9A JUMPI DUP4 PUSH20 0xFFFFFFFFFFFFFFFFFFFFFFFFFFFFFFFFFFFFFFFF AND PUSH4 0x150B7A02 PUSH2 0x196A PUSH2 0xF3D JUMP JUMPDEST DUP8 DUP7 DUP7 PUSH1 0x40 MLOAD DUP6 PUSH4 0xFFFFFFFF AND PUSH1 0xE0 SHL DUP2 MSTORE PUSH1 0x4 ADD PUSH2 0x198C SWAP5 SWAP4 SWAP3 SWAP2 SWAP1 PUSH2 0x313B JUMP JUMPDEST PUSH1 0x20 PUSH1 0x40 MLOAD DUP1 DUP4 SUB DUP2 PUSH1 0x0 DUP8 GAS CALL SWAP3 POP POP POP DUP1 ISZERO PUSH2 0x19C8 JUMPI POP PUSH1 0x40 MLOAD RETURNDATASIZE PUSH1 0x1F NOT PUSH1 0x1F DUP3 ADD AND DUP3 ADD DUP1 PUSH1 0x40 MSTORE POP DUP2 ADD SWAP1 PUSH2 0x19C5 SWAP2 SWAP1 PUSH2 0x319C JUMP JUMPDEST PUSH1 0x1 JUMPDEST PUSH2 0x1A4A JUMPI RETURNDATASIZE DUP1 PUSH1 0x0 DUP2 EQ PUSH2 0x19F8 JUMPI PUSH1 0x40 MLOAD SWAP2 POP PUSH1 0x1F NOT PUSH1 0x3F RETURNDATASIZE ADD AND DUP3 ADD PUSH1 0x40 MSTORE RETURNDATASIZE DUP3 MSTORE RETURNDATASIZE PUSH1 0x0 PUSH1 0x20 DUP5 ADD RETURNDATACOPY PUSH2 0x19FD JUMP JUMPDEST PUSH1 0x60 SWAP2 POP JUMPDEST POP PUSH1 0x0 DUP2 MLOAD SUB PUSH2 0x1A42 JUMPI PUSH1 0x40 MLOAD PUSH32 0x8C379A000000000000000000000000000000000000000000000000000000000 DUP2 MSTORE PUSH1 0x4 ADD PUSH2 0x1A39 SWAP1 PUSH2 0x3066 JUMP JUMPDEST PUSH1 0x40 MLOAD DUP1 SWAP2 SUB SWAP1 REVERT JUMPDEST DUP1 MLOAD DUP2 PUSH1 0x20 ADD REVERT JUMPDEST PUSH4 0x150B7A02 PUSH1 0xE0 SHL PUSH28 0xFFFFFFFFFFFFFFFFFFFFFFFFFFFFFFFFFFFFFFFFFFFFFFFFFFFFFFFF NOT AND DUP2 PUSH28 0xFFFFFFFFFFFFFFFFFFFFFFFFFFFFFFFFFFFFFFFFFFFFFFFFFFFFFFFF NOT AND EQ SWAP2 POP POP PUSH2 0x1A9F JUMP JUMPDEST PUSH1 0x1 SWAP1 POP JUMPDEST SWAP5 SWAP4 POP POP POP POP JUMP JUMPDEST PUSH1 0x60 PUSH1 0x40 MLOAD DUP1 PUSH1 0x20 ADD PUSH1 0x40 MSTORE DUP1 PUSH1 0x0 DUP2 MSTORE POP SWAP1 POP SWAP1 JUMP JUMPDEST PUSH1 0x60 PUSH2 0x1AC9 DUP3 PUSH2 0xC44 JUMP JUMPDEST PUSH1 0x0 PUSH2 0x1AD3 PUSH2 0x1AA7 JUMP JUMPDEST SWAP1 POP PUSH1 0x0 DUP2 MLOAD GT PUSH2 0x1AF3 JUMPI PUSH1 0x40 MLOAD DUP1 PUSH1 0x20 ADD PUSH1 0x40 MSTORE DUP1 PUSH1 0x0 DUP2 MSTORE POP PUSH2 0x1B1E JUMP JUMPDEST DUP1 PUSH2 0x1AFD DUP5 PUSH2 0x1BC3 JUMP JUMPDEST PUSH1 0x40 MLOAD PUSH1 0x20 ADD PUSH2 0x1B0E SWAP3 SWAP2 SWAP1 PUSH2 0x30C2 JUMP JUMPDEST PUSH1 0x40 MLOAD PUSH1 0x20 DUP2 DUP4 SUB SUB DUP2 MSTORE SWAP1 PUSH1 0x40 MSTORE JUMPDEST SWAP2 POP POP SWAP2 SWAP1 POP JUMP JUMPDEST PUSH1 0x0 PUSH32 0x2A55205A00000000000000000000000000000000000000000000000000000000 PUSH28 0xFFFFFFFFFFFFFFFFFFFFFFFFFFFFFFFFFFFFFFFFFFFFFFFFFFFFFFFF NOT AND DUP3 PUSH28 0xFFFFFFFFFFFFFFFFFFFFFFFFFFFFFFFFFFFFFFFFFFFFFFFFFFFFFFFF NOT AND EQ DUP1 PUSH2 0x1B99 JUMPI POP PUSH2 0x1B98 DUP3 PUSH2 0x1C91 JUMP JUMPDEST JUMPDEST SWAP1 POP SWAP2 SWAP1 POP JUMP JUMPDEST PUSH1 0x0 DUP1 DUP3 PUSH20 0xFFFFFFFFFFFFFFFFFFFFFFFFFFFFFFFFFFFFFFFF AND EXTCODESIZE GT SWAP1 POP SWAP2 SWAP1 POP JUMP JUMPDEST PUSH1 0x60 PUSH1 0x0 PUSH1 0x1 PUSH2 0x1BD2 DUP5 PUSH2 0x1CFB JUMP JUMPDEST ADD SWAP1 POP PUSH1 0x0 DUP2 PUSH8 0xFFFFFFFFFFFFFFFF DUP2 GT ISZERO PUSH2 0x1BF1 JUMPI PUSH2 0x1BF0 PUSH2 0x2098 JUMP JUMPDEST JUMPDEST PUSH1 0x40 MLOAD SWAP1 DUP1 DUP3 MSTORE DUP1 PUSH1 0x1F ADD PUSH1 0x1F NOT AND PUSH1 0x20 ADD DUP3 ADD PUSH1 0x40 MSTORE DUP1 ISZERO PUSH2 0x1C23 JUMPI DUP2 PUSH1 0x20 ADD PUSH1 0x1 DUP3 MUL DUP1 CALLDATASIZE DUP4 CALLDATACOPY DUP1 DUP3 ADD SWAP2 POP POP SWAP1 POP JUMPDEST POP SWAP1 POP PUSH1 0x0 DUP3 PUSH1 0x20 ADD DUP3 ADD SWAP1 POP JUMPDEST PUSH1 0x1 ISZERO PUSH2 0x1C86 JUMPI DUP1 DUP1 PUSH1 0x1 SWAP1 SUB SWAP2 POP POP PUSH32 0x3031323334353637383961626364656600000000000000000000000000000000 PUSH1 0xA DUP7 MOD BYTE DUP2 MSTORE8 PUSH1 0xA DUP6 DUP2 PUSH2 0x1C7A JUMPI PUSH2 0x1C79 PUSH2 0x2820 JUMP JUMPDEST JUMPDEST DIV SWAP5 POP PUSH1 0x0 DUP6 SUB PUSH2 0x1C31 JUMPI JUMPDEST DUP2 SWAP4 POP POP POP POP SWAP2 SWAP1 POP JUMP JUMPDEST PUSH1 0x0 PUSH32 0x1FFC9A700000000000000000000000000000000000000000000000000000000 PUSH28 0xFFFFFFFFFFFFFFFFFFFFFFFFFFFFFFFFFFFFFFFFFFFFFFFFFFFFFFFF NOT AND DUP3 PUSH28 0xFFFFFFFFFFFFFFFFFFFFFFFFFFFFFFFFFFFFFFFFFFFFFFFFFFFFFFFF NOT AND EQ SWAP1 POP SWAP2 SWAP1 POP JUMP JUMPDEST PUSH1 0x0 DUP1 PUSH1 0x0 SWAP1 POP PUSH27 0x184F03E93FF9F4DAA797ED6E38ED64BF6A1F010000000000000000 DUP4 LT PUSH2 0x1D59 JUMPI PUSH27 0x184F03E93FF9F4DAA797ED6E38ED64BF6A1F010000000000000000 DUP4 DUP2 PUSH2 0x1D4F JUMPI PUSH2 0x1D4E PUSH2 0x2820 JUMP JUMPDEST JUMPDEST DIV SWAP3 POP PUSH1 0x40 DUP2 ADD SWAP1 POP JUMPDEST PUSH14 0x4EE2D6D415B85ACEF8100000000 DUP4 LT PUSH2 0x1D96 JUMPI PUSH14 0x4EE2D6D415B85ACEF8100000000 DUP4 DUP2 PUSH2 0x1D8C JUMPI PUSH2 0x1D8B PUSH2 0x2820 JUMP JUMPDEST JUMPDEST DIV SWAP3 POP PUSH1 0x20 DUP2 ADD SWAP1 POP JUMPDEST PUSH7 0x2386F26FC10000 DUP4 LT PUSH2 0x1DC5 JUMPI PUSH7 0x2386F26FC10000 DUP4 DUP2 PUSH2 0x1DBB JUMPI PUSH2 0x1DBA PUSH2 0x2820 JUMP JUMPDEST JUMPDEST DIV SWAP3 POP PUSH1 0x10 DUP2 ADD SWAP1 POP JUMPDEST PUSH4 0x5F5E100 DUP4 LT PUSH2 0x1DEE JUMPI PUSH4 0x5F5E100 DUP4 DUP2 PUSH2 0x1DE4 JUMPI PUSH2 0x1DE3 PUSH2 0x2820 JUMP JUMPDEST JUMPDEST DIV SWAP3 POP PUSH1 0x8 DUP2 ADD SWAP1 POP JUMPDEST PUSH2 0x2710 DUP4 LT PUSH2 0x1E13 JUMPI PUSH2 0x2710 DUP4 DUP2 PUSH2 0x1E09 JUMPI PUSH2 0x1E08 PUSH2 0x2820 JUMP JUMPDEST JUMPDEST DIV SWAP3 POP PUSH1 0x4 DUP2 ADD SWAP1 POP JUMPDEST PUSH1 0x64 DUP4 LT PUSH2 0x1E36 JUMPI PUSH1 0x64 DUP4 DUP2 PUSH2 0x1E2C JUMPI PUSH2 0x1E2B PUSH2 0x2820 JUMP JUMPDEST JUMPDEST DIV SWAP3 POP PUSH1 0x2 DUP2 ADD SWAP1 POP JUMPDEST PUSH1 0xA DUP4 LT PUSH2 0x1E45 JUMPI PUSH1 0x1 DUP2 ADD SWAP1 POP JUMPDEST DUP1 SWAP2 POP POP SWAP2 SWAP1 POP JUMP JUMPDEST PUSH1 0x0 PUSH1 0x40 MLOAD SWAP1 POP SWAP1 JUMP JUMPDEST PUSH1 0x0 DUP1 REVERT JUMPDEST PUSH1 0x0 DUP1 REVERT JUMPDEST PUSH1 0x0 PUSH32 0xFFFFFFFF00000000000000000000000000000000000000000000000000000000 DUP3 AND SWAP1 POP SWAP2 SWAP1 POP JUMP JUMPDEST PUSH2 0x1E97 DUP2 PUSH2 0x1E62 JUMP JUMPDEST DUP2 EQ PUSH2 0x1EA2 JUMPI PUSH1 0x0 DUP1 REVERT JUMPDEST POP JUMP JUMPDEST PUSH1 0x0 DUP2 CALLDATALOAD SWAP1 POP PUSH2 0x1EB4 DUP2 PUSH2 0x1E8E JUMP JUMPDEST SWAP3 SWAP2 POP POP JUMP JUMPDEST PUSH1 0x0 PUSH1 0x20 DUP3 DUP5 SUB SLT ISZERO PUSH2 0x1ED0 JUMPI PUSH2 0x1ECF PUSH2 0x1E58 JUMP JUMPDEST JUMPDEST PUSH1 0x0 PUSH2 0x1EDE DUP5 DUP3 DUP6 ADD PUSH2 0x1EA5 JUMP JUMPDEST SWAP2 POP POP SWAP3 SWAP2 POP POP JUMP JUMPDEST PUSH1 0x0 DUP2 ISZERO ISZERO SWAP1 POP SWAP2 SWAP1 POP JUMP JUMPDEST PUSH2 0x1EFC DUP2 PUSH2 0x1EE7 JUMP JUMPDEST DUP3 MSTORE POP POP JUMP JUMPDEST PUSH1 0x0 PUSH1 0x20 DUP3 ADD SWAP1 POP PUSH2 0x1F17 PUSH1 0x0 DUP4 ADD DUP5 PUSH2 0x1EF3 JUMP JUMPDEST SWAP3 SWAP2 POP POP JUMP JUMPDEST PUSH1 0x0 DUP2 MLOAD SWAP1 POP SWAP2 SWAP1 POP JUMP JUMPDEST PUSH1 0x0 DUP3 DUP3 MSTORE PUSH1 0x20 DUP3 ADD SWAP1 POP SWAP3 SWAP2 POP POP JUMP JUMPDEST PUSH1 0x0 JUMPDEST DUP4 DUP2 LT ISZERO PUSH2 0x1F57 JUMPI DUP1 DUP3 ADD MLOAD DUP2 DUP5 ADD MSTORE PUSH1 0x20 DUP2 ADD SWAP1 POP PUSH2 0x1F3C JUMP JUMPDEST PUSH1 0x0 DUP5 DUP5 ADD MSTORE POP POP POP POP JUMP JUMPDEST PUSH1 0x0 PUSH1 0x1F NOT PUSH1 0x1F DUP4 ADD AND SWAP1 POP SWAP2 SWAP1 POP JUMP JUMPDEST PUSH1 0x0 PUSH2 0x1F7F DUP3 PUSH2 0x1F1D JUMP JUMPDEST PUSH2 0x1F89 DUP2 DUP6 PUSH2 0x1F28 JUMP JUMPDEST SWAP4 POP PUSH2 0x1F99 DUP2 DUP6 PUSH1 0x20 DUP7 ADD PUSH2 0x1F39 JUMP JUMPDEST PUSH2 0x1FA2 DUP2 PUSH2 0x1F63 JUMP JUMPDEST DUP5 ADD SWAP2 POP POP SWAP3 SWAP2 POP POP JUMP JUMPDEST PUSH1 0x0 PUSH1 0x20 DUP3 ADD SWAP1 POP DUP2 DUP2 SUB PUSH1 0x0 DUP4 ADD MSTORE PUSH2 0x1FC7 DUP2 DUP5 PUSH2 0x1F74 JUMP JUMPDEST SWAP1 POP SWAP3 SWAP2 POP POP JUMP JUMPDEST PUSH1 0x0 DUP2 SWAP1 POP SWAP2 SWAP1 POP JUMP JUMPDEST PUSH2 0x1FE2 DUP2 PUSH2 0x1FCF JUMP JUMPDEST DUP2 EQ PUSH2 0x1FED JUMPI PUSH1 0x0 DUP1 REVERT JUMPDEST POP JUMP JUMPDEST PUSH1 0x0 DUP2 CALLDATALOAD SWAP1 POP PUSH2 0x1FFF DUP2 PUSH2 0x1FD9 JUMP JUMPDEST SWAP3 SWAP2 POP POP JUMP JUMPDEST PUSH1 0x0 PUSH1 0x20 DUP3 DUP5 SUB SLT ISZERO PUSH2 0x201B JUMPI PUSH2 0x201A PUSH2 0x1E58 JUMP JUMPDEST JUMPDEST PUSH1 0x0 PUSH2 0x2029 DUP5 DUP3 DUP6 ADD PUSH2 0x1FF0 JUMP JUMPDEST SWAP2 POP POP SWAP3 SWAP2 POP POP JUMP JUMPDEST PUSH1 0x0 PUSH20 0xFFFFFFFFFFFFFFFFFFFFFFFFFFFFFFFFFFFFFFFF DUP3 AND SWAP1 POP SWAP2 SWAP1 POP JUMP JUMPDEST PUSH1 0x0 PUSH2 0x205D DUP3 PUSH2 0x2032 JUMP JUMPDEST SWAP1 POP SWAP2 SWAP1 POP JUMP JUMPDEST PUSH2 0x206D DUP2 PUSH2 0x2052 JUMP JUMPDEST DUP3 MSTORE POP POP JUMP JUMPDEST PUSH1 0x0 PUSH1 0x20 DUP3 ADD SWAP1 POP PUSH2 0x2088 PUSH1 0x0 DUP4 ADD DUP5 PUSH2 0x2064 JUMP JUMPDEST SWAP3 SWAP2 POP POP JUMP JUMPDEST PUSH1 0x0 DUP1 REVERT JUMPDEST PUSH1 0x0 DUP1 REVERT JUMPDEST PUSH32 0x4E487B7100000000000000000000000000000000000000000000000000000000 PUSH1 0x0 MSTORE PUSH1 0x41 PUSH1 0x4 MSTORE PUSH1 0x24 PUSH1 0x0 REVERT JUMPDEST PUSH2 0x20D0 DUP3 PUSH2 0x1F63 JUMP JUMPDEST DUP2 ADD DUP2 DUP2 LT PUSH8 0xFFFFFFFFFFFFFFFF DUP3 GT OR ISZERO PUSH2 0x20EF JUMPI PUSH2 0x20EE PUSH2 0x2098 JUMP JUMPDEST JUMPDEST DUP1 PUSH1 0x40 MSTORE POP POP POP JUMP JUMPDEST PUSH1 0x0 PUSH2 0x2102 PUSH2 0x1E4E JUMP JUMPDEST SWAP1 POP PUSH2 0x210E DUP3 DUP3 PUSH2 0x20C7 JUMP JUMPDEST SWAP2 SWAP1 POP JUMP JUMPDEST PUSH1 0x0 PUSH8 0xFFFFFFFFFFFFFFFF DUP3 GT ISZERO PUSH2 0x212E JUMPI PUSH2 0x212D PUSH2 0x2098 JUMP JUMPDEST JUMPDEST PUSH2 0x2137 DUP3 PUSH2 0x1F63 JUMP JUMPDEST SWAP1 POP PUSH1 0x20 DUP2 ADD SWAP1 POP SWAP2 SWAP1 POP JUMP JUMPDEST DUP3 DUP2 DUP4 CALLDATACOPY PUSH1 0x0 DUP4 DUP4 ADD MSTORE POP POP POP JUMP JUMPDEST PUSH1 0x0 PUSH2 0x2166 PUSH2 0x2161 DUP5 PUSH2 0x2113 JUMP JUMPDEST PUSH2 0x20F8 JUMP JUMPDEST SWAP1 POP DUP3 DUP2 MSTORE PUSH1 0x20 DUP2 ADD DUP5 DUP5 DUP5 ADD GT ISZERO PUSH2 0x2182 JUMPI PUSH2 0x2181 PUSH2 0x2093 JUMP JUMPDEST JUMPDEST PUSH2 0x218D DUP5 DUP3 DUP6 PUSH2 0x2144 JUMP JUMPDEST POP SWAP4 SWAP3 POP POP POP JUMP JUMPDEST PUSH1 0x0 DUP3 PUSH1 0x1F DUP4 ADD SLT PUSH2 0x21AA JUMPI PUSH2 0x21A9 PUSH2 0x208E JUMP JUMPDEST JUMPDEST DUP2 CALLDATALOAD PUSH2 0x21BA DUP5 DUP3 PUSH1 0x20 DUP7 ADD PUSH2 0x2153 JUMP JUMPDEST SWAP2 POP POP SWAP3 SWAP2 POP POP JUMP JUMPDEST PUSH1 0x0 PUSH1 0x20 DUP3 DUP5 SUB SLT ISZERO PUSH2 0x21D9 JUMPI PUSH2 0x21D8 PUSH2 0x1E58 JUMP JUMPDEST JUMPDEST PUSH1 0x0 DUP3 ADD CALLDATALOAD PUSH8 0xFFFFFFFFFFFFFFFF DUP2 GT ISZERO PUSH2 0x21F7 JUMPI PUSH2 0x21F6 PUSH2 0x1E5D JUMP JUMPDEST JUMPDEST PUSH2 0x2203 DUP5 DUP3 DUP6 ADD PUSH2 0x2195 JUMP JUMPDEST SWAP2 POP POP SWAP3 SWAP2 POP POP JUMP JUMPDEST PUSH2 0x2215 DUP2 PUSH2 0x1FCF JUMP JUMPDEST DUP3 MSTORE POP POP JUMP JUMPDEST PUSH1 0x0 PUSH1 0x20 DUP3 ADD SWAP1 POP PUSH2 0x2230 PUSH1 0x0 DUP4 ADD DUP5 PUSH2 0x220C JUMP JUMPDEST SWAP3 SWAP2 POP POP JUMP JUMPDEST PUSH2 0x223F DUP2 PUSH2 0x2052 JUMP JUMPDEST DUP2 EQ PUSH2 0x224A JUMPI PUSH1 0x0 DUP1 REVERT JUMPDEST POP JUMP JUMPDEST PUSH1 0x0 DUP2 CALLDATALOAD SWAP1 POP PUSH2 0x225C DUP2 PUSH2 0x2236 JUMP JUMPDEST SWAP3 SWAP2 POP POP JUMP JUMPDEST PUSH1 0x0 DUP1 PUSH1 0x40 DUP4 DUP6 SUB SLT ISZERO PUSH2 0x2279 JUMPI PUSH2 0x2278 PUSH2 0x1E58 JUMP JUMPDEST JUMPDEST PUSH1 0x0 PUSH2 0x2287 DUP6 DUP3 DUP7 ADD PUSH2 0x224D JUMP JUMPDEST SWAP3 POP POP PUSH1 0x20 PUSH2 0x2298 DUP6 DUP3 DUP7 ADD PUSH2 0x1FF0 JUMP JUMPDEST SWAP2 POP POP SWAP3 POP SWAP3 SWAP1 POP JUMP JUMPDEST PUSH1 0x0 DUP1 PUSH1 0x0 PUSH1 0x60 DUP5 DUP7 SUB SLT ISZERO PUSH2 0x22BB JUMPI PUSH2 0x22BA PUSH2 0x1E58 JUMP JUMPDEST JUMPDEST PUSH1 0x0 PUSH2 0x22C9 DUP7 DUP3 DUP8 ADD PUSH2 0x224D JUMP JUMPDEST SWAP4 POP POP PUSH1 0x20 PUSH2 0x22DA DUP7 DUP3 DUP8 ADD PUSH2 0x224D JUMP JUMPDEST SWAP3 POP POP PUSH1 0x40 PUSH2 0x22EB DUP7 DUP3 DUP8 ADD PUSH2 0x1FF0 JUMP JUMPDEST SWAP2 POP POP SWAP3 POP SWAP3 POP SWAP3 JUMP JUMPDEST PUSH1 0x0 DUP1 PUSH1 0x40 DUP4 DUP6 SUB SLT ISZERO PUSH2 0x230C JUMPI PUSH2 0x230B PUSH2 0x1E58 JUMP JUMPDEST JUMPDEST PUSH1 0x0 PUSH2 0x231A DUP6 DUP3 DUP7 ADD PUSH2 0x1FF0 JUMP JUMPDEST SWAP3 POP POP PUSH1 0x20 PUSH2 0x232B DUP6 DUP3 DUP7 ADD PUSH2 0x1FF0 JUMP JUMPDEST SWAP2 POP POP SWAP3 POP SWAP3 SWAP1 POP JUMP JUMPDEST PUSH1 0x0 PUSH1 0x40 DUP3 ADD SWAP1 POP PUSH2 0x234A PUSH1 0x0 DUP4 ADD DUP6 PUSH2 0x2064 JUMP JUMPDEST PUSH2 0x2357 PUSH1 0x20 DUP4 ADD DUP5 PUSH2 0x220C JUMP JUMPDEST SWAP4 SWAP3 POP POP POP JUMP JUMPDEST PUSH1 0x0 PUSH1 0x20 DUP3 DUP5 SUB SLT ISZERO PUSH2 0x2374 JUMPI PUSH2 0x2373 PUSH2 0x1E58 JUMP JUMPDEST JUMPDEST PUSH1 0x0 PUSH2 0x2382 DUP5 DUP3 DUP6 ADD PUSH2 0x224D JUMP JUMPDEST SWAP2 POP POP SWAP3 SWAP2 POP POP JUMP JUMPDEST PUSH2 0x2394 DUP2 PUSH2 0x1EE7 JUMP JUMPDEST DUP2 EQ PUSH2 0x239F JUMPI PUSH1 0x0 DUP1 REVERT JUMPDEST POP JUMP JUMPDEST PUSH1 0x0 DUP2 CALLDATALOAD SWAP1 POP PUSH2 0x23B1 DUP2 PUSH2 0x238B JUMP JUMPDEST SWAP3 SWAP2 POP POP JUMP JUMPDEST PUSH1 0x0 DUP1 PUSH1 0x40 DUP4 DUP6 SUB SLT ISZERO PUSH2 0x23CE JUMPI PUSH2 0x23CD PUSH2 0x1E58 JUMP JUMPDEST JUMPDEST PUSH1 0x0 PUSH2 0x23DC DUP6 DUP3 DUP7 ADD PUSH2 0x224D JUMP JUMPDEST SWAP3 POP POP PUSH1 0x20 PUSH2 0x23ED DUP6 DUP3 DUP7 ADD PUSH2 0x23A2 JUMP JUMPDEST SWAP2 POP POP SWAP3 POP SWAP3 SWAP1 POP JUMP JUMPDEST PUSH1 0x0 PUSH8 0xFFFFFFFFFFFFFFFF DUP3 GT ISZERO PUSH2 0x2412 JUMPI PUSH2 0x2411 PUSH2 0x2098 JUMP JUMPDEST JUMPDEST PUSH2 0x241B DUP3 PUSH2 0x1F63 JUMP JUMPDEST SWAP1 POP PUSH1 0x20 DUP2 ADD SWAP1 POP SWAP2 SWAP1 POP JUMP JUMPDEST PUSH1 0x0 PUSH2 0x243B PUSH2 0x2436 DUP5 PUSH2 0x23F7 JUMP JUMPDEST PUSH2 0x20F8 JUMP JUMPDEST SWAP1 POP DUP3 DUP2 MSTORE PUSH1 0x20 DUP2 ADD DUP5 DUP5 DUP5 ADD GT ISZERO PUSH2 0x2457 JUMPI PUSH2 0x2456 PUSH2 0x2093 JUMP JUMPDEST JUMPDEST PUSH2 0x2462 DUP5 DUP3 DUP6 PUSH2 0x2144 JUMP JUMPDEST POP SWAP4 SWAP3 POP POP POP JUMP JUMPDEST PUSH1 0x0 DUP3 PUSH1 0x1F DUP4 ADD SLT PUSH2 0x247F JUMPI PUSH2 0x247E PUSH2 0x208E JUMP JUMPDEST JUMPDEST DUP2 CALLDATALOAD PUSH2 0x248F DUP5 DUP3 PUSH1 0x20 DUP7 ADD PUSH2 0x2428 JUMP JUMPDEST SWAP2 POP POP SWAP3 SWAP2 POP POP JUMP JUMPDEST PUSH1 0x0 DUP1 PUSH1 0x0 DUP1 PUSH1 0x80 DUP6 DUP8 SUB SLT ISZERO PUSH2 0x24B2 JUMPI PUSH2 0x24B1 PUSH2 0x1E58 JUMP JUMPDEST JUMPDEST PUSH1 0x0 PUSH2 0x24C0 DUP8 DUP3 DUP9 ADD PUSH2 0x224D JUMP JUMPDEST SWAP5 POP POP PUSH1 0x20 PUSH2 0x24D1 DUP8 DUP3 DUP9 ADD PUSH2 0x224D JUMP JUMPDEST SWAP4 POP POP PUSH1 0x40 PUSH2 0x24E2 DUP8 DUP3 DUP9 ADD PUSH2 0x1FF0 JUMP JUMPDEST SWAP3 POP POP PUSH1 0x60 DUP6 ADD CALLDATALOAD PUSH8 0xFFFFFFFFFFFFFFFF DUP2 GT ISZERO PUSH2 0x2503 JUMPI PUSH2 0x2502 PUSH2 0x1E5D JUMP JUMPDEST JUMPDEST PUSH2 0x250F DUP8 DUP3 DUP9 ADD PUSH2 0x246A JUMP JUMPDEST SWAP2 POP POP SWAP3 SWAP6 SWAP2 SWAP5 POP SWAP3 POP JUMP JUMPDEST PUSH1 0x0 DUP1 PUSH1 0x40 DUP4 DUP6 SUB SLT ISZERO PUSH2 0x2532 JUMPI PUSH2 0x2531 PUSH2 0x1E58 JUMP JUMPDEST JUMPDEST PUSH1 0x0 PUSH2 0x2540 DUP6 DUP3 DUP7 ADD PUSH2 0x224D JUMP JUMPDEST SWAP3 POP POP PUSH1 0x20 PUSH2 0x2551 DUP6 DUP3 DUP7 ADD PUSH2 0x224D JUMP JUMPDEST SWAP2 POP POP SWAP3 POP SWAP3 SWAP1 POP JUMP JUMPDEST PUSH32 0x4E487B7100000000000000000000000000000000000000000000000000000000 PUSH1 0x0 MSTORE PUSH1 0x22 PUSH1 0x4 MSTORE PUSH1 0x24 PUSH1 0x0 REVERT JUMPDEST PUSH1 0x0 PUSH1 0x2 DUP3 DIV SWAP1 POP PUSH1 0x1 DUP3 AND DUP1 PUSH2 0x25A2 JUMPI PUSH1 0x7F DUP3 AND SWAP2 POP JUMPDEST PUSH1 0x20 DUP3 LT DUP2 SUB PUSH2 0x25B5 JUMPI PUSH2 0x25B4 PUSH2 0x255B JUMP JUMPDEST JUMPDEST POP SWAP2 SWAP1 POP JUMP JUMPDEST PUSH1 0x0 PUSH1 0x60 DUP3 ADD SWAP1 POP PUSH2 0x25D0 PUSH1 0x0 DUP4 ADD DUP7 PUSH2 0x220C JUMP JUMPDEST PUSH2 0x25DD PUSH1 0x20 DUP4 ADD DUP6 PUSH2 0x2064 JUMP JUMPDEST DUP2 DUP2 SUB PUSH1 0x40 DUP4 ADD MSTORE PUSH2 0x25EF DUP2 DUP5 PUSH2 0x1F74 JUMP JUMPDEST SWAP1 POP SWAP5 SWAP4 POP POP POP POP JUMP JUMPDEST PUSH32 0x4552433732313A20617070726F76616C20746F2063757272656E74206F776E65 PUSH1 0x0 DUP3 ADD MSTORE PUSH32 0x7200000000000000000000000000000000000000000000000000000000000000 PUSH1 0x20 DUP3 ADD MSTORE POP JUMP JUMPDEST PUSH1 0x0 PUSH2 0x2655 PUSH1 0x21 DUP4 PUSH2 0x1F28 JUMP JUMPDEST SWAP2 POP PUSH2 0x2660 DUP3 PUSH2 0x25F9 JUMP JUMPDEST PUSH1 0x40 DUP3 ADD SWAP1 POP SWAP2 SWAP1 POP JUMP JUMPDEST PUSH1 0x0 PUSH1 0x20 DUP3 ADD SWAP1 POP DUP2 DUP2 SUB PUSH1 0x0 DUP4 ADD MSTORE PUSH2 0x2684 DUP2 PUSH2 0x2648 JUMP JUMPDEST SWAP1 POP SWAP2 SWAP1 POP JUMP JUMPDEST PUSH32 0x4552433732313A20617070726F76652063616C6C6572206973206E6F7420746F PUSH1 0x0 DUP3 ADD MSTORE PUSH32 0x6B656E206F776E6572206F7220617070726F76656420666F7220616C6C000000 PUSH1 0x20 DUP3 ADD MSTORE POP JUMP JUMPDEST PUSH1 0x0 PUSH2 0x26E7 PUSH1 0x3D DUP4 PUSH2 0x1F28 JUMP JUMPDEST SWAP2 POP PUSH2 0x26F2 DUP3 PUSH2 0x268B JUMP JUMPDEST PUSH1 0x40 DUP3 ADD SWAP1 POP SWAP2 SWAP1 POP JUMP JUMPDEST PUSH1 0x0 PUSH1 0x20 DUP3 ADD SWAP1 POP DUP2 DUP2 SUB PUSH1 0x0 DUP4 ADD MSTORE PUSH2 0x2716 DUP2 PUSH2 0x26DA JUMP JUMPDEST SWAP1 POP SWAP2 SWAP1 POP JUMP JUMPDEST PUSH32 0x4552433732313A2063616C6C6572206973206E6F7420746F6B656E206F776E65 PUSH1 0x0 DUP3 ADD MSTORE PUSH32 0x72206F7220617070726F76656400000000000000000000000000000000000000 PUSH1 0x20 DUP3 ADD MSTORE POP JUMP JUMPDEST PUSH1 0x0 PUSH2 0x2779 PUSH1 0x2D DUP4 PUSH2 0x1F28 JUMP JUMPDEST SWAP2 POP PUSH2 0x2784 DUP3 PUSH2 0x271D JUMP JUMPDEST PUSH1 0x40 DUP3 ADD SWAP1 POP SWAP2 SWAP1 POP JUMP JUMPDEST PUSH1 0x0 PUSH1 0x20 DUP3 ADD SWAP1 POP DUP2 DUP2 SUB PUSH1 0x0 DUP4 ADD MSTORE PUSH2 0x27A8 DUP2 PUSH2 0x276C JUMP JUMPDEST SWAP1 POP SWAP2 SWAP1 POP JUMP JUMPDEST PUSH32 0x4E487B7100000000000000000000000000000000000000000000000000000000 PUSH1 0x0 MSTORE PUSH1 0x11 PUSH1 0x4 MSTORE PUSH1 0x24 PUSH1 0x0 REVERT JUMPDEST PUSH1 0x0 PUSH2 0x27E9 DUP3 PUSH2 0x1FCF JUMP JUMPDEST SWAP2 POP PUSH2 0x27F4 DUP4 PUSH2 0x1FCF JUMP JUMPDEST SWAP3 POP DUP3 DUP3 MUL PUSH2 0x2802 DUP2 PUSH2 0x1FCF JUMP JUMPDEST SWAP2 POP DUP3 DUP3 DIV DUP5 EQ DUP4 ISZERO OR PUSH2 0x2819 JUMPI PUSH2 0x2818 PUSH2 0x27AF JUMP JUMPDEST JUMPDEST POP SWAP3 SWAP2 POP POP JUMP JUMPDEST PUSH32 0x4E487B7100000000000000000000000000000000000000000000000000000000 PUSH1 0x0 MSTORE PUSH1 0x12 PUSH1 0x4 MSTORE PUSH1 0x24 PUSH1 0x0 REVERT JUMPDEST PUSH1 0x0 PUSH2 0x285A DUP3 PUSH2 0x1FCF JUMP JUMPDEST SWAP2 POP PUSH2 0x2865 DUP4 PUSH2 0x1FCF JUMP JUMPDEST SWAP3 POP DUP3 PUSH2 0x2875 JUMPI PUSH2 0x2874 PUSH2 0x2820 JUMP JUMPDEST JUMPDEST DUP3 DUP3 DIV SWAP1 POP SWAP3 SWAP2 POP POP JUMP JUMPDEST PUSH32 0x4552433732313A20696E76616C696420746F6B656E2049440000000000000000 PUSH1 0x0 DUP3 ADD MSTORE POP JUMP JUMPDEST PUSH1 0x0 PUSH2 0x28B6 PUSH1 0x18 DUP4 PUSH2 0x1F28 JUMP JUMPDEST SWAP2 POP PUSH2 0x28C1 DUP3 PUSH2 0x2880 JUMP JUMPDEST PUSH1 0x20 DUP3 ADD SWAP1 POP SWAP2 SWAP1 POP JUMP JUMPDEST PUSH1 0x0 PUSH1 0x20 DUP3 ADD SWAP1 POP DUP2 DUP2 SUB PUSH1 0x0 DUP4 ADD MSTORE PUSH2 0x28E5 DUP2 PUSH2 0x28A9 JUMP JUMPDEST SWAP1 POP SWAP2 SWAP1 POP JUMP JUMPDEST PUSH32 0x4552433732313A2061646472657373207A65726F206973206E6F742061207661 PUSH1 0x0 DUP3 ADD MSTORE PUSH32 0x6C6964206F776E65720000000000000000000000000000000000000000000000 PUSH1 0x20 DUP3 ADD MSTORE POP JUMP JUMPDEST PUSH1 0x0 PUSH2 0x2948 PUSH1 0x29 DUP4 PUSH2 0x1F28 JUMP JUMPDEST SWAP2 POP PUSH2 0x2953 DUP3 PUSH2 0x28EC JUMP JUMPDEST PUSH1 0x40 DUP3 ADD SWAP1 POP SWAP2 SWAP1 POP JUMP JUMPDEST PUSH1 0x0 PUSH1 0x20 DUP3 ADD SWAP1 POP DUP2 DUP2 SUB PUSH1 0x0 DUP4 ADD MSTORE PUSH2 0x2977 DUP2 PUSH2 0x293B JUMP JUMPDEST SWAP1 POP SWAP2 SWAP1 POP JUMP JUMPDEST PUSH32 0x4F776E61626C653A206E6577206F776E657220697320746865207A65726F2061 PUSH1 0x0 DUP3 ADD MSTORE PUSH32 0x6464726573730000000000000000000000000000000000000000000000000000 PUSH1 0x20 DUP3 ADD MSTORE POP JUMP JUMPDEST PUSH1 0x0 PUSH2 0x29DA PUSH1 0x26 DUP4 PUSH2 0x1F28 JUMP JUMPDEST SWAP2 POP PUSH2 0x29E5 DUP3 PUSH2 0x297E JUMP JUMPDEST PUSH1 0x40 DUP3 ADD SWAP1 POP SWAP2 SWAP1 POP JUMP JUMPDEST PUSH1 0x0 PUSH1 0x20 DUP3 ADD SWAP1 POP DUP2 DUP2 SUB PUSH1 0x0 DUP4 ADD MSTORE PUSH2 0x2A09 DUP2 PUSH2 0x29CD JUMP JUMPDEST SWAP1 POP SWAP2 SWAP1 POP JUMP JUMPDEST PUSH32 0x4552433732313A206D696E7420746F20746865207A65726F2061646472657373 PUSH1 0x0 DUP3 ADD MSTORE POP JUMP JUMPDEST PUSH1 0x0 PUSH2 0x2A46 PUSH1 0x20 DUP4 PUSH2 0x1F28 JUMP JUMPDEST SWAP2 POP PUSH2 0x2A51 DUP3 PUSH2 0x2A10 JUMP JUMPDEST PUSH1 0x20 DUP3 ADD SWAP1 POP SWAP2 SWAP1 POP JUMP JUMPDEST PUSH1 0x0 PUSH1 0x20 DUP3 ADD SWAP1 POP DUP2 DUP2 SUB PUSH1 0x0 DUP4 ADD MSTORE PUSH2 0x2A75 DUP2 PUSH2 0x2A39 JUMP JUMPDEST SWAP1 POP SWAP2 SWAP1 POP JUMP JUMPDEST PUSH32 0x4552433732313A20746F6B656E20616C7265616479206D696E74656400000000 PUSH1 0x0 DUP3 ADD MSTORE POP JUMP JUMPDEST PUSH1 0x0 PUSH2 0x2AB2 PUSH1 0x1C DUP4 PUSH2 0x1F28 JUMP JUMPDEST SWAP2 POP PUSH2 0x2ABD DUP3 PUSH2 0x2A7C JUMP JUMPDEST PUSH1 0x20 DUP3 ADD SWAP1 POP SWAP2 SWAP1 POP JUMP JUMPDEST PUSH1 0x0 PUSH1 0x20 DUP3 ADD SWAP1 POP DUP2 DUP2 SUB PUSH1 0x0 DUP4 ADD MSTORE PUSH2 0x2AE1 DUP2 PUSH2 0x2AA5 JUMP JUMPDEST SWAP1 POP SWAP2 SWAP1 POP JUMP JUMPDEST PUSH32 0x45524337323155524953746F726167653A2055524920736574206F66206E6F6E PUSH1 0x0 DUP3 ADD MSTORE PUSH32 0x6578697374656E7420746F6B656E000000000000000000000000000000000000 PUSH1 0x20 DUP3 ADD MSTORE POP JUMP JUMPDEST PUSH1 0x0 PUSH2 0x2B44 PUSH1 0x2E DUP4 PUSH2 0x1F28 JUMP JUMPDEST SWAP2 POP PUSH2 0x2B4F DUP3 PUSH2 0x2AE8 JUMP JUMPDEST PUSH1 0x40 DUP3 ADD SWAP1 POP SWAP2 SWAP1 POP JUMP JUMPDEST PUSH1 0x0 PUSH1 0x20 DUP3 ADD SWAP1 POP DUP2 DUP2 SUB PUSH1 0x0 DUP4 ADD MSTORE PUSH2 0x2B73 DUP2 PUSH2 0x2B37 JUMP JUMPDEST SWAP1 POP SWAP2 SWAP1 POP JUMP JUMPDEST PUSH1 0x0 DUP2 SWAP1 POP DUP2 PUSH1 0x0 MSTORE PUSH1 0x20 PUSH1 0x0 KECCAK256 SWAP1 POP SWAP2 SWAP1 POP JUMP JUMPDEST PUSH1 0x0 PUSH1 0x20 PUSH1 0x1F DUP4 ADD DIV SWAP1 POP SWAP2 SWAP1 POP JUMP JUMPDEST PUSH1 0x0 DUP3 DUP3 SHL SWAP1 POP SWAP3 SWAP2 POP POP JUMP JUMPDEST PUSH1 0x0 PUSH1 0x8 DUP4 MUL PUSH2 0x2BDC PUSH32 0xFFFFFFFFFFFFFFFFFFFFFFFFFFFFFFFFFFFFFFFFFFFFFFFFFFFFFFFFFFFFFFFF DUP3 PUSH2 0x2B9F JUMP JUMPDEST PUSH2 0x2BE6 DUP7 DUP4 PUSH2 0x2B9F JUMP JUMPDEST SWAP6 POP DUP1 NOT DUP5 AND SWAP4 POP DUP1 DUP7 AND DUP5 OR SWAP3 POP POP POP SWAP4 SWAP3 POP POP POP JUMP JUMPDEST PUSH1 0x0 DUP2 SWAP1 POP SWAP2 SWAP1 POP JUMP JUMPDEST PUSH1 0x0 PUSH2 0x2C23 PUSH2 0x2C1E PUSH2 0x2C19 DUP5 PUSH2 0x1FCF JUMP JUMPDEST PUSH2 0x2BFE JUMP JUMPDEST PUSH2 0x1FCF JUMP JUMPDEST SWAP1 POP SWAP2 SWAP1 POP JUMP JUMPDEST PUSH1 0x0 DUP2 SWAP1 POP SWAP2 SWAP1 POP JUMP JUMPDEST PUSH2 0x2C3D DUP4 PUSH2 0x2C08 JUMP JUMPDEST PUSH2 0x2C51 PUSH2 0x2C49 DUP3 PUSH2 0x2C2A JUMP JUMPDEST DUP5 DUP5 SLOAD PUSH2 0x2BAC JUMP JUMPDEST DUP3 SSTORE POP POP POP POP JUMP JUMPDEST PUSH1 0x0 SWAP1 JUMP JUMPDEST PUSH2 0x2C66 PUSH2 0x2C59 JUMP JUMPDEST PUSH2 0x2C71 DUP2 DUP5 DUP5 PUSH2 0x2C34 JUMP JUMPDEST POP POP POP JUMP JUMPDEST JUMPDEST DUP2 DUP2 LT ISZERO PUSH2 0x2C95 JUMPI PUSH2 0x2C8A PUSH1 0x0 DUP3 PUSH2 0x2C5E JUMP JUMPDEST PUSH1 0x1 DUP2 ADD SWAP1 POP PUSH2 0x2C77 JUMP JUMPDEST POP POP JUMP JUMPDEST PUSH1 0x1F DUP3 GT ISZERO PUSH2 0x2CDA JUMPI PUSH2 0x2CAB DUP2 PUSH2 0x2B7A JUMP JUMPDEST PUSH2 0x2CB4 DUP5 PUSH2 0x2B8F JUMP JUMPDEST DUP2 ADD PUSH1 0x20 DUP6 LT ISZERO PUSH2 0x2CC3 JUMPI DUP2 SWAP1 POP JUMPDEST PUSH2 0x2CD7 PUSH2 0x2CCF DUP6 PUSH2 0x2B8F JUMP JUMPDEST DUP4 ADD DUP3 PUSH2 0x2C76 JUMP JUMPDEST POP POP JUMPDEST POP POP POP JUMP JUMPDEST PUSH1 0x0 DUP3 DUP3 SHR SWAP1 POP SWAP3 SWAP2 POP POP JUMP JUMPDEST PUSH1 0x0 PUSH2 0x2CFD PUSH1 0x0 NOT DUP5 PUSH1 0x8 MUL PUSH2 0x2CDF JUMP JUMPDEST NOT DUP1 DUP4 AND SWAP2 POP POP SWAP3 SWAP2 POP POP JUMP JUMPDEST PUSH1 0x0 PUSH2 0x2D16 DUP4 DUP4 PUSH2 0x2CEC JUMP JUMPDEST SWAP2 POP DUP3 PUSH1 0x2 MUL DUP3 OR SWAP1 POP SWAP3 SWAP2 POP POP JUMP JUMPDEST PUSH2 0x2D2F DUP3 PUSH2 0x1F1D JUMP JUMPDEST PUSH8 0xFFFFFFFFFFFFFFFF DUP2 GT ISZERO PUSH2 0x2D48 JUMPI PUSH2 0x2D47 PUSH2 0x2098 JUMP JUMPDEST JUMPDEST PUSH2 0x2D52 DUP3 SLOAD PUSH2 0x258A JUMP JUMPDEST PUSH2 0x2D5D DUP3 DUP3 DUP6 PUSH2 0x2C99 JUMP JUMPDEST PUSH1 0x0 PUSH1 0x20 SWAP1 POP PUSH1 0x1F DUP4 GT PUSH1 0x1 DUP2 EQ PUSH2 0x2D90 JUMPI PUSH1 0x0 DUP5 ISZERO PUSH2 0x2D7E JUMPI DUP3 DUP8 ADD MLOAD SWAP1 POP JUMPDEST PUSH2 0x2D88 DUP6 DUP3 PUSH2 0x2D0A JUMP JUMPDEST DUP7 SSTORE POP PUSH2 0x2DF0 JUMP JUMPDEST PUSH1 0x1F NOT DUP5 AND PUSH2 0x2D9E DUP7 PUSH2 0x2B7A JUMP JUMPDEST PUSH1 0x0 JUMPDEST DUP3 DUP2 LT ISZERO PUSH2 0x2DC6 JUMPI DUP5 DUP10 ADD MLOAD DUP3 SSTORE PUSH1 0x1 DUP3 ADD SWAP2 POP PUSH1 0x20 DUP6 ADD SWAP5 POP PUSH1 0x20 DUP2 ADD SWAP1 POP PUSH2 0x2DA1 JUMP JUMPDEST DUP7 DUP4 LT ISZERO PUSH2 0x2DE3 JUMPI DUP5 DUP10 ADD MLOAD PUSH2 0x2DDF PUSH1 0x1F DUP10 AND DUP3 PUSH2 0x2CEC JUMP JUMPDEST DUP4 SSTORE POP JUMPDEST PUSH1 0x1 PUSH1 0x2 DUP9 MUL ADD DUP9 SSTORE POP POP POP JUMPDEST POP POP POP POP POP POP JUMP JUMPDEST PUSH32 0x4552433732313A207472616E736665722066726F6D20696E636F727265637420 PUSH1 0x0 DUP3 ADD MSTORE PUSH32 0x6F776E6572000000000000000000000000000000000000000000000000000000 PUSH1 0x20 DUP3 ADD MSTORE POP JUMP JUMPDEST PUSH1 0x0 PUSH2 0x2E54 PUSH1 0x25 DUP4 PUSH2 0x1F28 JUMP JUMPDEST SWAP2 POP PUSH2 0x2E5F DUP3 PUSH2 0x2DF8 JUMP JUMPDEST PUSH1 0x40 DUP3 ADD SWAP1 POP SWAP2 SWAP1 POP JUMP JUMPDEST PUSH1 0x0 PUSH1 0x20 DUP3 ADD SWAP1 POP DUP2 DUP2 SUB PUSH1 0x0 DUP4 ADD MSTORE PUSH2 0x2E83 DUP2 PUSH2 0x2E47 JUMP JUMPDEST SWAP1 POP SWAP2 SWAP1 POP JUMP JUMPDEST PUSH32 0x4552433732313A207472616E7366657220746F20746865207A65726F20616464 PUSH1 0x0 DUP3 ADD MSTORE PUSH32 0x7265737300000000000000000000000000000000000000000000000000000000 PUSH1 0x20 DUP3 ADD MSTORE POP JUMP JUMPDEST PUSH1 0x0 PUSH2 0x2EE6 PUSH1 0x24 DUP4 PUSH2 0x1F28 JUMP JUMPDEST SWAP2 POP PUSH2 0x2EF1 DUP3 PUSH2 0x2E8A JUMP JUMPDEST PUSH1 0x40 DUP3 ADD SWAP1 POP SWAP2 SWAP1 POP JUMP JUMPDEST PUSH1 0x0 PUSH1 0x20 DUP3 ADD SWAP1 POP DUP2 DUP2 SUB PUSH1 0x0 DUP4 ADD MSTORE PUSH2 0x2F15 DUP2 PUSH2 0x2ED9 JUMP JUMPDEST SWAP1 POP SWAP2 SWAP1 POP JUMP JUMPDEST PUSH32 0x4F776E61626C653A2063616C6C6572206973206E6F7420746865206F776E6572 PUSH1 0x0 DUP3 ADD MSTORE POP JUMP JUMPDEST PUSH1 0x0 PUSH2 0x2F52 PUSH1 0x20 DUP4 PUSH2 0x1F28 JUMP JUMPDEST SWAP2 POP PUSH2 0x2F5D DUP3 PUSH2 0x2F1C JUMP JUMPDEST PUSH1 0x20 DUP3 ADD SWAP1 POP SWAP2 SWAP1 POP JUMP JUMPDEST PUSH1 0x0 PUSH1 0x20 DUP3 ADD SWAP1 POP DUP2 DUP2 SUB PUSH1 0x0 DUP4 ADD MSTORE PUSH2 0x2F81 DUP2 PUSH2 0x2F45 JUMP JUMPDEST SWAP1 POP SWAP2 SWAP1 POP JUMP JUMPDEST PUSH32 0x4552433732313A20617070726F766520746F2063616C6C657200000000000000 PUSH1 0x0 DUP3 ADD MSTORE POP JUMP JUMPDEST PUSH1 0x0 PUSH2 0x2FBE PUSH1 0x19 DUP4 PUSH2 0x1F28 JUMP JUMPDEST SWAP2 POP PUSH2 0x2FC9 DUP3 PUSH2 0x2F88 JUMP JUMPDEST PUSH1 0x20 DUP3 ADD SWAP1 POP SWAP2 SWAP1 POP JUMP JUMPDEST PUSH1 0x0 PUSH1 0x20 DUP3 ADD SWAP1 POP DUP2 DUP2 SUB PUSH1 0x0 DUP4 ADD MSTORE PUSH2 0x2FED DUP2 PUSH2 0x2FB1 JUMP JUMPDEST SWAP1 POP SWAP2 SWAP1 POP JUMP JUMPDEST PUSH32 0x4552433732313A207472616E7366657220746F206E6F6E204552433732315265 PUSH1 0x0 DUP3 ADD MSTORE PUSH32 0x63656976657220696D706C656D656E7465720000000000000000000000000000 PUSH1 0x20 DUP3 ADD MSTORE POP JUMP JUMPDEST PUSH1 0x0 PUSH2 0x3050 PUSH1 0x32 DUP4 PUSH2 0x1F28 JUMP JUMPDEST SWAP2 POP PUSH2 0x305B DUP3 PUSH2 0x2FF4 JUMP JUMPDEST PUSH1 0x40 DUP3 ADD SWAP1 POP SWAP2 SWAP1 POP JUMP JUMPDEST PUSH1 0x0 PUSH1 0x20 DUP3 ADD SWAP1 POP DUP2 DUP2 SUB PUSH1 0x0 DUP4 ADD MSTORE PUSH2 0x307F DUP2 PUSH2 0x3043 JUMP JUMPDEST SWAP1 POP SWAP2 SWAP1 POP JUMP JUMPDEST PUSH1 0x0 DUP2 SWAP1 POP SWAP3 SWAP2 POP POP JUMP JUMPDEST PUSH1 0x0 PUSH2 0x309C DUP3 PUSH2 0x1F1D JUMP JUMPDEST PUSH2 0x30A6 DUP2 DUP6 PUSH2 0x3086 JUMP JUMPDEST SWAP4 POP PUSH2 0x30B6 DUP2 DUP6 PUSH1 0x20 DUP7 ADD PUSH2 0x1F39 JUMP JUMPDEST DUP1 DUP5 ADD SWAP2 POP POP SWAP3 SWAP2 POP POP JUMP JUMPDEST PUSH1 0x0 PUSH2 0x30CE DUP3 DUP6 PUSH2 0x3091 JUMP JUMPDEST SWAP2 POP PUSH2 0x30DA DUP3 DUP5 PUSH2 0x3091 JUMP JUMPDEST SWAP2 POP DUP2 SWAP1 POP SWAP4 SWAP3 POP POP POP JUMP JUMPDEST PUSH1 0x0 DUP2 MLOAD SWAP1 POP SWAP2 SWAP1 POP JUMP JUMPDEST PUSH1 0x0 DUP3 DUP3 MSTORE PUSH1 0x20 DUP3 ADD SWAP1 POP SWAP3 SWAP2 POP POP JUMP JUMPDEST PUSH1 0x0 PUSH2 0x310D DUP3 PUSH2 0x30E6 JUMP JUMPDEST PUSH2 0x3117 DUP2 DUP6 PUSH2 0x30F1 JUMP JUMPDEST SWAP4 POP PUSH2 0x3127 DUP2 DUP6 PUSH1 0x20 DUP7 ADD PUSH2 0x1F39 JUMP JUMPDEST PUSH2 0x3130 DUP2 PUSH2 0x1F63 JUMP JUMPDEST DUP5 ADD SWAP2 POP POP SWAP3 SWAP2 POP POP JUMP JUMPDEST PUSH1 0x0 PUSH1 0x80 DUP3 ADD SWAP1 POP PUSH2 0x3150 PUSH1 0x0 DUP4 ADD DUP8 PUSH2 0x2064 JUMP JUMPDEST PUSH2 0x315D PUSH1 0x20 DUP4 ADD DUP7 PUSH2 0x2064 JUMP JUMPDEST PUSH2 0x316A PUSH1 0x40 DUP4 ADD DUP6 PUSH2 0x220C JUMP JUMPDEST DUP2 DUP2 SUB PUSH1 0x60 DUP4 ADD MSTORE PUSH2 0x317C DUP2 DUP5 PUSH2 0x3102 JUMP JUMPDEST SWAP1 POP SWAP6 SWAP5 POP POP POP POP POP JUMP JUMPDEST PUSH1 0x0 DUP2 MLOAD SWAP1 POP PUSH2 0x3196 DUP2 PUSH2 0x1E8E JUMP JUMPDEST SWAP3 SWAP2 POP POP JUMP JUMPDEST PUSH1 0x0 PUSH1 0x20 DUP3 DUP5 SUB SLT ISZERO PUSH2 0x31B2 JUMPI PUSH2 0x31B1 PUSH2 0x1E58 JUMP JUMPDEST JUMPDEST PUSH1 0x0 PUSH2 0x31C0 DUP5 DUP3 DUP6 ADD PUSH2 0x3187 JUMP JUMPDEST SWAP2 POP POP SWAP3 SWAP2 POP POP JUMP INVALID LOG2 PUSH5 0x6970667358 0x22 SLT KECCAK256 0xB0 DUP1 0xE DUP10 0xEB LOG3 0xD4 SWAP7 0x2B CREATE2 CALLCODE PUSH23 0x833A4C40AF700A812F8C904071E816FD3DBB1C4564736F PUSH13 0x63430008120033000000000000 "},"methodIdentifiers":{"approve(address,uint256)":"095ea7b3","balanceOf(address)":"70a08231","getApproved(uint256)":"081812fc","isApprovedForAll(address,address)":"e985e9c5","mintViking(string)":"08478a93","name()":"06fdde03","owner()":"8da5cb5b","ownerOf(uint256)":"6352211e","renounceOwnership()":"715018a6","royaltyInfo(uint256,uint256)":"2a55205a","safeTransferFrom(address,address,uint256)":"42842e0e","safeTransferFrom(address,address,uint256,bytes)":"b88d4fde","setApprovalForAll(address,bool)":"a22cb465","supportsInterface(bytes4)":"01ffc9a7","symbol()":"95d89b41","tokenURI(uint256)":"c87b56dd","transferFrom(address,address,uint256)":"23b872dd","transferOwnership(address)":"f2fde38b"}}}}}