{
  "_format": "hh-sol-artifact-1",
  "contractName": "Hello",
  "sourceName": "contracts/Hello.sol",
  "abi": [
    {
      "inputs": [],
      "stateMutability": "nonpayable",
      "type": "constructor"
    },
    {
      "inputs": [
        {
          "internalType": "string",
          "name": "name",
          "type": "string"
        }
      ],
      "name": "sayHello",
      "outputs": [
        {
          "internalType": "string",
          "name": "",
          "type": "string"
        }
      ],
      "stateMutability": "view",
      "type": "function"
    }
  ],
  "bytecode": "0x608060405234801561001057600080fd5b506040518060400160405280600181526020017f21000000000000000000000000000000000000000000000000000000000000008152506000908051906020019061005c929190610062565b506100ff565b828054600181600116156101000203166002900490600052602060002090601f016020900481019282601f106100a357805160ff19168380011785556100d1565b828001600101855582156100d1579182015b828111156100d05782518255916020019190600101906100b5565b5b5090506100de91906100e2565b5090565b5b808211156100fb5760008160009055506001016100e3565b5090565b6104178061010e6000396000f3fe608060405234801561001057600080fd5b506004361061002b5760003560e01c8063c3a9b1c514610030575b600080fd5b6100e96004803603602081101561004657600080fd5b810190808035906020019064010000000081111561006357600080fd5b82018360208201111561007557600080fd5b8035906020019184600183028401116401000000008311171561009757600080fd5b91908080601f016020809104026020016040519081016040528093929190818152602001838380828437600081840152601f19601f820116905080830192505050505050509192919290505050610164565b6040518080602001828103825283818151815260200191508051906020019080838360005b8381101561012957808201518184015260208101905061010e565b50505050905090810190601f1680156101565780820380516001836020036101000a031916815260200191505b509250505060405180910390f35b60606101a56040518060400160405280601381526020017f536179696e672068656c6c6f20746f20257321000000000000000000000000008152503361029b565b81600060405160200180807f57656c636f6d6520746f20000000000000000000000000000000000000000000815250600b0183805190602001908083835b6020831061020657805182526020820191506020810190506020830392506101e3565b6001836020036101000a0380198251168184511680821785525050505050509050018280546001816001161561010002031660029004801561027f5780601f1061025d57610100808354040283529182019161027f565b820191906000526020600020905b81548152906001019060200180831161026b575b5050925050506040516020818303038152906040529050919050565b6103b4828260405160240180806020018373ffffffffffffffffffffffffffffffffffffffff168152602001828103825284818151815260200191508051906020019080838360005b838110156102ff5780820151818401526020810190506102e4565b50505050905090810190601f16801561032c5780820380516001836020036101000a031916815260200191505b5093505050506040516020818303038152906040527f319af333000000000000000000000000000000000000000000000000000000007bffffffffffffffffffffffffffffffffffffffffffffffffffffffff19166020820180517bffffffffffffffffffffffffffffffffffffffffffffffffffffffff83818316178352505050506103b8565b5050565b60008151905060006a636f6e736f6c652e6c6f679050602083016000808483855afa505050505056fea2646970667358221220d1e6da80e5b835a43d2daa284752ef54b86349f33f818893da9383da921b346164736f6c63430007030033",
  "linkReferences": {},
  "deployedLinkReferences": {}
}