{
  "contractName": "MorarableToken",
  "abi": [
    {
      "inputs": [],
      "stateMutability": "nonpayable",
      "type": "constructor"
    },
    {
      "anonymous": false,
      "inputs": [
        {
          "indexed": true,
          "internalType": "address",
          "name": "owner",
          "type": "address"
        },
        {
          "indexed": true,
          "internalType": "address",
          "name": "approved",
          "type": "address"
        },
        {
          "indexed": true,
          "internalType": "uint256",
          "name": "tokenId",
          "type": "uint256"
        }
      ],
      "name": "Approval",
      "type": "event"
    },
    {
      "anonymous": false,
      "inputs": [
        {
          "indexed": true,
          "internalType": "address",
          "name": "owner",
          "type": "address"
        },
        {
          "indexed": true,
          "internalType": "address",
          "name": "operator",
          "type": "address"
        },
        {
          "indexed": false,
          "internalType": "bool",
          "name": "approved",
          "type": "bool"
        }
      ],
      "name": "ApprovalForAll",
      "type": "event"
    },
    {
      "anonymous": false,
      "inputs": [
        {
          "indexed": true,
          "internalType": "address",
          "name": "from",
          "type": "address"
        },
        {
          "indexed": true,
          "internalType": "address",
          "name": "to",
          "type": "address"
        },
        {
          "indexed": true,
          "internalType": "uint256",
          "name": "tokenId",
          "type": "uint256"
        }
      ],
      "name": "Transfer",
      "type": "event"
    },
    {
      "inputs": [
        {
          "internalType": "uint256",
          "name": "",
          "type": "uint256"
        }
      ],
      "name": "Items",
      "outputs": [
        {
          "internalType": "uint256",
          "name": "id",
          "type": "uint256"
        },
        {
          "internalType": "address",
          "name": "creator",
          "type": "address"
        },
        {
          "internalType": "string",
          "name": "uri",
          "type": "string"
        }
      ],
      "stateMutability": "view",
      "type": "function",
      "constant": true
    },
    {
      "inputs": [
        {
          "internalType": "address",
          "name": "to",
          "type": "address"
        },
        {
          "internalType": "uint256",
          "name": "tokenId",
          "type": "uint256"
        }
      ],
      "name": "approve",
      "outputs": [],
      "stateMutability": "nonpayable",
      "type": "function"
    },
    {
      "inputs": [
        {
          "internalType": "address",
          "name": "owner",
          "type": "address"
        }
      ],
      "name": "balanceOf",
      "outputs": [
        {
          "internalType": "uint256",
          "name": "",
          "type": "uint256"
        }
      ],
      "stateMutability": "view",
      "type": "function",
      "constant": true
    },
    {
      "inputs": [
        {
          "internalType": "uint256",
          "name": "tokenId",
          "type": "uint256"
        }
      ],
      "name": "getApproved",
      "outputs": [
        {
          "internalType": "address",
          "name": "",
          "type": "address"
        }
      ],
      "stateMutability": "view",
      "type": "function",
      "constant": true
    },
    {
      "inputs": [
        {
          "internalType": "address",
          "name": "owner",
          "type": "address"
        },
        {
          "internalType": "address",
          "name": "operator",
          "type": "address"
        }
      ],
      "name": "isApprovedForAll",
      "outputs": [
        {
          "internalType": "bool",
          "name": "",
          "type": "bool"
        }
      ],
      "stateMutability": "view",
      "type": "function",
      "constant": true
    },
    {
      "inputs": [],
      "name": "name",
      "outputs": [
        {
          "internalType": "string",
          "name": "",
          "type": "string"
        }
      ],
      "stateMutability": "view",
      "type": "function",
      "constant": true
    },
    {
      "inputs": [
        {
          "internalType": "uint256",
          "name": "tokenId",
          "type": "uint256"
        }
      ],
      "name": "ownerOf",
      "outputs": [
        {
          "internalType": "address",
          "name": "",
          "type": "address"
        }
      ],
      "stateMutability": "view",
      "type": "function",
      "constant": true
    },
    {
      "inputs": [
        {
          "internalType": "address",
          "name": "from",
          "type": "address"
        },
        {
          "internalType": "address",
          "name": "to",
          "type": "address"
        },
        {
          "internalType": "uint256",
          "name": "tokenId",
          "type": "uint256"
        }
      ],
      "name": "safeTransferFrom",
      "outputs": [],
      "stateMutability": "nonpayable",
      "type": "function"
    },
    {
      "inputs": [
        {
          "internalType": "address",
          "name": "from",
          "type": "address"
        },
        {
          "internalType": "address",
          "name": "to",
          "type": "address"
        },
        {
          "internalType": "uint256",
          "name": "tokenId",
          "type": "uint256"
        },
        {
          "internalType": "bytes",
          "name": "_data",
          "type": "bytes"
        }
      ],
      "name": "safeTransferFrom",
      "outputs": [],
      "stateMutability": "nonpayable",
      "type": "function"
    },
    {
      "inputs": [
        {
          "internalType": "address",
          "name": "operator",
          "type": "address"
        },
        {
          "internalType": "bool",
          "name": "approved",
          "type": "bool"
        }
      ],
      "name": "setApprovalForAll",
      "outputs": [],
      "stateMutability": "nonpayable",
      "type": "function"
    },
    {
      "inputs": [
        {
          "internalType": "bytes4",
          "name": "interfaceId",
          "type": "bytes4"
        }
      ],
      "name": "supportsInterface",
      "outputs": [
        {
          "internalType": "bool",
          "name": "",
          "type": "bool"
        }
      ],
      "stateMutability": "view",
      "type": "function",
      "constant": true
    },
    {
      "inputs": [],
      "name": "symbol",
      "outputs": [
        {
          "internalType": "string",
          "name": "",
          "type": "string"
        }
      ],
      "stateMutability": "view",
      "type": "function",
      "constant": true
    },
    {
      "inputs": [
        {
          "internalType": "address",
          "name": "from",
          "type": "address"
        },
        {
          "internalType": "address",
          "name": "to",
          "type": "address"
        },
        {
          "internalType": "uint256",
          "name": "tokenId",
          "type": "uint256"
        }
      ],
      "name": "transferFrom",
      "outputs": [],
      "stateMutability": "nonpayable",
      "type": "function"
    },
    {
      "inputs": [
        {
          "internalType": "string",
          "name": "uri",
          "type": "string"
        }
      ],
      "name": "createItem",
      "outputs": [
        {
          "internalType": "uint256",
          "name": "",
          "type": "uint256"
        }
      ],
      "stateMutability": "nonpayable",
      "type": "function"
    },
    {
      "inputs": [
        {
          "internalType": "uint256",
          "name": "tokenId",
          "type": "uint256"
        }
      ],
      "name": "tokenURI",
      "outputs": [
        {
          "internalType": "string",
          "name": "",
          "type": "string"
        }
      ],
      "stateMutability": "view",
      "type": "function",
      "constant": true
    }
  ],
  "bytecode": "0x60806040523480156200001157600080fd5b506040518060400160405280600e81526020017f4d6f72617261626c65546f6b656e0000000000000000000000000000000000008152506040518060400160405280600481526020017f4d4f524100000000000000000000000000000000000000000000000000000000815250816000908051906020019062000096929190620000b8565b508060019080519060200190620000af929190620000b8565b505050620001cd565b828054620000c69062000168565b90600052602060002090601f016020900481019282620000ea576000855562000136565b82601f106200010557805160ff191683800117855562000136565b8280016001018555821562000136579182015b828111156200013557825182559160200191906001019062000118565b5b50905062000145919062000149565b5090565b5b80821115620001645760008160009055506001016200014a565b5090565b600060028204905060018216806200018157607f821691505b602082108114156200019857620001976200019e565b5b50919050565b7f4e487b7100000000000000000000000000000000000000000000000000000000600052602260045260246000fd5b61282a80620001dd6000396000f3fe608060405234801561001057600080fd5b50600436106100f55760003560e01c806342842e0e11610097578063a22cb46511610066578063a22cb465146102ac578063b88d4fde146102c8578063c87b56dd146102e4578063e985e9c514610314576100f5565b806342842e0e146102125780636352211e1461022e57806370a082311461025e57806395d89b411461028e576100f5565b8063095ea7b3116100d3578063095ea7b31461017857806317b47cc41461019457806323b872dd146101c65780633d54eebb146101e2576100f5565b806301ffc9a7146100fa57806306fdde031461012a578063081812fc14610148575b600080fd5b610114600480360381019061010f9190611ab6565b610344565b6040516101219190611e62565b60405180910390f35b610132610426565b60405161013f9190611e7d565b60405180910390f35b610162600480360381019061015d9190611b49565b6104b8565b60405161016f9190611dfb565b60405180910390f35b610192600480360381019061018d9190611a7a565b61053d565b005b6101ae60048036038101906101a99190611b49565b610655565b6040516101bd9392919061207a565b60405180910390f35b6101e060048036038101906101db9190611974565b610727565b005b6101fc60048036038101906101f79190611b08565b610787565b604051610209919061205f565b60405180910390f35b61022c60048036038101906102279190611974565b610869565b005b61024860048036038101906102439190611b49565b610889565b6040516102559190611dfb565b60405180910390f35b6102786004803603810190610273919061190f565b61093b565b604051610285919061205f565b60405180910390f35b6102966109f3565b6040516102a39190611e7d565b60405180910390f35b6102c660048036038101906102c19190611a3e565b610a85565b005b6102e260048036038101906102dd91906119c3565b610c06565b005b6102fe60048036038101906102f99190611b49565b610c68565b60405161030b9190611e7d565b60405180910390f35b61032e60048036038101906103299190611938565b610d58565b60405161033b9190611e62565b60405180910390f35b60007f80ac58cd000000000000000000000000000000000000000000000000000000007bffffffffffffffffffffffffffffffffffffffffffffffffffffffff1916827bffffffffffffffffffffffffffffffffffffffffffffffffffffffff1916148061040f57507f5b5e139f000000000000000000000000000000000000000000000000000000007bffffffffffffffffffffffffffffffffffffffffffffffffffffffff1916827bffffffffffffffffffffffffffffffffffffffffffffffffffffffff1916145b8061041f575061041e82610dec565b5b9050919050565b606060008054610435906122b7565b80601f0160208091040260200160405190810160405280929190818152602001828054610461906122b7565b80156104ae5780601f10610483576101008083540402835291602001916104ae565b820191906000526020600020905b81548152906001019060200180831161049157829003601f168201915b5050505050905090565b60006104c382610e56565b610502576040517f08c379a00000000000000000000000000000000000000000000000000000000081526004016104f990611fbf565b60405180910390fd5b6004600083815260200190815260200160002060009054906101000a900473ffffffffffffffffffffffffffffffffffffffff169050919050565b600061054882610889565b90508073ffffffffffffffffffffffffffffffffffffffff168373ffffffffffffffffffffffffffffffffffffffff1614156105b9576040517f08c379a00000000000000000000000000000000000000000000000000000000081526004016105b09061201f565b60405180910390fd5b8073ffffffffffffffffffffffffffffffffffffffff166105d8610ec2565b73ffffffffffffffffffffffffffffffffffffffff161480610607575061060681610601610ec2565b610d58565b5b610646576040517f08c379a000000000000000000000000000000000000000000000000000000000815260040161063d90611f3f565b60405180910390fd5b6106508383610eca565b505050565b60076020528060005260406000206000915090508060000154908060010160009054906101000a900473ffffffffffffffffffffffffffffffffffffffff16908060020180546106a4906122b7565b80601f01602080910402602001604051908101604052809291908181526020018280546106d0906122b7565b801561071d5780601f106106f25761010080835404028352916020019161071d565b820191906000526020600020905b81548152906001019060200180831161070057829003601f168201915b5050505050905083565b610738610732610ec2565b82610f83565b610777576040517f08c379a000000000000000000000000000000000000000000000000000000000815260040161076e9061203f565b60405180910390fd5b610782838383611061565b505050565b600061079360066112bd565b600061079f60066112d3565b90506107ab33826112e1565b60405180606001604052808281526020013373ffffffffffffffffffffffffffffffffffffffff16815260200184815250600760008381526020019081526020016000206000820151816000015560208201518160010160006101000a81548173ffffffffffffffffffffffffffffffffffffffff021916908373ffffffffffffffffffffffffffffffffffffffff160217905550604082015181600201908051906020019061085c929190611733565b5090505080915050919050565b61088483838360405180602001604052806000815250610c06565b505050565b6000806002600084815260200190815260200160002060009054906101000a900473ffffffffffffffffffffffffffffffffffffffff169050600073ffffffffffffffffffffffffffffffffffffffff168173ffffffffffffffffffffffffffffffffffffffff161415610932576040517f08c379a000000000000000000000000000000000000000000000000000000000815260040161092990611f7f565b60405180910390fd5b80915050919050565b60008073ffffffffffffffffffffffffffffffffffffffff168273ffffffffffffffffffffffffffffffffffffffff1614156109ac576040517f08c379a00000000000000000000000000000000000000000000000000000000081526004016109a390611f5f565b60405180910390fd5b600360008373ffffffffffffffffffffffffffffffffffffffff1673ffffffffffffffffffffffffffffffffffffffff168152602001908152602001600020549050919050565b606060018054610a02906122b7565b80601f0160208091040260200160405190810160405280929190818152602001828054610a2e906122b7565b8015610a7b5780601f10610a5057610100808354040283529160200191610a7b565b820191906000526020600020905b815481529060010190602001808311610a5e57829003601f168201915b5050505050905090565b610a8d610ec2565b73ffffffffffffffffffffffffffffffffffffffff168273ffffffffffffffffffffffffffffffffffffffff161415610afb576040517f08c379a0000000000000000000000000000000000000000000000000000000008152600401610af290611eff565b60405180910390fd5b8060056000610b08610ec2565b73ffffffffffffffffffffffffffffffffffffffff1673ffffffffffffffffffffffffffffffffffffffff16815260200190815260200160002060008473ffffffffffffffffffffffffffffffffffffffff1673ffffffffffffffffffffffffffffffffffffffff16815260200190815260200160002060006101000a81548160ff0219169083151502179055508173ffffffffffffffffffffffffffffffffffffffff16610bb5610ec2565b73ffffffffffffffffffffffffffffffffffffffff167f17307eab39ab6107e8899845ad3d59bd9653f200f220920489ca2b5937696c3183604051610bfa9190611e62565b60405180910390a35050565b610c17610c11610ec2565b83610f83565b610c56576040517f08c379a0000000000000000000000000000000000000000000000000000000008152600401610c4d9061203f565b60405180910390fd5b610c62848484846112ff565b50505050565b6060610c7382610e56565b610cb2576040517f08c379a0000000000000000000000000000000000000000000000000000000008152600401610ca990611fff565b60405180910390fd5b600760008381526020019081526020016000206002018054610cd3906122b7565b80601f0160208091040260200160405190810160405280929190818152602001828054610cff906122b7565b8015610d4c5780601f10610d2157610100808354040283529160200191610d4c565b820191906000526020600020905b815481529060010190602001808311610d2f57829003601f168201915b50505050509050919050565b6000600560008473ffffffffffffffffffffffffffffffffffffffff1673ffffffffffffffffffffffffffffffffffffffff16815260200190815260200160002060008373ffffffffffffffffffffffffffffffffffffffff1673ffffffffffffffffffffffffffffffffffffffff16815260200190815260200160002060009054906101000a900460ff16905092915050565b60007f01ffc9a7000000000000000000000000000000000000000000000000000000007bffffffffffffffffffffffffffffffffffffffffffffffffffffffff1916827bffffffffffffffffffffffffffffffffffffffffffffffffffffffff1916149050919050565b60008073ffffffffffffffffffffffffffffffffffffffff166002600084815260200190815260200160002060009054906101000a900473ffffffffffffffffffffffffffffffffffffffff1673ffffffffffffffffffffffffffffffffffffffff1614159050919050565b600033905090565b816004600083815260200190815260200160002060006101000a81548173ffffffffffffffffffffffffffffffffffffffff021916908373ffffffffffffffffffffffffffffffffffffffff160217905550808273ffffffffffffffffffffffffffffffffffffffff16610f3d83610889565b73ffffffffffffffffffffffffffffffffffffffff167f8c5be1e5ebec7d5bd14f71427d1e84f3dd0314c0f7b2291e5b200ac8c7c3b92560405160405180910390a45050565b6000610f8e82610e56565b610fcd576040517f08c379a0000000000000000000000000000000000000000000000000000000008152600401610fc490611f1f565b60405180910390fd5b6000610fd883610889565b90508073ffffffffffffffffffffffffffffffffffffffff168473ffffffffffffffffffffffffffffffffffffffff16148061104757508373ffffffffffffffffffffffffffffffffffffffff1661102f846104b8565b73ffffffffffffffffffffffffffffffffffffffff16145b8061105857506110578185610d58565b5b91505092915050565b8273ffffffffffffffffffffffffffffffffffffffff1661108182610889565b73ffffffffffffffffffffffffffffffffffffffff16146110d7576040517f08c379a00000000000000000000000000000000000000000000000000000000081526004016110ce90611fdf565b60405180910390fd5b600073ffffffffffffffffffffffffffffffffffffffff168273ffffffffffffffffffffffffffffffffffffffff161415611147576040517f08c379a000000000000000000000000000000000000000000000000000000000815260040161113e90611edf565b60405180910390fd5b61115283838361135b565b61115d600082610eca565b6001600360008573ffffffffffffffffffffffffffffffffffffffff1673ffffffffffffffffffffffffffffffffffffffff16815260200190815260200160002060008282546111ad91906121cd565b925050819055506001600360008473ffffffffffffffffffffffffffffffffffffffff1673ffffffffffffffffffffffffffffffffffffffff16815260200190815260200160002060008282546112049190612177565b92505081905550816002600083815260200190815260200160002060006101000a81548173ffffffffffffffffffffffffffffffffffffffff021916908373ffffffffffffffffffffffffffffffffffffffff160217905550808273ffffffffffffffffffffffffffffffffffffffff168473ffffffffffffffffffffffffffffffffffffffff167fddf252ad1be2c89b69c2b068fc378daa952ba7f163c4a11628f55a4df523b3ef60405160405180910390a4505050565b6001816000016000828254019250508190555050565b600081600001549050919050565b6112fb828260405180602001604052806000815250611360565b5050565b61130a848484611061565b611316848484846113bb565b611355576040517f08c379a000000000000000000000000000000000000000000000000000000000815260040161134c90611e9f565b60405180910390fd5b50505050565b505050565b61136a8383611552565b61137760008484846113bb565b6113b6576040517f08c379a00000000000000000000000000000000000000000000000000000000081526004016113ad90611e9f565b60405180910390fd5b505050565b60006113dc8473ffffffffffffffffffffffffffffffffffffffff16611720565b15611545578373ffffffffffffffffffffffffffffffffffffffff1663150b7a02611405610ec2565b8786866040518563ffffffff1660e01b81526004016114279493929190611e16565b602060405180830381600087803b15801561144157600080fd5b505af192505050801561147257506040513d601f19601f8201168201806040525081019061146f9190611adf565b60015b6114f5573d80600081146114a2576040519150601f19603f3d011682016040523d82523d6000602084013e6114a7565b606091505b506000815114156114ed576040517f08c379a00000000000000000000000000000000000000000000000000000000081526004016114e490611e9f565b60405180910390fd5b805181602001fd5b63150b7a0260e01b7bffffffffffffffffffffffffffffffffffffffffffffffffffffffff1916817bffffffffffffffffffffffffffffffffffffffffffffffffffffffff19161491505061154a565b600190505b949350505050565b600073ffffffffffffffffffffffffffffffffffffffff168273ffffffffffffffffffffffffffffffffffffffff1614156115c2576040517f08c379a00000000000000000000000000000000000000000000000000000000081526004016115b990611f9f565b60405180910390fd5b6115cb81610e56565b1561160b576040517f08c379a000000000000000000000000000000000000000000000000000000000815260040161160290611ebf565b60405180910390fd5b6116176000838361135b565b6001600360008473ffffffffffffffffffffffffffffffffffffffff1673ffffffffffffffffffffffffffffffffffffffff16815260200190815260200160002060008282546116679190612177565b92505081905550816002600083815260200190815260200160002060006101000a81548173ffffffffffffffffffffffffffffffffffffffff021916908373ffffffffffffffffffffffffffffffffffffffff160217905550808273ffffffffffffffffffffffffffffffffffffffff16600073ffffffffffffffffffffffffffffffffffffffff167fddf252ad1be2c89b69c2b068fc378daa952ba7f163c4a11628f55a4df523b3ef60405160405180910390a45050565b600080823b905060008111915050919050565b82805461173f906122b7565b90600052602060002090601f01602090048101928261176157600085556117a8565b82601f1061177a57805160ff19168380011785556117a8565b828001600101855582156117a8579182015b828111156117a757825182559160200191906001019061178c565b5b5090506117b591906117b9565b5090565b5b808211156117d25760008160009055506001016117ba565b5090565b60006117e96117e4846120dd565b6120b8565b90508281526020810184848401111561180157600080fd5b61180c848285612275565b509392505050565b60006118276118228461210e565b6120b8565b90508281526020810184848401111561183f57600080fd5b61184a848285612275565b509392505050565b60008135905061186181612798565b92915050565b600081359050611876816127af565b92915050565b60008135905061188b816127c6565b92915050565b6000815190506118a0816127c6565b92915050565b600082601f8301126118b757600080fd5b81356118c78482602086016117d6565b91505092915050565b600082601f8301126118e157600080fd5b81356118f1848260208601611814565b91505092915050565b600081359050611909816127dd565b92915050565b60006020828403121561192157600080fd5b600061192f84828501611852565b91505092915050565b6000806040838503121561194b57600080fd5b600061195985828601611852565b925050602061196a85828601611852565b9150509250929050565b60008060006060848603121561198957600080fd5b600061199786828701611852565b93505060206119a886828701611852565b92505060406119b9868287016118fa565b9150509250925092565b600080600080608085870312156119d957600080fd5b60006119e787828801611852565b94505060206119f887828801611852565b9350506040611a09878288016118fa565b925050606085013567ffffffffffffffff811115611a2657600080fd5b611a32878288016118a6565b91505092959194509250565b60008060408385031215611a5157600080fd5b6000611a5f85828601611852565b9250506020611a7085828601611867565b9150509250929050565b60008060408385031215611a8d57600080fd5b6000611a9b85828601611852565b9250506020611aac858286016118fa565b9150509250929050565b600060208284031215611ac857600080fd5b6000611ad68482850161187c565b91505092915050565b600060208284031215611af157600080fd5b6000611aff84828501611891565b91505092915050565b600060208284031215611b1a57600080fd5b600082013567ffffffffffffffff811115611b3457600080fd5b611b40848285016118d0565b91505092915050565b600060208284031215611b5b57600080fd5b6000611b69848285016118fa565b91505092915050565b611b7b81612201565b82525050565b611b8a81612213565b82525050565b6000611b9b8261213f565b611ba58185612155565b9350611bb5818560208601612284565b611bbe816123a7565b840191505092915050565b6000611bd48261214a565b611bde8185612166565b9350611bee818560208601612284565b611bf7816123a7565b840191505092915050565b6000611c0f603283612166565b9150611c1a826123b8565b604082019050919050565b6000611c32601c83612166565b9150611c3d82612407565b602082019050919050565b6000611c55602483612166565b9150611c6082612430565b604082019050919050565b6000611c78601983612166565b9150611c838261247f565b602082019050919050565b6000611c9b602c83612166565b9150611ca6826124a8565b604082019050919050565b6000611cbe603883612166565b9150611cc9826124f7565b604082019050919050565b6000611ce1602a83612166565b9150611cec82612546565b604082019050919050565b6000611d04602983612166565b9150611d0f82612595565b604082019050919050565b6000611d27602083612166565b9150611d32826125e4565b602082019050919050565b6000611d4a602c83612166565b9150611d558261260d565b604082019050919050565b6000611d6d602983612166565b9150611d788261265c565b604082019050919050565b6000611d90602f83612166565b9150611d9b826126ab565b604082019050919050565b6000611db3602183612166565b9150611dbe826126fa565b604082019050919050565b6000611dd6603183612166565b9150611de182612749565b604082019050919050565b611df58161226b565b82525050565b6000602082019050611e106000830184611b72565b92915050565b6000608082019050611e2b6000830187611b72565b611e386020830186611b72565b611e456040830185611dec565b8181036060830152611e578184611b90565b905095945050505050565b6000602082019050611e776000830184611b81565b92915050565b60006020820190508181036000830152611e978184611bc9565b905092915050565b60006020820190508181036000830152611eb881611c02565b9050919050565b60006020820190508181036000830152611ed881611c25565b9050919050565b60006020820190508181036000830152611ef881611c48565b9050919050565b60006020820190508181036000830152611f1881611c6b565b9050919050565b60006020820190508181036000830152611f3881611c8e565b9050919050565b60006020820190508181036000830152611f5881611cb1565b9050919050565b60006020820190508181036000830152611f7881611cd4565b9050919050565b60006020820190508181036000830152611f9881611cf7565b9050919050565b60006020820190508181036000830152611fb881611d1a565b9050919050565b60006020820190508181036000830152611fd881611d3d565b9050919050565b60006020820190508181036000830152611ff881611d60565b9050919050565b6000602082019050818103600083015261201881611d83565b9050919050565b6000602082019050818103600083015261203881611da6565b9050919050565b6000602082019050818103600083015261205881611dc9565b9050919050565b60006020820190506120746000830184611dec565b92915050565b600060608201905061208f6000830186611dec565b61209c6020830185611b72565b81810360408301526120ae8184611bc9565b9050949350505050565b60006120c26120d3565b90506120ce82826122e9565b919050565b6000604051905090565b600067ffffffffffffffff8211156120f8576120f7612378565b5b612101826123a7565b9050602081019050919050565b600067ffffffffffffffff82111561212957612128612378565b5b612132826123a7565b9050602081019050919050565b600081519050919050565b600081519050919050565b600082825260208201905092915050565b600082825260208201905092915050565b60006121828261226b565b915061218d8361226b565b9250827fffffffffffffffffffffffffffffffffffffffffffffffffffffffffffffffff038211156121c2576121c161231a565b5b828201905092915050565b60006121d88261226b565b91506121e38361226b565b9250828210156121f6576121f561231a565b5b828203905092915050565b600061220c8261224b565b9050919050565b60008115159050919050565b60007fffffffff0000000000000000000000000000000000000000000000000000000082169050919050565b600073ffffffffffffffffffffffffffffffffffffffff82169050919050565b6000819050919050565b82818337600083830152505050565b60005b838110156122a2578082015181840152602081019050612287565b838111156122b1576000848401525b50505050565b600060028204905060018216806122cf57607f821691505b602082108114156122e3576122e2612349565b5b50919050565b6122f2826123a7565b810181811067ffffffffffffffff8211171561231157612310612378565b5b80604052505050565b7f4e487b7100000000000000000000000000000000000000000000000000000000600052601160045260246000fd5b7f4e487b7100000000000000000000000000000000000000000000000000000000600052602260045260246000fd5b7f4e487b7100000000000000000000000000000000000000000000000000000000600052604160045260246000fd5b6000601f19601f8301169050919050565b7f4552433732313a207472616e7366657220746f206e6f6e20455243373231526560008201527f63656976657220696d706c656d656e7465720000000000000000000000000000602082015250565b7f4552433732313a20746f6b656e20616c7265616479206d696e74656400000000600082015250565b7f4552433732313a207472616e7366657220746f20746865207a65726f2061646460008201527f7265737300000000000000000000000000000000000000000000000000000000602082015250565b7f4552433732313a20617070726f766520746f2063616c6c657200000000000000600082015250565b7f4552433732313a206f70657261746f7220717565727920666f72206e6f6e657860008201527f697374656e7420746f6b656e0000000000000000000000000000000000000000602082015250565b7f4552433732313a20617070726f76652063616c6c6572206973206e6f74206f7760008201527f6e6572206e6f7220617070726f76656420666f7220616c6c0000000000000000602082015250565b7f4552433732313a2062616c616e636520717565727920666f7220746865207a6560008201527f726f206164647265737300000000000000000000000000000000000000000000602082015250565b7f4552433732313a206f776e657220717565727920666f72206e6f6e657869737460008201527f656e7420746f6b656e0000000000000000000000000000000000000000000000602082015250565b7f4552433732313a206d696e7420746f20746865207a65726f2061646472657373600082015250565b7f4552433732313a20617070726f76656420717565727920666f72206e6f6e657860008201527f697374656e7420746f6b656e0000000000000000000000000000000000000000602082015250565b7f4552433732313a207472616e73666572206f6620746f6b656e2074686174206960008201527f73206e6f74206f776e0000000000000000000000000000000000000000000000602082015250565b7f4552433732314d657461646174613a2055524920717565727920666f72206e6f60008201527f6e6578697374656e7420746f6b656e0000000000000000000000000000000000602082015250565b7f4552433732313a20617070726f76616c20746f2063757272656e74206f776e6560008201527f7200000000000000000000000000000000000000000000000000000000000000602082015250565b7f4552433732313a207472616e736665722063616c6c6572206973206e6f74206f60008201527f776e6572206e6f7220617070726f766564000000000000000000000000000000602082015250565b6127a181612201565b81146127ac57600080fd5b50565b6127b881612213565b81146127c357600080fd5b50565b6127cf8161221f565b81146127da57600080fd5b50565b6127e68161226b565b81146127f157600080fd5b5056fea264697066735822122080e1a07adf39c20e18b8ed93b3afba4ffb9779728c0823e836577e634d0e167c64736f6c63430008030033",
  "immutableReferences": {},
  "source": "pragma solidity ^0.8.0;\r\n\r\nimport \"../node_modules/@openzeppelin/contracts/token/ERC721/ERC721.sol\";\r\nimport \"../node_modules/@openzeppelin/contracts/utils/Counters.sol\";\r\n\r\ncontract MorarableToken is ERC721 {\r\n    using Counters for Counters.Counter;\r\n    Counters.Counter private _tokenIds;\r\n\r\n    constructor () ERC721(\"MorarableToken\", \"MORA\"){}\r\n\r\n    struct Item {\r\n        uint256 id;\r\n        address creator;\r\n        string uri;\r\n    }\r\n\r\n    mapping (uint256 => Item) public Items;\r\n\r\n    function createItem(string memory uri) public returns (uint256){\r\n        _tokenIds.increment();\r\n        uint256 newItemId = _tokenIds.current();\r\n        _safeMint(msg.sender, newItemId);\r\n\r\n        Items[newItemId] = Item(newItemId, msg.sender, uri);\r\n\r\n        return newItemId;\r\n    }\r\n\r\n    function tokenURI(uint256 tokenId) public view override returns (string memory) {\r\n        require(_exists(tokenId), \"ERC721Metadata: URI query for nonexistent token\");\r\n\r\n       return Items[tokenId].uri;\r\n    }\r\n}",
  "sourcePath": "E:/Repos/Moralis Tutorials/Rarible clone tutorial demo/contracts/contracts/MorarableToken.sol",
  "compiler": {
    "name": "solc",
    "version": "0.8.3+commit.8d00100c.Emscripten.clang"
  },
  "schemaVersion": "3.3.4",
  "updatedAt": "2021-04-02T10:19:12.372Z",
  "networkType": "ethereum",
  "devdoc": {
    "kind": "dev",
    "methods": {
      "approve(address,uint256)": {
        "details": "See {IERC721-approve}."
      },
      "balanceOf(address)": {
        "details": "See {IERC721-balanceOf}."
      },
      "getApproved(uint256)": {
        "details": "See {IERC721-getApproved}."
      },
      "isApprovedForAll(address,address)": {
        "details": "See {IERC721-isApprovedForAll}."
      },
      "name()": {
        "details": "See {IERC721Metadata-name}."
      },
      "ownerOf(uint256)": {
        "details": "See {IERC721-ownerOf}."
      },
      "safeTransferFrom(address,address,uint256)": {
        "details": "See {IERC721-safeTransferFrom}."
      },
      "safeTransferFrom(address,address,uint256,bytes)": {
        "details": "See {IERC721-safeTransferFrom}."
      },
      "setApprovalForAll(address,bool)": {
        "details": "See {IERC721-setApprovalForAll}."
      },
      "supportsInterface(bytes4)": {
        "details": "See {IERC165-supportsInterface}."
      },
      "symbol()": {
        "details": "See {IERC721Metadata-symbol}."
      },
      "tokenURI(uint256)": {
        "details": "See {IERC721Metadata-tokenURI}."
      },
      "transferFrom(address,address,uint256)": {
        "details": "See {IERC721-transferFrom}."
      }
    },
    "version": 1
  },
  "userdoc": {
    "kind": "user",
    "methods": {},
    "version": 1
  }
}