{
  "contractName": "MorarableMarketContract",
  "abi": [
    {
      "anonymous": false,
      "inputs": [
        {
          "indexed": false,
          "internalType": "address",
          "name": "userAddress",
          "type": "address"
        },
        {
          "indexed": false,
          "internalType": "uint256",
          "name": "amount",
          "type": "uint256"
        }
      ],
      "name": "deposited",
      "type": "event"
    },
    {
      "anonymous": false,
      "inputs": [
        {
          "indexed": true,
          "internalType": "uint256",
          "name": "id",
          "type": "uint256"
        },
        {
          "indexed": false,
          "internalType": "uint256",
          "name": "itemId",
          "type": "uint256"
        },
        {
          "indexed": false,
          "internalType": "address",
          "name": "tokenAddress",
          "type": "address"
        },
        {
          "indexed": false,
          "internalType": "uint256",
          "name": "askingPrice",
          "type": "uint256"
        }
      ],
      "name": "itemAdded",
      "type": "event"
    },
    {
      "anonymous": false,
      "inputs": [
        {
          "indexed": true,
          "internalType": "uint256",
          "name": "id",
          "type": "uint256"
        },
        {
          "indexed": false,
          "internalType": "address",
          "name": "newOwner",
          "type": "address"
        },
        {
          "indexed": false,
          "internalType": "uint256",
          "name": "price",
          "type": "uint256"
        }
      ],
      "name": "itemSold",
      "type": "event"
    },
    {
      "anonymous": false,
      "inputs": [
        {
          "indexed": false,
          "internalType": "address",
          "name": "userAddress",
          "type": "address"
        },
        {
          "indexed": false,
          "internalType": "uint256",
          "name": "amount",
          "type": "uint256"
        }
      ],
      "name": "withdrawl",
      "type": "event"
    },
    {
      "inputs": [
        {
          "internalType": "address",
          "name": "",
          "type": "address"
        }
      ],
      "name": "balances",
      "outputs": [
        {
          "internalType": "uint256",
          "name": "",
          "type": "uint256"
        }
      ],
      "stateMutability": "view",
      "type": "function",
      "constant": true
    },
    {
      "inputs": [
        {
          "internalType": "uint256",
          "name": "",
          "type": "uint256"
        }
      ],
      "name": "itemsForSale",
      "outputs": [
        {
          "internalType": "uint256",
          "name": "id",
          "type": "uint256"
        },
        {
          "internalType": "address",
          "name": "tokenAddress",
          "type": "address"
        },
        {
          "internalType": "uint256",
          "name": "itemId",
          "type": "uint256"
        },
        {
          "internalType": "address",
          "name": "seller",
          "type": "address"
        },
        {
          "internalType": "uint256",
          "name": "askingPrice",
          "type": "uint256"
        },
        {
          "internalType": "bool",
          "name": "isSold",
          "type": "bool"
        }
      ],
      "stateMutability": "view",
      "type": "function",
      "constant": true
    },
    {
      "inputs": [],
      "name": "deposit",
      "outputs": [],
      "stateMutability": "payable",
      "type": "function",
      "payable": true
    },
    {
      "inputs": [
        {
          "internalType": "uint256",
          "name": "amount",
          "type": "uint256"
        }
      ],
      "name": "withdraw",
      "outputs": [],
      "stateMutability": "nonpayable",
      "type": "function"
    },
    {
      "inputs": [
        {
          "internalType": "uint256",
          "name": "itemId",
          "type": "uint256"
        },
        {
          "internalType": "address",
          "name": "tokenAddress",
          "type": "address"
        },
        {
          "internalType": "uint256",
          "name": "askingPrice",
          "type": "uint256"
        }
      ],
      "name": "addItemToMarket",
      "outputs": [
        {
          "internalType": "uint256",
          "name": "",
          "type": "uint256"
        }
      ],
      "stateMutability": "nonpayable",
      "type": "function"
    },
    {
      "inputs": [
        {
          "internalType": "uint256",
          "name": "id",
          "type": "uint256"
        }
      ],
      "name": "buyItem",
      "outputs": [],
      "stateMutability": "nonpayable",
      "type": "function"
    }
  ],
  "bytecode": "0x608060405234801561001057600080fd5b50611844806100206000396000f3fe6080604052600436106100555760003560e01c8063092d0afc1461005a57806327e235e31461009c5780632e1a7d4d146100d95780634abc220214610102578063d0e30db01461013f578063e7fb74c714610149575b600080fd5b34801561006657600080fd5b50610081600480360381019061007c9190611366565b610172565b604051610093969594939291906115c9565b60405180910390f35b3480156100a857600080fd5b506100c360048036038101906100be9190611314565b61020b565b6040516100d09190611577565b60405180910390f35b3480156100e557600080fd5b5061010060048036038101906100fb9190611366565b610223565b005b34801561010e57600080fd5b506101296004803603810190610124919061138f565b6103d7565b6040516101369190611577565b60405180910390f35b6101476107fd565b005b34801561015557600080fd5b50610170600480360381019061016b9190611366565b6108eb565b005b6002818154811061018257600080fd5b90600052602060002090600602016000915090508060000154908060010160009054906101000a900473ffffffffffffffffffffffffffffffffffffffff16908060020154908060030160009054906101000a900473ffffffffffffffffffffffffffffffffffffffff16908060040154908060050160009054906101000a900460ff16905086565b60016020528060005260406000206000915090505481565b80600160003373ffffffffffffffffffffffffffffffffffffffff1673ffffffffffffffffffffffffffffffffffffffff1681526020019081526020016000205410156102a5576040517f08c379a000000000000000000000000000000000000000000000000000000000815260040161029c90611537565b60405180910390fd5b6102ba816000546112a990919063ffffffff16565b60008190555061031281600160003373ffffffffffffffffffffffffffffffffffffffff1673ffffffffffffffffffffffffffffffffffffffff168152602001908152602001600020546112a990919063ffffffff16565b600160003373ffffffffffffffffffffffffffffffffffffffff1673ffffffffffffffffffffffffffffffffffffffff168152602001908152602001600020819055503373ffffffffffffffffffffffffffffffffffffffff166108fc829081150290604051600060405180830381858888f1935050505015801561039b573d6000803e3d6000fd5b5047600054146103d4577f4e487b7100000000000000000000000000000000000000000000000000000000600052600160045260246000fd5b50565b6000828460008290503373ffffffffffffffffffffffffffffffffffffffff168173ffffffffffffffffffffffffffffffffffffffff16636352211e846040518263ffffffff1660e01b81526004016104309190611577565b60206040518083038186803b15801561044857600080fd5b505afa15801561045c573d6000803e3d6000fd5b505050506040513d601f19601f82011682018060405250810190610480919061133d565b73ffffffffffffffffffffffffffffffffffffffff16146104a057600080fd5b858760008290503073ffffffffffffffffffffffffffffffffffffffff168173ffffffffffffffffffffffffffffffffffffffff1663081812fc846040518263ffffffff1660e01b81526004016104f79190611577565b60206040518083038186803b15801561050f57600080fd5b505afa158015610523573d6000803e3d6000fd5b505050506040513d601f19601f82011682018060405250810190610547919061133d565b73ffffffffffffffffffffffffffffffffffffffff161461056757600080fd5b6000600280549050905060026040518060c001604052808381526020018c73ffffffffffffffffffffffffffffffffffffffff1681526020018d81526020013373ffffffffffffffffffffffffffffffffffffffff1681526020018b81526020016000151581525090806001815401808255809150506001900390600052602060002090600602016000909190919091506000820151816000015560208201518160010160006101000a81548173ffffffffffffffffffffffffffffffffffffffff021916908373ffffffffffffffffffffffffffffffffffffffff1602179055506040820151816002015560608201518160030160006101000a81548173ffffffffffffffffffffffffffffffffffffffff021916908373ffffffffffffffffffffffffffffffffffffffff1602179055506080820151816004015560a08201518160050160006101000a81548160ff02191690831515021790555050506001600360008c73ffffffffffffffffffffffffffffffffffffffff1673ffffffffffffffffffffffffffffffffffffffff16815260200190815260200160002060008d815260200190815260200160002060006101000a81548160ff021916908315150217905550806002828154811061076a577f4e487b7100000000000000000000000000000000000000000000000000000000600052603260045260246000fd5b906000526020600020906006020160000154146107b0577f4e487b7100000000000000000000000000000000000000000000000000000000600052600160045260246000fd5b807fd3742413e0092c98517699ed9f8567218c740a5a265a7a986d9430d5979375228c8c8c6040516107e493929190611592565b60405180910390a2809750505050505050509392505050565b6000341161080a57600080fd5b3460008082825461081b919061163b565b9250508190555034600160003373ffffffffffffffffffffffffffffffffffffffff1673ffffffffffffffffffffffffffffffffffffffff1681526020019081526020016000206000828254610871919061163b565b925050819055507f688e89c1496876b0d792df75671fbe827183660b170bb8983d82511a6a4b7d1b33346040516108a99291906114ce565b60405180910390a147600054146108e9577f4e487b7100000000000000000000000000000000000000000000000000000000600052600160045260246000fd5b565b806002805490508110801561094a57508060028281548110610936577f4e487b7100000000000000000000000000000000000000000000000000000000600052603260045260246000fd5b906000526020600020906006020160000154145b610989576040517f08c379a000000000000000000000000000000000000000000000000000000000815260040161098090611517565b60405180910390fd5b8160001515600282815481106109c8577f4e487b7100000000000000000000000000000000000000000000000000000000600052603260045260246000fd5b906000526020600020906006020160050160009054906101000a900460ff16151514610a29576040517f08c379a0000000000000000000000000000000000000000000000000000000008152600401610a2090611557565b60405180910390fd5b60028381548110610a63577f4e487b7100000000000000000000000000000000000000000000000000000000600052603260045260246000fd5b906000526020600020906006020160010160009054906101000a900473ffffffffffffffffffffffffffffffffffffffff1660028481548110610acf577f4e487b7100000000000000000000000000000000000000000000000000000000600052603260045260246000fd5b90600052602060002090600602016002015460008290503073ffffffffffffffffffffffffffffffffffffffff168173ffffffffffffffffffffffffffffffffffffffff1663081812fc846040518263ffffffff1660e01b8152600401610b369190611577565b60206040518083038186803b158015610b4e57600080fd5b505afa158015610b62573d6000803e3d6000fd5b505050506040513d601f19601f82011682018060405250810190610b86919061133d565b73ffffffffffffffffffffffffffffffffffffffff1614610ba657600080fd5b60028681548110610be0577f4e487b7100000000000000000000000000000000000000000000000000000000600052603260045260246000fd5b906000526020600020906006020160040154600160003373ffffffffffffffffffffffffffffffffffffffff1673ffffffffffffffffffffffffffffffffffffffff168152602001908152602001600020541015610c73576040517f08c379a0000000000000000000000000000000000000000000000000000000008152600401610c6a906114f7565b60405180910390fd5b610d1060028781548110610cb0577f4e487b7100000000000000000000000000000000000000000000000000000000600052603260045260246000fd5b906000526020600020906006020160040154600160003373ffffffffffffffffffffffffffffffffffffffff1673ffffffffffffffffffffffffffffffffffffffff168152602001908152602001600020546112a990919063ffffffff16565b600160003373ffffffffffffffffffffffffffffffffffffffff1673ffffffffffffffffffffffffffffffffffffffff16815260200190815260200160002081905550610e5b60028781548110610d90577f4e487b7100000000000000000000000000000000000000000000000000000000600052603260045260246000fd5b9060005260206000209060060201600401546001600060028a81548110610de0577f4e487b7100000000000000000000000000000000000000000000000000000000600052603260045260246000fd5b906000526020600020906006020160030160009054906101000a900473ffffffffffffffffffffffffffffffffffffffff1673ffffffffffffffffffffffffffffffffffffffff1673ffffffffffffffffffffffffffffffffffffffff168152602001908152602001600020546112bf90919063ffffffff16565b6001600060028981548110610e99577f4e487b7100000000000000000000000000000000000000000000000000000000600052603260045260246000fd5b906000526020600020906006020160030160009054906101000a900473ffffffffffffffffffffffffffffffffffffffff1673ffffffffffffffffffffffffffffffffffffffff1673ffffffffffffffffffffffffffffffffffffffff16815260200190815260200160002081905550600160028781548110610f45577f4e487b7100000000000000000000000000000000000000000000000000000000600052603260045260246000fd5b906000526020600020906006020160050160006101000a81548160ff02191690831515021790555060006003600060028981548110610fad577f4e487b7100000000000000000000000000000000000000000000000000000000600052603260045260246000fd5b906000526020600020906006020160010160009054906101000a900473ffffffffffffffffffffffffffffffffffffffff1673ffffffffffffffffffffffffffffffffffffffff1673ffffffffffffffffffffffffffffffffffffffff168152602001908152602001600020600060028981548110611055577f4e487b7100000000000000000000000000000000000000000000000000000000600052603260045260246000fd5b906000526020600020906006020160020154815260200190815260200160002060006101000a81548160ff021916908315150217905550600286815481106110c6577f4e487b7100000000000000000000000000000000000000000000000000000000600052603260045260246000fd5b906000526020600020906006020160010160009054906101000a900473ffffffffffffffffffffffffffffffffffffffff1673ffffffffffffffffffffffffffffffffffffffff166342842e0e6002888154811061114d577f4e487b7100000000000000000000000000000000000000000000000000000000600052603260045260246000fd5b906000526020600020906006020160030160009054906101000a900473ffffffffffffffffffffffffffffffffffffffff163360028a815481106111ba577f4e487b7100000000000000000000000000000000000000000000000000000000600052603260045260246000fd5b9060005260206000209060060201600201546040518463ffffffff1660e01b81526004016111ea93929190611497565b600060405180830381600087803b15801561120457600080fd5b505af1158015611218573d6000803e3d6000fd5b50505050857f8164c6f8917e418c49813e4586897c7067de5a886aa1bea980cd11fa57d482643360028981548110611279577f4e487b7100000000000000000000000000000000000000000000000000000000600052603260045260246000fd5b9060005260206000209060060201600401546040516112999291906114ce565b60405180910390a2505050505050565b600081836112b79190611691565b905092915050565b600081836112cd919061163b565b905092915050565b6000813590506112e4816117e0565b92915050565b6000815190506112f9816117e0565b92915050565b60008135905061130e816117f7565b92915050565b60006020828403121561132657600080fd5b6000611334848285016112d5565b91505092915050565b60006020828403121561134f57600080fd5b600061135d848285016112ea565b91505092915050565b60006020828403121561137857600080fd5b6000611386848285016112ff565b91505092915050565b6000806000606084860312156113a457600080fd5b60006113b2868287016112ff565b93505060206113c3868287016112d5565b92505060406113d4868287016112ff565b9150509250925092565b6113e7816116c5565b82525050565b6113f6816116d7565b82525050565b600061140960138361162a565b91506114148261173c565b602082019050919050565b600061142c60138361162a565b915061143782611765565b602082019050919050565b600061144f60168361162a565b915061145a8261178e565b602082019050919050565b600061147260158361162a565b915061147d826117b7565b602082019050919050565b61149181611703565b82525050565b60006060820190506114ac60008301866113de565b6114b960208301856113de565b6114c66040830184611488565b949350505050565b60006040820190506114e360008301856113de565b6114f06020830184611488565b9392505050565b60006020820190508181036000830152611510816113fc565b9050919050565b600060208201905081810360008301526115308161141f565b9050919050565b6000602082019050818103600083015261155081611442565b9050919050565b6000602082019050818103600083015261157081611465565b9050919050565b600060208201905061158c6000830184611488565b92915050565b60006060820190506115a76000830186611488565b6115b460208301856113de565b6115c16040830184611488565b949350505050565b600060c0820190506115de6000830189611488565b6115eb60208301886113de565b6115f86040830187611488565b61160560608301866113de565b6116126080830185611488565b61161f60a08301846113ed565b979650505050505050565b600082825260208201905092915050565b600061164682611703565b915061165183611703565b9250827fffffffffffffffffffffffffffffffffffffffffffffffffffffffffffffffff038211156116865761168561170d565b5b828201905092915050565b600061169c82611703565b91506116a783611703565b9250828210156116ba576116b961170d565b5b828203905092915050565b60006116d0826116e3565b9050919050565b60008115159050919050565b600073ffffffffffffffffffffffffffffffffffffffff82169050919050565b6000819050919050565b7f4e487b7100000000000000000000000000000000000000000000000000000000600052601160045260246000fd5b7f4e6f7420656e6f7567682062616c616e63652100000000000000000000000000600082015250565b7f436f756c64206e6f742066696e64206974656d00000000000000000000000000600082015250565b7f42616c616e6365206e6f742073756666696369656e7400000000000000000000600082015250565b7f4974656d20697320616c726561647920736f6c64210000000000000000000000600082015250565b6117e9816116c5565b81146117f457600080fd5b50565b61180081611703565b811461180b57600080fd5b5056fea2646970667358221220c65974472ac895760c21cd3f1b58135675c51bbb35ce6f8a5a064382827525c064736f6c63430008030033",
  "immutableReferences": {},
  "source": "pragma solidity ^0.8.0;\r\n\r\nimport \"../node_modules/@openzeppelin/contracts/token/ERC721/IERC721.sol\";\r\nimport \"../node_modules/@openzeppelin/contracts/utils/math/SafeMath.sol\";\r\n\r\n// Define contract\r\ncontract MorarableMarketContract {\r\n    using SafeMath for uint256;\r\n\r\n    // Define a basic auction item\r\n    struct AuctionItem {\r\n\r\n        // Id of the item\r\n        uint id;\r\n\r\n        // token address of the item\r\n        address tokenAddress;\r\n\r\n        // Token id of the item\r\n        uint itemId;      \r\n\r\n        // Address of the seller\r\n        address seller;\r\n\r\n        // Price of the item\r\n        uint askingPrice;\r\n\r\n        // If the item is sold\r\n        bool isSold;\r\n    }\r\n\r\n    // balance of the contract\r\n    uint256 ContractBalance;\r\n    \r\n    // balances of the users\r\n    mapping (address => uint256) public balances;\r\n    \r\n    // Items in the marketplace\r\n    AuctionItem[] public itemsForSale;\r\n\r\n    // Mapping that keeps track if which items are already on for sale\r\n    mapping (address => mapping (uint256 => bool)) activeItems;\r\n\r\n    // Event fired when a new item is added to the marketplace\r\n    event itemAdded(uint indexed id, uint itemId, address tokenAddress, uint askingPrice);\r\n\r\n    // Event fired when an item is sold\r\n    event itemSold(uint indexed id, address newOwner, uint price);\r\n\r\n    // Event fired when a deposit is made\r\n    event deposited(address userAddress, uint amount);\r\n\r\n    // Event fired when a withdraw is made\r\n    event withdrawl(address userAddress, uint amount);        \r\n\r\n    // Modifier that checks so that only the owner of the given token can perform an action\r\n    modifier OnlyItemOwner (address tokenAddress, uint id){\r\n        IERC721 tokenContract = IERC721(tokenAddress);\r\n        require(tokenContract.ownerOf(id) == msg.sender);\r\n        _;        \r\n    }\r\n\r\n    // Modifier that checks so that the market place is allowed to trade the token on behalf of the user\r\n    modifier HasTransferApproval (address tokenAddress, uint itemId){\r\n        IERC721 tokenContract = IERC721(tokenAddress);\r\n        require(tokenContract.getApproved(itemId) == address(this));\r\n        _;        \r\n    }\r\n    \r\n    // Modifier that checks so that an item exists in the market place\r\n    modifier ItemExists (uint id){\r\n        require(id < itemsForSale.length && itemsForSale[id].id == id, \"Could not find item\");    \r\n        _;        \r\n    }\r\n\r\n    // Modifier that checks so that an item is not already sold\r\n    modifier IsForSale (uint id){\r\n        require(itemsForSale[id].isSold == false, \"Item is already sold!\");    \r\n        _;        \r\n    }\r\n\r\n    // Function that lets the user deposit eth into the marketplace\r\n    function deposit() payable external{\r\n        require(msg.value > 0);\r\n        ContractBalance += msg.value;\r\n        balances[msg.sender] += msg.value;\r\n        emit deposited(msg.sender, msg.value);\r\n        assert(ContractBalance == address(this).balance);\r\n    }\r\n\r\n    function withdraw(uint amount) external{\r\n        require(balances[msg.sender] >= amount, \"Balance not sufficient\");    \r\n        ContractBalance = ContractBalance.sub(amount);\r\n        balances[msg.sender] = balances[msg.sender].sub(amount);\r\n        payable(msg.sender).transfer(amount);\r\n        assert(ContractBalance == address(this).balance);\r\n    }\r\n\r\n    function addItemToMarket(uint itemId, address tokenAddress, uint askingPrice) OnlyItemOwner(tokenAddress, itemId) HasTransferApproval(tokenAddress, itemId) external returns (uint256) {    \r\n        uint256 newItemId = itemsForSale.length;\r\n        itemsForSale.push(AuctionItem(newItemId,tokenAddress, itemId, msg.sender, askingPrice, false));    \r\n        activeItems[tokenAddress][itemId] = true;\r\n        assert(itemsForSale[newItemId].id == newItemId);\r\n        emit itemAdded(newItemId, itemId,tokenAddress, askingPrice);\r\n        return newItemId;\r\n    }\r\n\r\n    function buyItem(uint id) external ItemExists(id) IsForSale(id) HasTransferApproval(itemsForSale[id].tokenAddress, itemsForSale[id].itemId) {   \r\n        require(balances[msg.sender] >= itemsForSale[id].askingPrice, \"Not enough balance!\");\r\n\r\n        balances[msg.sender] = balances[msg.sender].sub(itemsForSale[id].askingPrice);\r\n        balances[itemsForSale[id].seller] = balances[itemsForSale[id].seller].add(itemsForSale[id].askingPrice);\r\n        itemsForSale[id].isSold = true;\r\n        activeItems[itemsForSale[id].tokenAddress][itemsForSale[id].itemId] = false;\r\n        IERC721(itemsForSale[id].tokenAddress).safeTransferFrom(itemsForSale[id].seller, msg.sender, itemsForSale[id].itemId);\r\n        emit itemSold(id, msg.sender, itemsForSale[id].askingPrice);\r\n    }  \r\n}",
  "sourcePath": "E:/Repos/Moralis Tutorials/Rarible clone tutorial demo/contracts/contracts/Marketplace.sol",
  "compiler": {
    "name": "solc",
    "version": "0.8.3+commit.8d00100c.Emscripten.clang"
  },
  "schemaVersion": "3.3.4",
  "updatedAt": "2021-03-30T14:07:27.935Z",
  "networkType": "ethereum",
  "devdoc": {
    "kind": "dev",
    "methods": {},
    "version": 1
  },
  "userdoc": {
    "kind": "user",
    "methods": {},
    "version": 1
  }
}